:100000000C9417030C944F030C944F030C944F0360
:100010000C944F030C944F030C944F030C944F0318
:100020000C944F030C944F030C94B4290C94702936
:100030000C94B12A0C944F030C944F030C944F036F
:100040000C944F030C944F030C944F030C944F03E8
:100050000C944F030C948D2A0C944F030C944F0373
:100060000C944F030C944F030C944F030C944F03C8
:100070000C944F030C944F030C944F030C944F03B8
:100080000C944F030C944F030C944F030C944F03A8
:100090000C944F030C944F030C944F030C944F0398
:1000A0000C944F030C944F030C944F030501090269
:1000B000A10185020901A1000509190129081500FE
:1000C0002501950875018102050109300931158165
:1000D000257F95027508810609381581257F9501D0
:1000E00075088106050C0A38021581257F95017572
:1000F000088106C0C005010980A101850319012AF4
:10010000B700150126B700950175108100C0050CD8
:100110000901A101850419012AA002150126A002E6
:10012000950175108100C005010906A1018506052C
:100130000719E029E71500250195087501810205D9
:1001400007190029EF1500250195F07501810205B9
:10015000081901290595057501910295017503910D
:1001600001C00660FF0961A1010962150026FF00B8
:100170009520750881020963150026FF00952075FA
:10018000089102C005010906A101050719E029E748
:1001900015002501950875018102950175088101F9
:1001A0000507190029FF150026FF0095067508812F
:1001B000000508190129051500250195057501910E
:1001C00002950175039101C0FD377A585A00000469
:1001D000E6D6B4460200210116000000742FE5A304
:1001E000E0012D007A5D003D8889A654750A36E14C
:1001F00082AEFA7A1AA6FCA2ED4951391A5E7177DD
:10020000BBD0558A5F04BCAA647EE5D3B49857C9B5
:1002100074860BD13C57B902472BB86A9A61CB6AF6
:10022000FFE9AF3229D96405C140D95A6C700A8000
:1002300089751B330F5799C1CE82DFC5582F827E37
:100240006DB3DA15F95DE2AB189C5626819A1DF064
:10025000F08D735B9EA2F1A6147A7FE1DF596208EC
:100260005500000063FD32FF6A7F99DF00019601AF
:10027000AE0200006BB23A9BB1C467FB0200000003
:100280000004595A01000100C303160FFB0E0000C1
:1002900002000200BF03160FFB0E00000300010066
:1002A000C403160FFB0E000004000200A903160F82
:1002B000FB0ED50605000100C503160FFB0E00005E
:1002C00006000200AB03160FFB0E00000700020041
:1002D000C103160FFB0E000008000100C603160F35
:1002E000FB0E000009000200AD03160FFB0EB00666
:1002F0000A000200AF03160FFB0EB0060B0002004F
:10030000B103160FFB0EB0060C000200B303160F6C
:10031000FB0EB0060D000200B503160FFB0EB00673
:100320000E000200B703160FFB0EB0060F0002000E
:10033000B903160FFB0EB00610000200BB03160F28
:10034000FB0EB00611000200BD03160FFB0EB00637
:1003500012000200C703160FFB0E0000130002007C
:10036000C903160FFB0E000014000100CB03160F8B
:10037000FB0E000015000000000036066E150000A0
:1003800014001A000800150017001C0018000C00CB
:100390001200130004001600070009000A000B00F9
:1003A0000D000E000F0033001D001B000600190099
:1003B0000500110010003600370038002900E30066
:1003C00000002B212C4221522A220000E2002800AA
:1003D0001E001F0020002100220023002400250011
:1003E0002600270035002D002E002F003000500081
:1003F000510052004F0034003100010001000100A3
:1004000001000100010001000100340000000000B3
:100410000000000023520000000031000000000036
:100420001E021F02200221022202230224022502B0
:100430002602270235022D022E022F023002500022
:10044000510052004F00340231020100010001004E
:100450000100010001000100010034020000000061
:1004600000000000000023520000310200000000E4
:10047000017C0000000000000000000000000000FF
:1004800000004C003A003B003C003D003E003F00B5
:10049000AA00A90000000000400041004200430003
:1004A000440045000000000000000000000017703C
:1004B00000001870000000000000000000000000B4
:1004C00009025B00030100A0FA0904000001030116
:1004D00001000921110100012244000705810308E0
:1004E00000010904010002030000000921110100BC
:1004F00001222200070582032000010705030320D3
:10050000000109040200010300000009211101009B
:100510000122B60007058403200001120100020039
:10052000000008AFBE03000100010203011C0376B6
:1005300000690061006C003A006600360034006318
:1005400000320062003300630000001803620061A3
:10055000006E0063006F0075007600650072003465
:1005600000300000001203730070006F007200651D
:100570000077006F00680000000403090400000019
:10058000000000000000000000000000000000006B
:10059000000000000000000000000000000000005B
:1005A000007E0F00D4FFFFFFC700000078000000AE
:1005B00000000000002A2B280000000000000000BE
:1005C000000000000000000029000000002C1E3484
:1005D00020212224342627252E362D3738271E1F8A
:1005E000202122232425263333362E37381F0405B5
:1005F000060708090A0B0C0D0E0F10111213141523
:10060000161718191A1B1C1D2F3130232D35040500
:10061000060708090A0B0C0D0E0F10111213141502
:10062000161718191A1B1C1D2F3130354C001124B8
:100630001FBECFEFDAE0DEBFCDBF04B603FE18C0A9
:100640008091220590912305A0912405B091250564
:100650008730904BA740B04B59F41092220510926E
:1006600023051092240510922505E0E0F8E3099592
:1006700011E0A0E0B1E0E0E6F8E602C005900D92DE
:10068000A437B107D9F725E0A4E7B1E001C01D9276
:10069000A232B207E1F70E94D82A0C94DA330C9404
:1006A0000000482F209120059091D70459E029138C
:1006B00002C080E0089530E0529FF001539FF00D9A
:1006C0001124E852FB4F8181681306C080814813D2
:1006D00003C085818111EECF2F5F3F4F2770E7CF99
:1006E000E8EDF0E080818E7F80831092E20010922E
:1006F000DA001092E100A0EEB0E08C9181608C9362
:1007000080818F77808319BCA7EDB0E08C918E7FBC
:100710008C9380818F7E80831092A804089520910D
:10072000E4003091E50095E6A9012091EC00822FCC
:10073000817020FF06C08091E80080FF06C080E045
:1007400008952091E80022FD1AC08091CD048823ED
:1007500089F0853089F08091EB0085FD0FC02091F4
:10076000E4003091E50042175307F9F29150E1F6A9
:1007700084E0089582E0089583E0089581E008957B
:100780008091CF0487FF13C08091E80082FF06C0EC
:100790008091E8008B778093E80004C08091CD04BD
:1007A0008111F2CF08958091CD048823D9F38091EF
:1007B000E80080FFF8CF8091E8008E77ECCF982F8B
:1007C0009093E900242F762F50E0891731F0709133
:1007D000EC002091ED005091F00021FD07C09F5FDB
:1007E000973071F78093E90081E008953091EB0034
:1007F0003E7F3093EB003091ED003D7F3093ED0074
:100800003091EB0031603093EB007093EC0020935B
:10081000ED005093F0002091EE0027FDE0CF80E046
:100820000895B0E0A0E0E7E1F4E00C941D33C8EDDA
:10083000D0E088818F7E8883E7EDF0E08081816061
:10084000808384E082BF81E08093A80488818E7FCA
:10085000888302EE10E0F80110821092DA0081EE37
:10086000C82ED12CF601108288818F7788838881E9
:100870008068888388818F7D888319BC1092CD041D
:100880001092CE041092CC041092CB0490EEE92E7C
:10089000F12CF70180818B7F808388818160888340
:1008A00042E060E080E00E94DF03F60180818E7FFD
:1008B0008083F8018081816080838081886080836B
:1008C000F70180818E7F8083888180618883CDB7A6
:1008D000DEB7E8E00C943933FC018091D5049091A7
:1008E000D60486179707A0F06115710529F4909139
:1008F000E8009E779093E80090E06115710551F44F
:10090000911108C08091E80082FF34C080E0089512
:10091000BC01F2CF8091CD048823C1F18530C1F1B3
:100920008091E80083FD30C08091E80082FDEACF2D
:100930008091E80080FFE1CF8091F3002091F200E8
:10094000382F6115710519F02830310558F091E004
:100950002830310509F090E02091E8002E772093AF
:10096000E800CBCF81918093F100615071092F5F36
:100970003F4FE7CF8091CD04882341F0853041F08F
:100980008091E80083FFBECF81E0089582E0089562
:1009900083E008958091AA0408959C014FB7F894CC
:1009A0008091A2049091A304A091A404B091A50405
:1009B0004FBF821B930B08952FB7F8946091A20448
:1009C0007091A3048091A4049091A5042FBF089571
:1009D0002FB7F8948091A2049091A304A091A4044D
:1009E000B091A5042FBF0895209115012223C1F0D5
:1009F0002091A60427FF14C0E62FE695E695E6951C
:100A0000EE31F8F4E80FF92FF11D677021E030E0C6
:100A100001C0220F6A95EAF78281822B82830895B2
:100A2000FC0132962FEF30E04191641751F02F3FD7
:100A300019F4411101C0232F3F5F3630A9F72F3F32
:100A400009F40895820F911D27FD9A95FC01628398
:100A50000895A3E0B0E0EFE2F5E00C942333209199
:100A60009F043091A00428173907A1F09093A004A7
:100A700080939F04E0919D04F0919E04309751F083
:100A800024E029839B838A830680F781E02DCE01B1
:100A9000019609952396E2E00C943F33A3E0B0E081
:100AA000E4E5F5E00C94233320919B0430919C0401
:100AB00028173907A1F090939C0480939B04E09140
:100AC0009D04F0919E04309751F023E029839B838D
:100AD0008A830680F781E02DCE0101960995239641
:100AE000E2E00C943F33E0919D04F0919E04309736
:100AF00029F00190F081E02D0995089580E0089596
:100B00004115510511F0FA0109950895CF93DF932E
:100B1000EC0140918B0450918C0460918D04709194
:100B20008E042FB7F8948091A2049091A304A09111
:100B3000A404B091A5042FBF841B950BA60BB70B83
:100B4000843F9140A105B10518F580918B049091E7
:100B50008C04A0918D04B0918E04809387049093AF
:100B60008804A0938904B0938A0484EF91E0A0E004
:100B7000B0E08093830490938404A0938504B093A1
:100B80008604D0939304C0939204DF91CF9108958B
:100B90000E94DC0460938704709388048093890426
:100BA00090938A0482E390E0A0E0B0E0E2CFFC0101
:100BB0008481862351F492819923B9F06923808539
:100BC00083FF05C081E061110FC080E00895892F87
:100BD0008F7092959F70982B862F8F7062956F7093
:100BE000682B81E09613F1CF089581E0FDCFDC0101
:100BF00060917D0480917E04962F891301C0089531
:100C0000292F30E0F901EE0FFF1FEB58FB4F408119
:100C100051814A175B07A1F487E08A9FA0018B9F4F
:100C2000500D11244C525C4F81E0FA0184839613DD
:100C3000E6CF2F5F3F4F2370332720937D04089525
:100C40002F5F3F4F922F9370D8CF1092D203109204
:100C5000D103E4EDF3E08581811102C01482168294
:100C6000379684E0EC30F807B1F70895B0E0A0E0E3
:100C7000ECE3F6E00C941B338FEF9FEF443051050B
:100C800008F469C04091A60441FB882780F990E0F0
:100C9000880F991F42FB002700F910E0000F111F79
:100CA000000F111F802B912B40FBCC24C0F8D12CBE
:100CB0008C299D2943FB222720F9C22FE0E0DE2F5B
:100CC00053E0CC0FDD1F5A95E1F78C2B9D2B44FB95
:100CD000AA27A0F9B0E0E4E0AA0FBB1FEA95E1F76C
:100CE0008A2B9B2B45FBEE27E0F9F0E0A5E0EE0F09
:100CF000FF1FAA95E1F78E2B9F2B46FB222720F999
:100D000030E0B6E0220F331FBA95E1F7822B932B28
:100D100047FB222720F930E03695322F22273795DE
:100D20002795822B932B2091A704322F3170F32E1D
:100D3000E82EF92A26952170B22EBB0CA82EBF28CA
:100D4000C501BB0CAA0BBB0BFB0180839183A28363
:100D5000B38390E080E0CDB7DEB7EAE00C943733A0
:100D6000E9EAF3E0848195812AE030E0B9010E944C
:100D7000DE3260931001868180930F01828580931B
:100D80000E01848580930D0186859785B9010E94A7
:100D9000DE3260930C01808980930B0182898093FD
:100DA0000A0184898093090108958091A903909193
:100DB000AA0390931201809311010895EDE2F2E0ED
:100DC00090E080E061EB78E248ED58E227E238E21B
:100DD0007783668351874087338722879787868703
:100DE000019670968830910599F7089581152CE742
:100DF000920741F42091810430918204232B11F455
:100E000090E080E008950E94E8049C019091150212
:100E100080911602982B21F0309312022093110238
:100E20009091170280911802982B21F030931002B4
:100E300020930F02E0919D04F0919E04309749F0B9
:100E400082E0809313020480F581E02D83E192E03B
:100E50000995089580910E0280FF0CC060910A01EF
:100E600070E075956795759567956115710549F100
:100E7000862F089581FF06C060910A0170E0759584
:100E80006795F3CF60910A0182FD0BC090910D022E
:100E90009923A1F06091090180910A01961738F019
:100EA000682F70E06038710500F38FE70895899F1F
:100EB000C001112470E00E94F232F4CF61E070E0D2
:100EC000D7CF81E0089580910E026091B1037091B7
:100ED000B20380FF16C020910E01269FC001279FFC
:100EE000900D1124BC0176956795769567956038CD
:100EF000710508F043C06115710509F441C0862FE2
:100F0000089581FF0BC020910E01269FC001279FED
:100F1000900D1124BC0176956795E9CF82FF09C039
:100F200080910E019B01829FB001839F700D11245F
:100F3000DECF20910C022223D1F290910D018091FD
:100F40000E01482F50E0291748F0CB01849FB001D3
:100F5000859F700D949F700D1124C9CF289F90011B
:100F60001124269FA001279F500D369F500D11245C
:100F7000692F70E0CA010E94DE32B9CF8FE7089571
:100F800081E00895282F35EB2303C001112497FF3A
:100F900004C080589109892F089580589F4FFBCF36
:100FA00080E00895F894E82FE295EF70F0E031A129
:100FB000282F2F7081E090E001C0880F2A95EAF772
:100FC000982F9095932391A392A1892B82A3789433
:100FD00008959091A60492FF10C041E0282F24713B
:100FE000243009F040E031E0282F2871283009F042
:100FF00030E0431711F02CE0822793FF10C041E04E
:10100000282F2471243109F040E031E0282F287185
:10101000283109F030E0431711F02CE0822730919D
:10102000A70430FF10C051E0282F2171213009F0B2
:1010300050E041E0282F2871283009F040E0541793
:1010400011F029E0822731FF10C041E0282F2171E3
:10105000213109F040E031E0282F2871283109F0D2
:1010600030E0431711F029E0822794FD877E089530
:1010700082389105B9F1B0F48133910509F47DC04E
:1010800048F48932910509F46DC08A32910509F45A
:101090007BC008958533910509F45FC089339105BC
:1010A00009F10895833E9105D9F138F4803E910508
:1010B00029F1823E910579F10895863E9105D9F195
:1010C000873E910509F43EC0843E910541F520918B
:1010D000A70421FF24C08091A60484FD19C087EED7
:1010E00090E008952091A604237009F05AC0209141
:1010F000A70423FF14C089E290E008952091A6047C
:1011000020FD38C03091A70430FF09C024FF43C040
:1011100090E080E008952091A60422FDF7CF089585
:101120002091A60422FD3AC03091A70430FD39C0B9
:1011300024FFF5CFEDCF2091A60423FFF0CF24FDAF
:10114000E7CFCDCF2091A60423FD2EC03091A70478
:1011500031FFEECF84EE90E008952091A60425FFA4
:10116000DECFC9CF2091A60425FD21C02091A70480
:1011700023FFD5CF89E390E0D2CF2091A60426FFAC
:10118000CECF8AE290E008952091A60426FFC7CF33
:1011900081E390E0089583EE90E0089582EE90E080
:1011A000089580EE90E0089586EE90E0089585E33E
:1011B00090E008951F93CF93DF930E943808EC01CD
:1011C000C11580E5D807F0F5C11580E4D80708F00F
:1011D0009CC0C03ED10520F5CD3CD10508F082C0B1
:1011E000C83AD10578F4C53AD10508F073C0C130CA
:1011F000D10519F1209709F1C430D105F0F4D0E000
:10120000C0E01BC0C33CD105D0F7C85AD0E0CC0F1A
:10121000DD1FCF5DDE4F0990D881C02DD4640DC095
:10122000C11580E2D80708F0D1C0C11581E0D80708
:1012300008F05AC0C83ED10510F7CE01DF91CF911A
:101240001F910895C03682E5D80718F5C03482E5AD
:10125000D80708F06BC0C03282E5D80708F05FC03D
:10126000C11582E5D80708F497C02C2F269526953E
:1012700080E2289F900111248C2F8370C1E0D0E080
:1012800002C0CC0FDD1F8A95E2F7C22BD32BDD689D
:10129000D4CFC03A82E5D80760F4C03882E5D807D9
:1012A00008F459C0CF71D0E0DC2FCC27C46FD06ACE
:1012B000C4CFC03C82E5D80708F462C0C03E82E5D6
:1012C000D80708F09CCFDC2FCC27CC27DF71C06F6C
:1012D000D06AB3CFC55AD0E0C25EDE4FC881D0E03D
:1012E000D064ABCFD065A9CF8D2F0E94E907182F0E
:1012F000CE0199270E943808C12FD0E0DC2FCC27DF
:10130000CC27DF71C82BD92B98CFCE0199270E940B
:101310003808CC27DF70C82BD92BD06A8ECFCF717D
:10132000D0E0DC2FCC27C16FD06A87CF2C2F269539
:101330002695277080E2289F900111248C2F8370BE
:10134000C1E0D0E002C0CC0FDD1F8A95E2F7C22BCE
:10135000D32BDC6872CF2C2F26952695277080E240
:10136000289F900111248C2F8370C1E0D0E002C02F
:10137000CC0FDD1F8A95E2F7C22BD32BDA685DCF45
:101380008C2F8F710E94E907C82FD0E0DC2FCC276B
:10139000CC27DF71D06251CF8C2F8F710E94E9076B
:1013A00055E0D695C7955A95E1F7CF70D0E0DC2F80
:1013B000CC27282F30E084FF05C044E0220F331FE4
:1013C0004A95E1F7C22BD32BD06937CF8D2F8F7180
:1013D0000E94E907182FCE0199270E943808C12FD3
:1013E000D0E0DC2FCC27CC27DF71C82BD92BD2CF74
:1013F0008091D901882331F01092D9011092D8013F
:101400001092D7010895CF93C82F8091A70482FF2F
:101410000CC08091D9018C1741F00E94E804909390
:10142000D8018093D701C093D901CF9108959091AD
:10143000D901292F282361F0809589238093D90130
:10144000882339F00E94E8049093D8018093D70153
:10145000089590E080E0F8CF809590912105982341
:1014600090932105089580959091880398239093F7
:101470008803089590918803892B809388030895A9
:101480001092B6011092B5011092B40108958091A6
:10149000AB039091AC03892B89F00E94E804209162
:1014A000D7013091D801AC01421B530B81E0209150
:1014B000AB033091AC034217530708F480E081700E
:1014C00008959091B301292F282321F08095892335
:1014D0008093B3010895909115019923D1F09091D3
:1014E000A60497FF16C0E82FE695E695E695EE313F
:1014F000E0F4F0E0EA58FE4F282F277081E090E0FA
:1015000001C0880F2A95EAF780959281892382830A
:101510000895E8E7F1E09191891303C0DF01119785
:101520001C9291E0EE37F907B1F7089580912005FC
:101530009091D704981301C008958F5F8770FACFF8
:10154000292F943078F58A3068F590E03AE0239FAF
:10155000800D911D1124682F677023E09695879563
:101560002A95E1F7FC01EE0FFF1FE80FF91FE55682
:10157000FE4F50E040E080E0219130E0062E02C0B6
:10158000369527950A94E2F721703327042E01C07F
:10159000220F0A94EAF7822B4F5F5F4F43305105C9
:1015A00059F7089580E00895292F943098F58A30EE
:1015B00088F590E03AE0239F800D911D1124282F9B
:1015C000277041E001C0440F2A95EAF723E0969581
:1015D00087952A95E1F7FC01EE0FFF1FE80FF91F31
:1015E000E556FE4F30E020E070E05191DF011197A9
:1015F000CB01022E02C0969587950A94E2F781707E
:1016000081958527842385278C932F5F3F4F233037
:10161000310559F708958093E80108959091E80104
:1016200021E030E0F90101C0EE0F8A95EAF7D90117
:1016300002C0AA0FBB1F6A95E2F7EA2B01C0220F76
:101640004A95EAF7892F8E23E81305C0292B822FAC
:101650000E940B0B089520952923F9CF21E030E05B
:1016600001C0220F8A95EAF720958091E801822334
:101670000E940B0B08959091B60180958923809369
:10168000B601282F277069F4891759F09091A704A3
:1016900092FF07C08695869586950E942E0B0E9424
:1016A000400A089521E030E001C0220F8A95EAF750
:1016B0008091E801822B0E940B0B08959091A70462
:1016C00092FF10C098E0899F90011124622B6093D3
:1016D000B6010E94520B0E94E8049093B5018093DA
:1016E000B40108950E94520B08958093E701089574
:1016F00092959F70963091F058F4925F9F7092305F
:1017000058F4803F19F030F4883E30F481E00895B9
:101710009A5FF4CF843FD1F380E00895883EB0F320
:10172000813FD1F7F3CF662309F45DC08D3C41F4CE
:101730000E9463078195809316020E940307089513
:101740008E3C19F40E946307F6CF8F3C31F40E945F
:101750006307819580931502F0CF803D19F40E94B4
:101760006307F8CF893D29F40E942A078093170266
:10177000E4CF8A3D21F40E942A078195F7CF8B3D63
:1017800031F40E942A07819580931802D6CF8C3DB0
:1017900019F40E942A07F8CF9FE2980F983070F44E
:1017A000815D990B21E030E001C0220F8A95EAF7B4
:1017B00080911402822B80931402BFCF8D3D31F4AF
:1017C00080910E02816080930E02B7CF8E3D21F48E
:1017D00080910E028260F7CF8F3D09F0AECF8091ED
:1017E0000E028460F0CF409115028D3C59F4809137
:1017F000160287FF0DC01092160241110BC0109205
:101800000C0208C08E3C81F48091160218169CF3DD
:10181000442381F08091170290911802892B09F0DE
:101820008CCF10920D0289CF8F3C49F447FFF0CF47
:1018300010921502809116028111ECCFE0CF803D0D
:1018400019F41416ACF3E4CF90911702893D29F4F2
:101850001916F4F610921702DBCF8A3D19F497FFA0
:10186000D7CFF8CF909118028B3D29F497FFD0CFB6
:1018700010921802CDCF8C3D19F41916CCF3C8CFB5
:101880009FE2980F983090F4815D990B21E030E051
:10189000B90102C0660F771F8A95E2F7CB018095E8
:1018A00090911402892380931402B2CF8D3D31F4BC
:1018B00080910E028E7F80930E02AACF8E3D21F47E
:1018C00080910E028D7FF7CF8F3D09F0A1CF8091DF
:1018D0000E028B7FF0CF9C013A9521153F4150F5C8
:1018E000FC01EE27F170BC0166277270AC01442741
:1018F00054709C012227387094FF0EC080E1EF2BBA
:1019000009F480E0672B09F08062452B09F08064C0
:10191000232B89F08068089581E0EF2B09F480E0A3
:10192000672B09F08260452B09F08460232B19F0A6
:101930008860089580E008950F931F93CF93DF93FD
:101940008B01EA019091CD04943061F58093E90018
:101950008FEF9091E800815095FD06C095ED9A9526
:10196000F1F700008111F5CF8091E80085FF1AC0E2
:101970000E948F03811111C08091E80085FD06C08F
:101980008091E8008E778093E800F2CFF801819192
:101990008F018093F100219779F78091E8008E778D
:1019A0008093E800DF91CF911F910F91089543E05C
:1019B00050E0BC0184E00E949C0C089546E050E099
:1019C000BC0184E00E949C0C0895CF93DF93EC014E
:1019D00080911501811111C048E050E0BE0181E005
:1019E0000E949C0C80E2FE01ABEAB4E001900D92F3
:1019F0008A95E1F7DF91CF9108958091A60487FF42
:101A000005C040E284E050E0BE01EACF48E081E05A
:101A1000FACF81E08093E00080E28093D8001092BA
:101A2000C9008FE19EE40197F1F700C0000087E054
:101A300090EBDC018093220590932305A09324056D
:101A4000B093250588E19CE00FB6F894A8958093A3
:101A500060000FBE90936000FFCF019708F40895D7
:101A6000EFE9FFE03197F1F700C00000F6CFCF9328
:101A7000DF93CDECD2E060E0CE010E949E33219650
:101A8000C11584E0D807B9F7DF91CF9108951F936E
:101A9000CF93DF93122F8530E0F46430D0F44A30D6
:101AA000C0F4C42FD0E0CC0FDD1F94E1699FC00DBE
:101AB000D11D112490E5899FC00DD11D1124632FE4
:101AC000CE0189960E949E33612FCE018A960E9494
:101AD0009E33DF91CF911F910895CF93C82F6FEF61
:101AE000811160E885E290E00E949E336FEFC111A2
:101AF0006CE586E290E00E949E336FEFC1116DEEBF
:101B000087E290E00E949E33CF9108959B01883038
:101B100070F49AE0899FB001112463527E4F4AE02D
:101B200050E0C9010E94703390E080E008958FEF8B
:101B30009FEF0895AAE0B0E0E0EAFDE00C942333C3
:101B40009C0137552F3F310509F068F4BE016F5FE6
:101B50007F4F0E94860D892B31F489859A852A96BC
:101B6000E2E00C943F338091C1039091C203F7CF20
:101B70000F931F93CF93DF93853030F5643020F5BA
:101B80004A3010F5C42FD0E0CC0FDD1F24E1629F56
:101B9000C00DD11D112430E5839FC00DD11D11242E
:101BA000CE0189960E948033082F10E0102F002765
:101BB000CE018A960E9480339801282BC901DF91BB
:101BC000CF911F910F91089590E080E0F8CF462FBC
:101BD00020910A0230910B02232B99F4703F39F4C3
:101BE000603F79F48091190290911A02089574303F
:101BF00040F46A3030F4853020F4672F0E94B80D2D
:101C0000089590E080E00895CF92DF92FF920F93C5
:101C10001F93CF93DF936C010091E8018091E7015E
:101C2000082BC4E0D0E010E0FC2EC8010C2E02C04E
:101C3000959587950A94E2F780FD0CC02197A0F74F
:101C4000F12C8F2DDF91CF911F910F91FF90DF909D
:101C5000CF900895B6018C2F0E94E70D0E94DA08FC
:101C6000019761F3EECFCF93DF93EC010E94040E56
:101C7000BE010E94E70D0E94DA08DF91CF9108951E
:101C8000FC018481882371F087819085009729F079
:101C90000E94DA080E94780B0895808191810E9449
:101CA000330EF8CF80E00895A6E0B0E0EAE5FEE06C
:101CB0000C94223349835A8349815A819923A1F094
:101CC000222391F0CA010E94040E182F682F8981E7
:101CD0009A810E94D40A69817A81812F0E94E70D3E
:101CE0002696E3E00C943E33CA010E94A00A182F06
:101CF000F2CFFC01262F87819085009741F4408127
:101D0000518162817381848195810E94540E08956E
:101D10000F931F93CF93DF9309EA13E0C9EBD1E050
:101D2000CE010E948033F80161918F01681719F08C
:101D3000CE010E949E332196CD3DF1E0DF0781F771
:101D4000DF91CF911F910F9108950F931F93CF9320
:101D5000DF9309EA13E0C9EBD1E0CE010E948033A2
:101D6000F80181938F012196CD3DF1E0DF07A9F7BE
:101D7000CEE8D2E0FE0185919491009711F0FC012C
:101D800009952C96F3E0CA38DF07A1F7DF91CF91D0
:101D90001F910F91089585E290E00E948033803872
:101DA00089F486E290E00E9480338C3559F487E212
:101DB00090E00E94803391E08D3E09F090E0892F01
:101DC0008170089580E0FCCF9091A70492FB2227B8
:101DD00020F9281779F080FB92F99093A70460917D
:101DE000A6047091A70484E090E00E94BC3382E0D6
:101DF0000E943B0B0895DA019C012E5F3F4FF901D1
:101E000045915491F90125913491A217B30758F0E7
:101E1000FC013496859194910E9460330E94880E53
:101E200090E080E008958FEF9FEF0895DB01FC01C3
:101E30003296259134914217530758F0FC0134969D
:101E400065917491A901CD010E94603390E080E01A
:101E500008958FEF9FEF0895AAE0B0E0E2E3FFE07E
:101E60000C94193300E113E08EEFC82E82E0D82ED7
:101E70009DE7E92E92E0F92E27E0922E3DEFA32E6A
:101E800032E0B32E88248394D6010D931D936D0107
:101E90004AE050E0B701CE0101960E947033F8018C
:101EA0003896DF01892D1D928A95E9F789819A81FB
:101EB000D80111969C938E938F8112968C931297D2
:101EC0008D8113968C931397888514968C93149711
:101ED000898515968C9315978B819C8117969C9379
:101EE0008E93169718961C9218978A8587FF3CC088
:101EF0001E961C921E921D9780FF03C0D801189653
:101F00008C9281FF04C0F80190859260908782FFD7
:101F100007C0D80118969C911897946018969C93C6
:101F200083FF04C0F80190859860908784FF07C004
:101F3000D80118969C911897906118969C9385FFEC
:101F400004C0F801808580628087015F1F4FFAE03E
:101F5000EF0EF11C8DECE81682E0F80609F094CF44
:101F60002A96ECE00C943533F801B686A586C4CFEA
:101F7000AAE0B0E0EEEBFFE00C941D33EDEAF2E0F6
:101F800080E5DF011D928A95E9F7E4EDF3E088E34F
:101F9000DF011D928A95E9F78DEAC82E82E0D82EDE
:101FA0007F010DE212E0F701D182C0824AE050E0E9
:101FB000B801CE0101960E94703388E0FE0131968F
:101FC000D60101900D928A95E1F789859A85D7010E
:101FD00013969C938E931297BAE0CB0ED11CE7E038
:101FE000EE0EF11C065F1F4F0D37F2E01F07D9F60A
:101FF0002A96E8E00C943933A8E0B0E0E2E0F0E1A2
:102000000C9419338E010F5F1F4F88E0F801119275
:102010008A95E9F797E5E92E91E0F92E6801AA245F
:10202000A394B12CF70181917F018F3F09F446C041
:10203000F894E82FE295EF70F0E021A18F70A501F0
:1020400002C0440F551F8A95E2F7CA01922F982BC0
:1020500091A392A18095892382A3789400C0EBE597
:10206000F1E021E030E0912C812C41914F3F09F4C7
:1020700067C0A42FA295AF70B0E090968C9190E0CD
:102080004F7002C0959587954A95E2F780FD58C03C
:10209000C901882A992A220F331F51E0E536F50736
:1020A00021F7F701319780818F3F11F00E94D2070D
:1020B00080EA8A95F1F7F60191828082F2E0CF0EF4
:1020C000D11C4BE5E41641E0F40609F0ABCF48E043
:1020D00050E0B8018FED91E00E945333892B99F1C4
:1020E00088E0F801AFEDB1E001900D928A95E1F73B
:1020F00081E08093DE010E94E8049093DD018093EB
:10210000DC018091DC019091DD010E94CD040597F6
:10211000F0F048E050E06FED71E082E092E00E9464
:102120005333892BC9F088E0EFEDF1E0A2E0B2E093
:1021300001900D928A95E1F781E01092DE0108C0CE
:1021400090E080E0A6CF8091DE018111DACF80E0BF
:102150002896ECE00C94353380E0EFCFCF9380915C
:10216000880390912105892B809376018091D90174
:10217000882329F18091AB039091AC03892B29F03E
:102180000E94470A81110E94F8098091760190917E
:10219000D901892B8093760180911501882309F458
:1021A00047C08091A60487FF43C08EE1E8E7F1E0D5
:1021B00090E0815008F03EC091110E94F809C09152
:1021C0008F04C09580917601C82380919004C82B1C
:1021D000C093760140E250E067EB71E086E791E062
:1021E0000E945333892B11F180E2E6E7F1E0A7EB7F
:1021F000B1E001900D928A95E1F7E0919D04F09194
:102200009E04309799F080911501882349F08091C0
:10221000A60487FF05C0C093770186E0809376010E
:102220000280F381E02D86E791E00995CF91089532
:1022300086E0BCCF2191222309F4BBCF9F5FB9CFA9
:10224000CF93DF93EC014A855B856E857F850E9485
:1022500080058B810E942C0A8C810E94330A0E9487
:10226000AE1086E0FE0111928A95E9F7DF91CF91D9
:102270000895CF93DF93EC018D8181FD14C08260BE
:102280008D83809121059B81892B809321058C81F1
:102290000E943A0A0E94AE10488559856E857F8556
:1022A000CE010E94800510929A04109299048D81AB
:1022B00080FD03C0CE010E942011DF91CF910895CF
:1022C00080911301877F8093130182E00E942C0A82
:1022D0008091130184FF06C08F7E8093130182E0FA
:1022E0000E943A0A8091130185FF06C08F7D80937A
:1022F000130180E20E943A0A0E94AE1008951092E3
:10230000880380911501E8E7F1E0882329F18091A5
:10231000A60487FF21C08EE1DF011D928A95E9F7AF
:1023200090E080E00E944E0590E080E00E94290548
:10233000109221050E94AE1086E0E3E1F2E0DF0199
:102340001D928A95E9F710920C0210920D021092DC
:102350000E020E940307089586E0DECFAAE2B0E0F5
:10236000E4EBF1E10C9422338FEC94E02091F10046
:10237000DC012D93CD01B4E0873D9B07B9F7809137
:10238000D004833009F472C0B8F4813009F449C034
:10239000823009F4B3C08091E80083FF96C2809137
:1023A000CF049091D0049A3008F08FC2E92FF0E06A
:1023B000E452FC4C0C9406338A3009F48EC08B3006
:1023C00009F471C0893039F78091CF04813219F74F
:1023D0008091D3049091D404009711F00297D9F61C
:1023E0008091E800877F8093E8008091E80082FF79
:1023F00038C09091F3008091F200029731F48091FF
:10240000F100813011F0863021F48091F100809349
:10241000AA048091E8008B778093E8000E94C003B3
:10242000BACF8091CF04813A09F0B5CF8091E8000E
:10243000877F8093E8008091D3049091D404892B06
:1024400061F460E28BEA94E070E00E946C04809199
:10245000E8008B778093E8009ECF60E090E080E01A
:10246000F3CF8091CD048111C0CF95CF8091CF045F
:10247000813A09F090CF8091D3049091D404892BB4
:1024800009F089CF8091E800877F8093E8008091F0
:10249000E80080FFFCCF809115018093F1008091CE
:1024A000E8008E77B9CF8091CF04813209F073CFE5
:1024B0008091D3049091D404892B09F06CCF809142
:1024C000E800877F8093E8000E94C0038091D104D8
:1024D000809315010E947F115ECF8091CF048132DD
:1024E00009F059CF8091E800877F8093E8000E942F
:1024F000C0038091D2048093A9044DCF8091CF0472
:10250000813A09F048CF8091E800877F8093E80006
:102510008091E80080FFFCCF8091A904BECF803875
:1025200099F0823809F0D1C18091D3048F7087303F
:1025300008F0CBC18093E9008091EB0085FB8827F0
:1025400080F91092E90006C08091CB049091CC04F0
:10255000911182609091E800977F9093E8008093BA
:10256000F1001092F1008091E8008E77AAC18823D3
:1025700009F498C1823009F0A8C18091D104811179
:102580009BC18091D3048F702FEF280F263008F065
:102590009CC18093E9002091EB0020FF8DC1933016
:1025A00031F48091EB0080628093EB0085C19091C3
:1025B000EB0090619093EB0021E030E001C0220F2E
:1025C0008A95EAF72093EA001092EA008091EB00E6
:1025D0008860EACF811179C11091D1041F77809171
:1025E000E3008078812B8093E3008091E800877F6F
:1025F0008093E8000E94C0038091E80080FFFCCF38
:102600008091E30080688093E30082E0111183E011
:102610008093CD045AC18058823008F056C1209171
:10262000D1043091D2042C3DE3E03E07A1F583E0D4
:102630008A838AE289834FB7F894DE01139620E0FB
:102640003EE051E2E32FF0E050935700E49120FF89
:1026500003C0E295EF703F5FEF708E2F90E0EA309D
:10266000C0F0C7968D939D932F5F243159F74FBFCC
:102670008091E800877F8093E8006AE270E0CE01F5
:1026800001960E946C048091E8008B778093E800AB
:102690001CC1C096E7CF8091D3049091D404432FFE
:1026A00055274330510509F44AC078F541305105AA
:1026B00009F485C08BE590E0E0ECF4E04230510590
:1026C00009F003C12091E800277F2093E8002091C2
:1026D000D5043091D6048217930708F49C0140E09A
:1026E0002115310509F070C041116EC08091E800DC
:1026F00082FDC9CF8091CD04882329F2853019F25B
:102700008091E80083FFF2CFBECF4132510509F43A
:1027100047C04232510509F0D8C08330910508F016
:10272000D4C0FC01EE0FFF1FE859FE4F0190F0816D
:10273000E02D8B599E4FDC018C9190E01DC033271A
:1027400021303105E9F02115310579F022303105CC
:10275000F9F02330310509F0B8C0EDE2F5E0E4917D
:102760008E2F90E0EDE2F5E007C0E9E7F5E0E491B7
:102770008E2F90E0E9E7F5E0009709F4A6C0A2CF1C
:10278000E5E6F5E0E4918E2F90E0E5E6F5E0F4CFA4
:10279000EBE4F5E0E4918E2F90E0EBE4F5E0ECCF94
:1027A0008330910508F091C0880F991FFC01E25910
:1027B000FE4F0190F081E02D89E090E083CF82E12F
:1027C00090E0EBE1F5E07ECF8091CD04882309F421
:1027D0005ACF853009F457CF8091E80083FD53CF5D
:1027E0008091E80082FD82CF8091E80080FF78CF61
:1027F0009091F3008091F2002115310519F0883095
:10280000910550F041E0089709F040E08091E80020
:102810008E778093E80064CF44914093F100319625
:10282000215031090196E8CF803809F04EC08091DF
:10283000E800877F8093E8008091CE048093F100C8
:1028400092CE811142C01091D1041230F0F58091E6
:10285000E800877F8093E8001093CE040E94C003B5
:10286000112311F084E005C08091E30087FDFACFC9
:1028700081E08093CD0442E061EC81E00E94DF03BF
:1028800042E261EC84E00E94DF0342E261EC82E01C
:102890000E94DF0342E260EC83E00E94DF0380914C
:1028A000CD0413C08091D104813079F481E093305C
:1028B00009F080E08093CC041092E9008091E80058
:1028C000877F8093E8000E94C0038091E80083FF27
:1028D0000AC08091E800877F8093E8008091EB0038
:1028E00080628093EB00AA96E3E00C943E33E9EA21
:1028F000F3E0128E138E8FEA90E09183808325E0BF
:10290000248F88E893E1938382838AE090E0958323
:10291000848344E150E05783468348E050E0518788
:102920004087938782876EE170E075876487978719
:10293000868780E590E0918B808B538B428B48E2B9
:1029400050E0558B448B42E350E0578B468B48EC6C
:1029500050E0518F408F158E178E168E91A380A355
:1029600022A30E94880E0E947F111092A704109249
:10297000A604E7EAF4E08081846080836091A60485
:102980007091A70484E090E00E94BC330E94A50EE1
:102990000895AEE1B0E0EFECF4E10C941933C0908F
:1029A0008104D090820481E090E09093820480932F
:1029B000810490E8A92E93E0B92E912C7501812C09
:1029C0001EC0402F84E021E030E0981641F0F8016D
:1029D000EE0FFF1FEE0DFF1D859194919C01682D58
:1029E000892D0E94470D0F5F1F4F0A30110549F7CF
:1029F0008394E4E1EE0EF11CF4E08F1619F010E080
:102A000000E0DFCF939480E5A80EB11CE5E09E12B4
:102A1000D5CF0E9477141A8219821C821B821E82D3
:102A20001D8218861F8288EC90E09A8789870DEDB9
:102A300011E04AE050E0B801CE0101960E94C23395
:102A4000065F1F4F0D32F2E01F0799F77E018BE002
:102A5000E80EF11C8AE0F70111928A95E9F74AE045
:102A600050E0B801C7010E94C233065F1F4F0D3707
:102A7000F2E01F07A1F77E0185E1E80EF11C8AE074
:102A8000F70111928A95E9F78FEF9FEF9A8F898F5F
:102A900087E08E8F4AE050E0B801C7010E94C23340
:102AA000065F1F4F0D3CF2E01F07A1F7D092820492
:102AB000C09281046E96ECE00C94353380E00E9465
:102AC0006D0D60E088E290E00E949E330E94C91480
:102AD0000E94370D81E00E946D0D0895CF92DF9224
:102AE000EF92FF928FEF9FEF4430510508F46CC0D6
:102AF000FB01C080D180E280F3800E947F11809131
:102B0000A604C0FA80F9B701A60176956795579596
:102B1000479540FB81F9B701A60122E076956795BC
:102B2000579547952A95D1F740FB82F9B701A60141
:102B300033E076956795579547953A95D1F740FBE1
:102B400083F9B701A601E4E0769567955795479517
:102B5000EA95D1F740FB84F9B701A601F5E0769537
:102B6000679557954795FA95D1F740FB85F9B701D9
:102B7000A601A6E07695679557954795AA95D1F752
:102B800040FB86F9B701A601B7E0769567955795A2
:102B90004795BA95D1F740FB87F98093A6048091B9
:102BA000A704D0FA80F9D1FACC24C0F8C0FA81F990
:102BB0008093A7046091A6047091A70484E090E03C
:102BC0000E94BC3390E080E0FF90EF90DF90CF90C8
:102BD00008950E947F112FEF84E39CE021508040F4
:102BE0009040E1F700C0000088E19CE00FB6F89447
:102BF000A895809360000FBE90936000FFCF88235C
:102C000021F00E942C0A0E94AE100895882339F00A
:102C100090912105982B909321050E94AE10089564
:102C2000882321F00E94330A0E94AE100895882361
:102C300021F00E943A0A0E94AE100895882381F183
:102C40009CEF980F913A28F40E946B0A0E94AE10F4
:102C5000089590E2980F983050F4877091E001C089
:102C6000990F8A95EAF7892F0E94330AEFCF9BE5E7
:102C7000980F933028F490E080E00E944E0508956C
:102C800098E5980F9B3128F490E080E00E94290598
:102C9000089593E3980F933118F460E00E94930B2A
:102CA0000895FF920F931F93CF93DF93F82E009117
:102CB0009404109195040115110509F449C010926E
:102CC00093041092920410928F0410929004D801F1
:102CD0001696CD91DC919E013A9521153F4108F45D
:102CE000D07ED1E0C11101C0D0E0D8011996ED919C
:102CF000FC911A97309731F01B966D917C9180E092
:102D00000995D823DD2339F08CEF8C0F813A30F50B
:102D10008C2F0E946B0AFF2099F0E0919404F091AF
:102D20009504808584FD0CC080919104882341F036
:102D3000808191819C01215031092F333E47A0F0C1
:102D40000E94AE1010929504109294041092910477
:102D5000C801CDB7DEB7E5E00C943C330E94AE105D
:102D60008C2F0E941E16D7CF0E948605E9CFCF93E5
:102D7000DF93EC010E941E16CE010E946B0C9E0197
:102D8000205E31092830310510F0CD2B29F40E9446
:102D90001016DF91CF9108950E94FF15FACFCF93BF
:102DA000C82F8823C1F18CEF8C0F813AB0F5809148
:102DB0001501882301F18091A60487FF1CC0EC2F28
:102DC000E695E695E695F0E0EA58FE4F828190E0C0
:102DD0004C2F477021E030E002C0220F331F4A958C
:102DE000E2F782239323892B79F08C2F0E946B0AC0
:102DF0000E94AE1009C0E8E7F1E08191C817A9F37D
:102E000081E0EE37F807C9F76C2F86E791E00E9462
:102E1000F4040E94AE10CF91089580E28C0F8830A8
:102E200048F4C77081E001C0880FCA95EAF70E9494
:102E30003A0AEFCFEBE5EC0FE33040F4F0E0E25E6E
:102E4000FE4F808190E00E944E05E5CFE8E5EC0F53
:102E5000EB3150F4F0E0EE0FFF1FEF5DFE4F80818D
:102E600091810E942905D7CF83E38C0F833198F697
:102E700061E08C2F0E94930BCECF1F93CF93DF93F3
:102E8000182FC091C903D091CA03893321F0C09192
:102E9000C703D091C803812F0E94CF16209739F421
:102EA000812F0E941E16DF91CF911F9108958FE907
:102EB0009FE00197F1F700C000002197EFCFB0E04D
:102EC000A0E0E5E6F7E10C941B33EC018AE0A82EC4
:102ED0002881222309F48FC02130C9F599818A8184
:102EE000913021F422960E943D1705C0923029F4BA
:102EF00022960E94CF162196EBCF933021F4229692
:102F00000E941E16F8CF943011F02196F4CF22962D
:102F100030E020E0AE014F5F5F4F8053990B8A3065
:102F2000910550F02150310930F38FE99FE001976E
:102F3000F1F700C00000F6CFA29EB001A39E700D75
:102F400011249C01260F371F8981EA01E3CFE22F6C
:102F5000F0E0E355FA4FB490822F869586958695DA
:102F600090E0FC01E356FA4FE4902770F12C022E1A
:102F700002C0F594E7940A94E2F731E0E322FF24DB
:102F8000FC01E357FA4FC490D12C022E02C0D59415
:102F9000C7940A94E2F731E0C322DD24FC01E35830
:102FA000FA4F049110E002C0159507952A95E2F7B3
:102FB00001701127E114F10419F081EE0E94CF167F
:102FC000C114D10419F086EE0E94CF168B2D0E94F9
:102FD0003D17C114D10419F086EE0E941E16E114AB
:102FE000F10419F081EE0E941E160115110509F475
:102FF00082CF8CE278CFCDB7DEB7EAE00C943733DE
:10300000B0E0A0E0E6E0F8E10C941B337C015B014A
:10301000C42FD22FFC0185818823A9F04093980406
:103020000E94E8049093970480939604C77081E00F
:1030300001C0880FCA95EAF70E941716CDB7DEB710
:10304000EAE00C94373310919804141338C080913F
:103050009604909197040E94CD046C01B701C501BC
:103060000E949A0DC816D90650F5C0E2CD0F1D1763
:10307000C1F080E2810F883048F4177081E0012EA2
:1030800001C0880F0A94EAF70E941016C83048F46D
:1030900081E09D2F977001C0880F9A95EAF70E94F2
:1030A0001716802F0E943D17C83040F6D77081E078
:1030B00001C0880FDA95EAF70E941016BFCFC770DB
:1030C00081E001C0880FCA95EAF7F6CFCF93DF936E
:1030D000EC010E946B0C9E01205E31092830310505
:1030E00010F0209741F40E9417168C2F0E94CF16E3
:1030F000DF91CF9108950E940616F7CF662329F03D
:10310000209121052260209321059C013052211538
:10311000304308F499270E9466180895B0E0A0E0B3
:10312000E4E9F8E10C941D336C018B01E42E8091ED
:10313000130182FF87C0C091CF03D091D003CC157B
:10314000DD0521F0C114D10409F07CC08091130188
:103150008B7F8093130181FD6EC08091CD03909190
:10316000CE03A801481B590B81E020911101309139
:1031700012014217530708F480E08170F82E809105
:103180001301F0FA81F980931301FE0183E0F695B3
:10319000E7958A95E1F7EE71FF27E757FC4F20810D
:1031A0003181AE014F70552781E090E002C0880F59
:1031B000991F4A95E2F7FF2009F43FC0822B932B19
:1031C000918380838091880381FF08C080911301DF
:1031D00080618093130182E00E94330A809188030A
:1031E00085FF08C08091130180628093130180E203
:1031F0000E94330A6F2DCE010E947E18EE2031F01E
:103200008091C40385FF02C086FF30C08091C70350
:103210009091C8030E942D0D8091CF039091D0030F
:103220009C0130522115304308F499270E94B716AB
:103230000E94601117C081E0A0CF809590958223F5
:103240009323BECFC601905281159043A0F4C601CE
:1032500099270E94B7168091CF039091D0038C15C7
:103260009D0531F31093CE030093CD03CDB7DEB7A8
:10327000E8E00C943933C601ECCFA7E0B0E0E3E41A
:10328000F9E10C9413337C01DC0114968C918823B2
:1032900009F457C161E0C7010E94790E8C01F70162
:1032A0008581882319F18091990490919A0400975F
:1032B000E9F008171907D1F09927F4E0880F991F52
:1032C000FA95E1F7FC01EE5CFD4F2081246020833C
:1032D000835D9D4FDC010D931C930E943911109268
:1032E000210561E0C7010E94790E8C01F7018581FB
:1032F000882309F4B1C0C80197578038910508F0B8
:10330000DEC0D02EFFE0F01708F40BC18FEF93E082
:103310000E948033811105C10DEC12E0D11036C03E
:1033200019821A821B821C8299249A9468013FEFA9
:10333000C31AD30AC8010E94803389831A82882362
:1033400009F4EFC0813009F081C0580142E0A40EB9
:10335000B11CC6010E948033C82E8A83882309F4D9
:10336000E0C0C5010E948033D82E8FEF8C0D8330D2
:10337000D8F4580153E0A50EB11CDB82DD2021F00A
:10338000CE0101960E945F178501D0CF011524E080
:10339000120709F4C6C0C8010E948033811101C020
:1033A000DA940F5F1F4FBACF8BEF8C0D833030F55F
:1033B000C8010396DB825C01DD2031F35801A4E0F3
:1033C000AA0EB11C0E9480338C838823E9F28B8182
:1033D0009C818130BFEF9B0710F0982F8827E6E093
:1033E000CE1631F0F7E0CF1631F00E94A028CCCFF6
:1033F0000E947B28C9CF0E940228C6CF24E0C212B7
:10340000C3CF580134E0A30EB11CC80103960E943B
:103410008033DD2009F485C0882309F482C08150FF
:10342000990B989E9001999E300D11244D2D41507D
:10343000550BCA01820F931F019708F4A5CFAFE97E
:10344000BFE01197F1F700C00000F6CFCE01019662
:103450000E945F17560198CF6801E7E5DE1AFFEF7B
:10346000CF16D10409F058F563E272E08C2D0E946A
:10347000860D892B21F5C60174E0880F991F7A9576
:10348000E1F7FC01E35DFD4F22812130A1F52091A0
:10349000230230912402232B91F0209125023091B8
:1034A0002602232B61F020912702309128024091BF
:1034B000290250912A02242B352B232B21F1D701ED
:1034C00015965C90552009F440C00E35BCE71B07EB
:1034D00029F10F35ECE71E0741F00D35FCE71F071A
:1034E000A1F5809100018823C9F01092000180E0CD
:1034F0000E94511616C0223011F7209127023091F8
:103500002802232BE1F2FC01EE5CFD4F20812E7F8F
:103510002083835D9D4F0E943911D1CF81E080933C
:1035200000018091B601877061F0D70115968C91EA
:10353000882339F08091A70482FF03C082E00E94B3
:103540003B0B2796E2E10C942F33809100018823F6
:1035500009F46CC6480120EE821A91084090D90106
:103560008091B301482A80918803482A38E0831665
:10357000910408F086C098012770332781E090E01D
:1035800001C0880F2A95EAF7552009F477C0482A28
:10359000D7018D919C910E94A00A21E030E0390171
:1035A00002C0660C771C8A95E2F7E0919404F091D2
:1035B0009504FF83EE8320909601309097011D8241
:1035C0002D81E22FF0E0EE0FFF1FE250FD4FC08093
:1035D000D180C114D10409F484C6411005C0D601BC
:1035E00012968C91811189C0F601838190E0862129
:1035F0009721892B09F481C08085982F977009F451
:1036000087E0F8E08F16910408F055C0552009F4C2
:103610004EC086958170882309F46FC0D601AD90A5
:10362000BC900A151B0519F4552009F466C0EE81FB
:10363000FF81CE16DF0609F460C0D6011D96ED911C
:10364000FC91309721F08081882309F456C0642DC5
:10365000C6010E94D705882309F44FC00A151B052F
:1036600009F0A7C60115110509F4A8C65110A8C68E
:10367000A214B30409F041C0512CA2C6809548227F
:1036800087CF552009F416C6109397010093960131
:103690000E94DC0460938B0470938C0480938D04EF
:1036A00090938E04109293041092920471CF82FB37
:1036B000882780F9B0CF552001F18170ACCF0E94EE
:1036C0001E169CC60497813A910558F46A2D86E728
:1036D00091E00E94F404552009F4A8C50E94AE10A0
:1036E00020CF0E94AE108FE39CE90197F1F700C054
:1036F00000008A2D0E94CF16EECF9D819F5F9D8393
:103700005FCFFC01208131810217130709F087C5C3
:10371000511087C51092910480E00E94511686C511
:10372000902F812FC2C5F90144855585668577851F
:10373000C9010E948005D60115968C9181FFE5C5CF
:10374000C6010E9420118091990490919A04081753
:10375000190709F0DAC510929A0410929904D5C598
:1037600090911301892F8E7F90FF816080931301C8
:103770000E946011F5C5809113018E7FF7CF809173
:1037800013018F7E013E110531F0053E1105E9F46C
:10379000809113018F7D809313018091130180FF2D
:1037A00029C0D70115968C910832110570F50E319C
:1037B000110508F07BC004301105C8F58823D1F04D
:1037C0001092D0031092CF0315C0C80190528115FA
:1037D000904318F78091130182FF0CC08091C603BB
:1037E00081FD08C024EF31E040E0B60190E080E0C8
:1037F0000E948E18F801E851FC47E730F10508F007
:10380000B9C5EA51FC4C0C9406330933110558F440
:103810000D32110518F40B32110581F69091C40395
:1038200092FDCCCF08C004361105C1F3C7CF9091EB
:10383000C40394FDC3CF882309F4A8C08091D901A3
:1038400090918803892B8D7FB1F11092D003109253
:10385000CF038091C40381FD2EC0F80143E0F695AB
:10386000E7954A95E1F7EE71FF27E757FC4F98017E
:103870002F70332781E090E002C0880F991F2A95AE
:10388000E2F7809590952081318182239323918363
:10389000808360E0C8010E947E188091D9018D7FED
:1038A0000E94030A82E00E943B0B3BCE9091C4032E
:1038B00093FD84CFC0CF89E0F701A4EFB1E0019080
:1038C0000D928A95E1F71092F9011092F70110928A
:1038D000F6018091CF039091D00308171907D1F515
:1038E0002091C40325FF36C03091130131FF02C07F
:1038F00026FF30C02091CD033091CE035601A21A8D
:10390000B30AB7010E949A0DA816B90618F580915E
:10391000880381FF08C080911301806180931301A7
:1039200082E00E94330A8091880385FF08C080915D
:10393000130180628093130180E20E94330A609138
:103940001301669561708091CF039091D0030E941E
:103950007E18E7CD8091D90190918803982B209112
:10396000130191FB21F9209313018D7F0E94030A1B
:103970001093D0030093CF03D092CE03C092CD0317
:10398000809113018460809313018CCF970140E0F4
:10399000B601C8010E948E18C4CD06E221EE41EEA8
:1039A0006AE17CE7C7010E940018BBCD07E225EE63
:1039B00045EE6BE17CE7F6CF06E221EE40EE68E1F2
:1039C0007CE7F0CF07E225EE44EE69E17CE7EACF41
:1039D00006E221EE42EE6CE17CE7E4CF07E225EE61
:1039E00046EE6DE17CE7DECF08E221E045EE6EE1D8
:1039F0007CE7D8CF8091A60481608093A60495C00F
:103A00008091A70488608093A7048FC08091A6044A
:103A10008260F3CF8091A6048460EFCF8091A604EA
:103A20008860EBCF8091A7048160EDCF8091A704DF
:103A30008260E9CF8091A6048061DFCF8091A604E7
:103A40008062DBCF8091A6048064D7CF0E947F1173
:103A50008091A6048068D1CF8091A6048C60CDCFE0
:103A60008091A7048360CFCF8091A6048E7FC5CFBD
:103A70008091A704877FC7CF8091A6048D7FBDCF9B
:103A80008091A6048B7FB9CF8091A604877FB5CFA4
:103A90008091A7048E7FB7CF8091A7048D7FB3CF8D
:103AA0008091A6048F7EA9CF8091A6048F7DA5CF9B
:103AB0008091A6048F7BA1CF0E947F118091A604E4
:103AC0008F779BCF8091A604837F97CF8091A704A7
:103AD0008C7F99CF8091A60482FB992790F921E0F1
:103AE000922790FB82F990FB83F987CF8091A704FE
:103AF000982F909591708E7F892B90FB81F983CFC1
:103B00009091A604892F8F7B96FF806476CF0E94C8
:103B10007F119091A604892F97FB87F980586DCF6C
:103B200061E08EE090E00E949E336091A604709167
:103B3000A70484E090E00E94BC330E947F11F1CC86
:103B400060E0EFCF9091A604892F8F7E94FF806173
:103B500054CF9091A604892F8E7F90FF81604DCF26
:103B60009091A704892F877F93FF88604CCF0631FF
:103B7000FCE71F07B9F580918803982F9A7A309156
:103B8000C30330FF04C0482F447409F090E031FFB4
:103B900004C0482F417109F090E032FF04C0482F63
:103BA000487809F090E033FF03C0827209F090E09A
:103BB000222371F081E0911101C080E0809398018F
:103BC00069E2911165E386E791E00E94F40486CDF5
:103BD00080919801811104C089E20E946B0A7ECD18
:103BE00085E3FBCF07373CE7130709F458C00837D4
:103BF0004CE7140709F45EC0222381F003305CE730
:103C0000150709F477C008F05AC001159CE7190799
:103C100009F463C001301C4709F472C0F7018781C1
:103C20009085009709F47AC00E94DA08182F092FAE
:103C3000F701C580B680B2943FE0B3228091B6010F
:103C40008770F1F0AC2CCC20E1F0892F807F80349C
:103C500051F080E2810F883098F0B11004C0892FB4
:103C6000807E803269F08091A70482FF09C082E0E3
:103C70000E943B0B8091B6018770AA24A394811106
:103C8000A12C902E92942FE09222FBE0F91508F4DB
:103C9000D5C0E92DF0E0E351FC4C0C94063381E0F3
:103CA000222351F00E94520B43E062E081E00E9427
:103CB0000E0B37CC82E0F4CF0E942E0BF5CF0B35E4
:103CC000BCE71B0749F10C35ECE71E07D9F00A35B4
:103CD0001C4709F0A3CF81E01CC00E947F112FEF89
:103CE00034E34CE0215030404040E1F700C0000098
:103CF0000E94090D6FEF7FEF90E080E00E94BC33DF
:103D00000E94E9158091A70482FB882780F991E041
:103D100089270E94E40E82CF80E0FBCF858100815D
:103D20001181882369F0C8010E94040ED82E682FE3
:103D3000C8010E94D40AB8018D2D0E94E70D74CFEE
:103D4000C8010E94A00AD82EF6CF202F2F70D22EA5
:103D5000802F807F19F0D29490EFD922CC20A9F047
:103D6000DD2059F080E2810F883010F0111107C07A
:103D70008D2D0E943A0A0E94AE10812F5DC0809165
:103D80002105D82AD0922105F6CF812F0E941E1638
:103D9000DD2009F453C080E2810F883010F011114A
:103DA00004C08D2D0E94330A03C08D2D0E942C0A61
:103DB0000E94AE1043C0302F3F70D32E802F807FE3
:103DC000803219F0D29480EFD822112339F11130CA
:103DD00009F4B6C0CC2009F4C2C0BB2009F466C007
:103DE00020E0D7014C9111965C91119712966C913D
:103DF000129713967C91139714968C91149715969D
:103E00009C910E94540E8091C60381FDB6CFF701AC
:103E1000868180FFB2CF8F70868348C08091A704CF
:103E200082FD40C0CC20C1F1DD2029F08D2D0E9403
:103E30003A0A0E94AE1080E00E94CF16A92DA85029
:103E4000BB0B149710F40E947305812F902F0E94D2
:103E5000780B8111C4C110929A0110929901AA2085
:103E6000B1F08091B60180FD12C0D70115961C9269
:103E70008695869586950E94520BC7010E943D1932
:103E80008091B6018695869586950E942E0B60E0FE
:103E9000C7010E94790E55CB80E00E941E16DD20DE
:103EA00069F27FCFCC2091F1B11004C08D2D0E941A
:103EB0001716C4CF41E0B41211C08090D9018D2DE6
:103EC0008821D81609F4BACF0E94E8049093D8014B
:103ED0008093D701D828D092D901B0CF8091C50363
:103EE000823008F4ABCFB812A9CF8D2D0E941716DF
:103EF0008D2D0E94170A8091B3019D2D9823D9160C
:103F000009F49CCFD82AD092B30198CFB1100AC03F
:103F10008D2D0E9410168D2D0E94170A8D2D0E9446
:103F2000610A8CCF8091C503823008F487CF51E0BD
:103F3000B51284CF809188038D2109F47FCFE8CF1B
:103F40008091CB03CC2021F08B1508F477CFAECF36
:103F5000B81608F073CF8D2D0E9410166FCFBB20BE
:103F6000D1F38091C9039091CA03193321F0809154
:103F7000C7039091C8030E942D0D812F0E941E1629
:103F80005DCF802F86958695837069F0813009F02A
:103F900055CF812F902F9370C11002C080E090E028
:103FA0000E9429054BCF812F902F9370C11002C022
:103FB00080E090E00E944E0541CF6C2D812F0E9441
:103FC000930B3CCF802F837091F5C11037CF412FD9
:103FD000429546954770440F440F812F8F70042EF1
:103FE00001C0880F0A94EAF7212F207114FF07C03F
:103FF0002FE030E001C0220F4A95EAF72095302FDC
:10400000369536953370323069F050F44091E701BF
:10401000313029F0822B84230E94750B0FCF842B23
:10402000822BFACF282B8091E7018227F5CF869546
:10403000CC2011F0802F8170882309F4FFCE412F0E
:10404000429546954770440F440F812F8F70042E80
:1040500001C0880F0A94EAF7212F207114FF07C0CE
:104060002FE030E001C0220F4A95EAF72095302F6B
:10407000369536953370323069F050F44091E8014E
:10408000313029F0822B84230E940B0BD7CE842B56
:10409000822BFACF282B8091E8018227F5CFF02FD1
:1040A000FF70DF2ECC2029F08F2F0E94520B812F22
:1040B000FECE812F0E9410168D2D0E942E0BBECE9B
:1040C000123F89F160F4103FB9F0113F81F0CC202C
:1040D00009F480C0B11051CE802F8F7128C0133FDA
:1040E00049F1143FA1F78091A70482FD2FC0802FD2
:1040F0008F71CC2011F31BC08091CB03CC2079F0C1
:10410000B81608F09BCE202F2F7181E090E001C0FF
:10411000880F2A95EAF79091E8018927B5CF8B158A
:1041200008F48CCEF0CF802F8F71C110C6CF0E94C3
:10413000520B84CE80E0CC2009F4A6CF81E0902FF2
:104140009F7101C0880F9A95EAF79ECF8091C503B1
:10415000823040F1CC20D1F09091B601977094302C
:1041600041F40E94400A802F8F710E942E0BA12CD7
:1041700065CEB816E0F7202F2F71D22E822F0E9425
:10418000520B63E08D2D0E945E0BF1CFB81630F01C
:104190000E94400A64E0802F8F71F5CF81E00E9479
:1041A0003B0BE5CFCC2059F0302F3F71D32E832F1E
:1041B0000E94520B63E08D2D0E945E0B3FCE81E08A
:1041C0000E943B0B41E04B1508F038CE82E00E9484
:1041D0003B0B34CEB110C5CE802F8F716ECFCC206B
:1041E00019F0B11038CE3BCEB11035CE20E0F7013A
:1041F0004081518162817381848195810E94540E36
:104200008091C60383FF27CE8091990190919A01F6
:10421000029709F020CE812F0E943D171CCE552019
:1042200029F0DC0118968C9185FF76CAC801975554
:104230008F3F910511F008F068C0F801FF2754E0A6
:10424000EE0FFF1F5A95E1F79F01235D3D4F690176
:10425000D70115968C91EE5CFD4F908180FB90F913
:104260009083882309F45FCA0E94E8049093F301C5
:104270008093F201F60182818F5F82838091210514
:1042800090918803892B83838091D901848346810F
:10429000578166857785C6010E948005D6011596EF
:1042A0008C9181FF3DCA90E080E0909399048093C7
:1042B0009A042BC0809196019091970108171907D5
:1042C00081F4109297011092960110928B04109233
:1042D0008C0410928D0410928E041092930410920C
:1042E00092048091940490919504009709F49ECFD4
:1042F000A8E08A16910408F004CA642D0E94D7052C
:10430000811103C081E00E9451168091C40380FF97
:1043100071CA0E94E8046C01F7018581882309F4C1
:104320002ECA8091130182FF08C024EF31E040E0E3
:10433000B60190E080E00E948E180431FCE71F0770
:1043400009F419CA05312CE7120709F409CA033127
:104350003CE7130729F480911301816080931301D6
:10436000C80190528115904308F017CA1092D003EB
:104370001092CF03F7012581222309F4F8CB109284
:104380009804C8019057839708F0F1CB84E090E03F
:104390000E9488339093A7048093A604F801E1500B
:1043A000F047E232F10508F025CBE750FC4C0C94C5
:1043B0000633A114B10409F05BC9512CB12CA12C16
:1043C00080E00E945116D0929504C092940481E03E
:1043D00080939104F601858180938F0451100EC063
:1043E000AB2861F0F601808191819C012450310954
:1043F000213A310508F063C90E946B0AD60116966E
:10440000AD90BC90C5019A9581159F4110F4E0EEE6
:10441000BE2277247394C50101978F339E4708F01D
:10442000712CD6011996ED91FC911A97309731F0C5
:104430001B966D917C9181E009957822772079F027
:10444000F601868197810E946B0C80939004C501D0
:10445000F8E08F16910408F035C90E9486050E9485
:10446000AE1039C9B0E0A0E0E8E3F2E20C941E33EC
:104470008091B001807F09F054C08091AF01882302
:1044800009F44FC0E091200589E0D82E8091D7042F
:104490008E1709F446C00E2F10E0ED9DF001112497
:1044A000E852FB4F8481882309F440C0D09EE0018C
:1044B000D19ED00D1124FE01E852FB4F91818091D5
:1044C000AB01981333C090818091AA0198132EC03C
:1044D000858181112BC0E280F3808091AC019091A5
:1044E000AD01E81AF90A60E08AEA91E00E94790ECB
:1044F0006AEA71E00E949A0DE816F906B8F4809114
:10450000B0018F7080618093B001C252DB4F88810F
:104510008F70806188838AEA91E00E943D190E9431
:10452000960ACDB7DEB7E7E00C943A33F80131963E
:10453000E770ACCFA8E1B0E0E0EAF2E20C94163309
:104540008C0186E0F801DE01539601900D928A9568
:10455000E1F7D80114967C9014971596EC908AEAAE
:10456000A82E81E0B82E8091AE0181112AC0711071
:1045700003C0FF24F3941CC0EE20F9F0C8010E9490
:10458000400EF82E8823C9F089E0F801AAEAB1E0CC
:1045900001900D928A95E1F78091AE01813031F45E
:1045A0008091AA019091AB010E94330E0E943222A9
:1045B0008F2D6896EFE00C943233C8010E943D19AC
:1045C000D8CFF80150806180C280D38060E08AEA51
:1045D00091E00E94790EF090AF018091AC01909132
:1045E000AD014601881A990A60E08AEA91E0FF204D
:1045F00009F428C10E94790E6AEA71E00E949A0DBE
:104600008816990608F0D1C0772009F4B2CF8091BE
:10461000B001382F307F2091AB01D80111969C91C9
:104620001197311171C029131FC02091AA019C91CB
:1046300029131AC04091B1015091B20117962D91E2
:104640003C914217530781F4E11054C08F70806190
:104650008093B0018AEA91E00E943D198091B001F7
:10466000F8018683F12CA4CFE11044C0662D852D7E
:104670000E945103E82E882381F08091C60380FFB9
:10468000F1CF8AEA91E00E943D1989E0EAEAF1E07F
:10469000DF011D928A95E9F7E5CF5B8A6C8A8B89E9
:1046A0009C890E94330E292F22952F70243058F4B4
:1046B0009F70223088F0992399F0F8019681907FBD
:1046C00079F4FE2C75CF2A5F2F70223068F0C80174
:1046D0000E943D19EF2CF5CF992311F0882389F31F
:1046E000805E883070F3F3CF803F58F3815F833072
:1046F00070F7E7CF8091B00181608093B001809125
:10470000C60381FDAFCFBDCF291320C02091AA01E0
:104710009C9129131BC04091B1015091B201179691
:104720002D913C9118974217530781F4E1100EC068
:1047300016968C93C8010E943D1989E0F801AAEAF7
:10474000B1E001900D928A95E1F732CFC8010E9445
:10475000400E882309F431CFEE2009F42ECF80914A
:10476000B0018032B8F02091AA013091AB013B87B3
:104770002A87DD86CC869091AE019E871F86888B26
:104780008091B1019091B2019A8B898BCE010A96EA
:104790000E943D1989E0F801AAEAB1E001900D926A
:1047A0008A95E1F70E943222E4CE8091B001982FE1
:1047B000907F09F466CF772009F4DBCE2091AB011E
:1047C000F801918129131AC02091AA01908129131F
:1047D00015C04091B1015091B20127813085421737
:1047E000530761F4E1100AC08683C8010E943D1995
:1047F00089E0D5011D928A95E9F7DACEC8010E94B9
:10480000400E882309F4D9CEEE2009F4D6CE80914B
:10481000B001803208F4BECF2091AA013091AB01E3
:104820003A832983DC82CB829091AE019D831E82E4
:104830008F838091B1019091B20199878887CE01D1
:104840000196A6CF0E94790E6AEA71E00E949A0D45
:104850008816990608F04AC0772009F48ACEFE2C03
:10486000EE2009F4AACE9091AB01F8018181981352
:104870002FC09091AA01808198132AC02091B10184
:104880003091B201878190852817390709F5809109
:10489000AC019091AD01C81AD90AF8ECCF16D10439
:1048A00008F04BCF9091B00190FD47CF907F09F475
:1048B00044CF8091B001D80116968C931697903F03
:1048C00009F438CF982F907F905F8F70892B30CF6D
:1048D000C8010E94400E81115DCF8091B0018160BE
:1048E0008093B001C8010E943D1962CE89E0F501B4
:1048F00011928A95E9F75CCEA2E1B0E0E2E8F4E239
:104900000C9421330A871B872C873D874E875F874E
:10491000688B798B8A8BCE010A960E949A2281112C
:104920000CC089E0FE013A96DE01119601900D92CD
:104930008A95E1F78E8581110BC019E080912005E1
:104940009091D704891331C06296E4E00C943D3312
:104950002091D70430E0C9010196877099274091D2
:1049600020054817190699F099E0929FD001939F6E
:10497000B00D1124A852BB4FFE01319601900D924B
:104980009A95E1F78093D7040E94960AD6CF0E94A9
:104990007F111092D7041092200589E0EAEAF1E035
:1049A000DF011D928A95E9F7C8CF819FC0011124CC
:1049B00088529B4F0E949A22882331F280912005D1
:1049C00090E001968770992780932005B7CFEF92EA
:1049D000FF920F931F93CF93DF9380910C04882352
:1049E00061F0E091D3038DE0F82E80910C04E8177C
:1049F00048F010920C041092D303CDB7DEB7E6E076
:104A00000C943B33EE24E394EE0EE092D303CE2FCE
:104A1000D0E0EF9DF0011124E35FFB4F84818823F8
:104A2000E9F087819085892B21F481859285019613
:104A300059F400811181228133814481558166813D
:104A4000778180850E947C24FC9EF001FD9EF00D04
:104A50001124E35FFB4F148210922105EE2DC5CF88
:104A60001092800410927F041092140180917E04B1
:104A700080937D040E9425060E94E7240895B0E0FB
:104A8000A0E0E5E4F5E20C941433C0917D0497E0D6
:104A9000992E01E010E02DE0322E34E0432E552413
:104AA000539480917E048C1309C00E94E7240E94D5
:104AB0002506CDB7DEB7E1E10C943033D0E0FE013E
:104AC000EE0FFF1FEB58FB4F80819181989ED00124
:104AD000999EB00D1124AC52BC4F14962C91149792
:104AE000211159C060900C04EDE0F4E030E020E0CA
:104AF000812C5D01261508F04CC0E384F484D501B7
:104B0000CD90DC906FEF7FEF712C472D50E0DA01F4
:104B1000AA0FBB1FAC0DBD1D0D90BC91A02D109711
:104B200031F0EA16FB0609F4BA017394EECF6F3F39
:104B30007607A9F1D80102C0AA0FBB1F6A95E2F758
:104B40008A2AB801072C02C0660F771F0A94E2F781
:104B5000AB01415051098416150601F5329EF00152
:104B6000339EF00D1124E35FFB4F989ED001999E78
:104B7000B00D1124AC52BC4F12962D913C9113975D
:104B8000308727834482108211829287818715960D
:104B90005C920E94F7052196C37083CF14822F5F29
:104BA0003F4F3D96A7CFAEE1B0E0E9EDF5E20C94C2
:104BB00013334B8B5C8B6D8B7E8B8F8B988F882305
:104BC00049F08091990190919A01019690939A01F0
:104BD00080939901888D811110922105188A198A74
:104BE0001A8A86E0FE017396DE011A9601900D92F4
:104BF0008A95E1F78091A70482FF1EC08091AB03E4
:104C00009091AC03892BC1F00E94E8042091B4017B
:104C10003091B501821B930B2091AB033091AC0313
:104C20008217930720F08091B60182FFE7C10E94AE
:104C3000470A81110E94F8098E85882389F061E076
:104C4000CE010A960E94790E6C018F8520E5C2166E
:104C50002CE7D20689F4882329F181E0809314019E
:104C60000A851B852C853D854E855F8568897989F8
:104C70008A890E947C24CDC031E5C3163CE7D30667
:104C800029F4882379F00E943025EACF42E5C41642
:104C90004CE7D40639F4882329F08091140181115E
:104CA000F2CFDBCF94EDE92E93E0F92E412CB12C1D
:104CB000A12C88248394912CBE016F5F7F4F7A8F43
:104CC000698F22242394F7014081518166246A94DC
:104CD000762C20E0822F90E0FC01EE0FFF1FE40F06
:104CE000F51F608171816115710531F0C616D70617
:104CF00009F43C012F5FEECF312CFFEF6F167F06DA
:104D000009F448C0F701448130901401832D41110A
:104D100080E0F82FF1703F2EF701558086819F8546
:104D2000992309F4F7C0332009F4F4C00091BF03BC
:104D30001091C003511013C0A401062C01C0440FF0
:104D40000A94EAF7842B86838091D1039091D20351
:104D50008017910720F41093D2030093D103C4016C
:104D600002C0880F991F2A95E2F70197F701268163
:104D70002817190679F480917F0490918004009798
:104D800009F44BC00E94CD040817190708F045C06C
:104D9000F70124824328FFEFAF1ABF0A27E0E20E93
:104DA000F11C38E0A316B10409F08DCF8F8588235C
:104DB00009F410C1442009F40DC10E94E804909345
:104DC000800480937F0480910C04883010F591E07A
:104DD000980F90930C0499E0FE013A96DE0111962B
:104DE00001900D929A95E1F74DE0849FC001112446
:104DF000835F9B4F29E0FE013196DC0101900D920B
:104E00002A95E1F72FEF3FEFFC0132872187D48607
:104E1000C3866E96E2E10C942F3380917D0450910D
:104E20007E04982FF0E0E0E0851314C090937D0499
:104E3000EE16FF0609F4AECF90E0FC01EE0FFF1F67
:104E4000EB58FB4FB182A082019683709927809323
:104E50007E04A0CF682E712CF301EE0FFF1FEB58DC
:104E6000FB4F20813181F7E0F29FD001F39FB00D1D
:104E70001124AC52BC4F2D913C9111973E8F2D8F38
:104E800040E020E030E0E32FF0E0EE0FFF1F6D8DFB
:104E90007E8DE60FF71F0081118101151105E1F0EC
:104EA000F7010190F081E02DFC8FEB8F20E005C031
:104EB0000617170709F4432D2F5FE22FF0E0EE0FDE
:104EC000FF1F6B8D7C8DE60FF71F6081718161156F
:104ED000710571F73F5FD7CF4423C9F0F70123175E
:104EE00008F0FD012482EE16FF0621F490937D0464
:104EF000342E50CF981305C0AE17BF0711F49F5F33
:104F0000937093012F5F3F4F822F83708DCFF0E01E
:104F1000E0E0F7CF90E0511020C0B40102C0660F6E
:104F2000771F2A95E2F79B012150310982179307D9
:104F300031F4442309F44CC0C5010E94F705C401B3
:104F4000062C01C0880F0A94EAF7982F9095F70174
:104F5000868189238683352C1DCFAC01062C02C0A7
:104F6000559547950A94E2F7BA01617077279C013D
:104F70002150310982239323892B31F5672B21F1AD
:104F8000F70182819381892BE1F0E98DFA8D27E089
:104F900011922A95E9F70E94E804282F8B839C83BD
:104FA00034E03D83F70182819381782F8887998748
:104FB00009811A813C8144E05E816F81892F0E94C2
:104FC0007C24F7011582BBCFF42FF1705F2EB7CF91
:104FD000532CB5CF90917D0480917E04981729F0D1
:104FE0000E943F25411015CF3BCE0E94E72410922E
:104FF000800410927F040E942506F4CF82E00E9474
:105000003B0B15CEA6E0B0E0E8E0F8E20C942333C9
:1050100090931A0280931902811520E2920730F4CE
:105020000E94B7162696E2E00C943F3380EF898306
:105030008A830E94E8048160682F9C838B83498166
:105040005A817C8181E090E00E94D325EBCF0F93C1
:105050001F93CF93DF938C01EB0163E272E08C2FFF
:105060000E94860D892BA1F48091C7039091C803FB
:105070000E942D0DDD27C55EDD4F8881F80112826B
:1050800018828330F1F048F4813059F0823081F099
:10509000DF91CF911F910F9108958430B9F0853041
:1050A000B9F78091230290912402009789F306C0FA
:1050B0008091250290912602009799F30E94022880
:1050C000E7CF8091270290912802F6CF80912902A4
:1050D00090912A02009791F72091230230912402A7
:1050E000809125029091260221153105F1F2009759
:1050F00029F7C901E3CFA6E0B0E0E1E8F8E20C94BB
:10510000233390931A0280931902811520E29207AB
:1051100030F40E9466182696E2E00C943F3380EF4C
:1051200089838A830E94E8048160682F9C838B8333
:1051300049815A817C8181E091E00E94D325EBCFA7
:10514000CF93DF93EC010E947B288091C70390915D
:10515000C8030E942D0DCE010E940228DF91CF913D
:1051600008950F931F93CF93DF938C01862F63E2F3
:1051700072E00E94860D892BB1F4C0912302D09178
:105180002402209781F0F8018281833051F4CE010E
:105190000E94A028CE010E94A028CE010E94A02833
:1051A00002C08430D0F7DF91CF911F910F91089505
:1051B0000F931F93CF93DF938C01EB0163E272E0B7
:1051C0008C2F0E94860D892B09F05CC0FE01FF2701
:1051D000D80112968C911297E55EFD4F8130B9F49B
:1051E00015969C9192FF02C080830AC090FFFCCF6D
:1051F00082E0808380912502909126020097B9F485
:1052000080912302909124020097E1F110C0823036
:10521000B9F515968C9182FD28C080FD0BC083E006
:1052200080838091270290912802009701F10E94CB
:105230007B2828C084E080838091290290912A02F3
:105240000097A9F780912302909124020097F9F02A
:105250000E94A0288091250290912602009739F79C
:105260008091230290912402E2CF85E08083809197
:10527000230290912402009729F00E94A028F0CFE9
:1052800086E08083DF91CF911F910F9108958091E7
:10529000250290912602B8CFA6E0B0E0E2E5F9E25F
:1052A0000C9421330E94E8048C018091DA019091E2
:1052B000DB018017910781F019821A820E94E804AD
:1052C000682F49815A81792F80E090E00E94D32590
:1052D0001093DB010093DA012696E4E00C943D3351
:1052E0001F920F920FB60F9211242F933F934F935B
:1052F0005F936F937F938F939F93AF93BF93CF935E
:10530000DF93EF93FF93D091E900DF708091EC0081
:10531000C82FC17080FDC0E81092E9008091F000B4
:10532000877F8093F00078940E94AE111092E9007C
:105330008091F00088608093F000CD2BCF70C093F7
:10534000E900FF91EF91DF91CF91BF91AF919F91D4
:105350008F917F916F915F914F913F912F910F901E
:105360000FBE0F901F9018951F920F920FB60F92BD
:1053700011242F933F934F935F936F937F938F935A
:105380009F93AF93BF93EF93FF938091E10082FFD0
:1053900009C08091E20082FF05C08091E1008B7F0F
:1053A0008093E1008091DA0080FF24C08091D800D2
:1053B00080FF20C08091DA008E7F8093DA00809198
:1053C000D90080FF9DC080E189BD82E189BD09B41B
:1053D00000FEFDCF81E08093CD048091A80481116F
:1053E00009C00E9470030E9411048091E200846051
:1053F0008093E2008091E10080FF17C08091E2007D
:1054000080FF13C08091E2008E7F8093E200809144
:10541000E20080618093E2008091D80080628093F6
:10542000D80019BC85E08093CD048091E10084FF11
:105430002BC08091E20084FF27C080E189BD82E11A
:1054400089BD89B5982F917080FFFBCF8091D800DE
:105450008F7D8093D8008091E1008F7E8093E10062
:105460008091E2008F7E8093E2008091E200816073
:105470008093E2008091CE04882309F447C084E041
:105480008093CD048091CD048091E10083FF27C0FB
:105490008091E20083FF23C08091E100877F8093A9
:1054A000E10082E08093CD041092CE048091E1006F
:1054B0008E7F8093E1008091E2008E7F8093E200F6
:1054C0008091E20080618093E20042E060E080E051
:1054D0000E94DF038091F00088608093F000FF91CC
:1054E000EF91BF91AF919F918F917F916F915F915C
:1054F0004F913F912F910F900FBE0F901F901895D5
:1055000019BC1092CD041092A80474CF8091E300CE
:1055100087FD93E09093CD04B5CF78941F921FB68A
:105520001F9211248F939F93AF93BF938091A204F6
:105530009091A304A091A404B091A5040196A11D8B
:10554000B11D8093A2049093A304A093A404B093EC
:10555000A504BF91AF919F918F911F901FBE1F9087
:1055600018951F921FB61F9211248F939F93AF938C
:10557000BF938091A104811113C08091A2049091E6
:10558000A304A091A404B091A5044196A11DB11D4E
:105590008093A2049093A304A093A404B093A504C1
:1055A000BF91AF919F918F911F901FBE1F90189533
:1055B000CDB7DEB7ED970FB6F894DEBF0FBECDBF07
:1055C00085B7806885BF85B7806885BF84B7877FCA
:1055D00084BF0FB6F894A89580916000886180938D
:1055E0006000109260000FBE80E890E00FB6F89463
:1055F00080936100909361000FBE80ED97E09093DF
:105600007501809374010E94DE060E94B80F0E940B
:105610002C0F0E94A50E0E9470030E94110480911D
:10562000E20084608093E20078948091CD04882326
:10563000A1F01091E9001F709091EC00892F81700A
:1056400090FD80E8182B1092E9008091E80083FD1E
:105650000E94AE111F701093E90082E084BD93E0B8
:1056600095BD9AEF97BD80936E000E94CB0E81117D
:1056700002C00E945E1580EF0E94D20781EF0E9457
:10568000D20784EF0E94D20785EF0E94D2070BE574
:1056900011E0D8018D918D018F3F11F00E94D2074A
:1056A000B1E005361B07A9F788E0E2E0F2E0DF0190
:1056B000282F1D922A95E9F7EFEDF1E0DF011D9209
:1056C0008A95E9F790E080E00E948833863E9E4FFD
:1056D00021F40E94CB0E811167C066EE7EEF90E050
:1056E00080E00E94BC3360E082E090E00E949E3344
:1056F00060E083E090E00E949E331092E70160E05A
:1057000074E184E090E00E94BC3360E086E090E0C9
:105710000E949E336FEF87E090E00E949E3340E04E
:1057200050E0BA0188E090E00E94B03360E084E28B
:1057300090E00E949E3360E087E190E00E949E33FB
:1057400060E08CE090E00E949E3360E08DE090E0AD
:105750000E949E3319821A821B821C821D821E8225
:105760001F82188648E050E068E170E0CE010196A3
:105770000E948E3340E050E0BA0180E290E00E9447
:10578000B03380E00E946D0D0E945E1540E050E055
:10579000BA018FE090E00E94B03340E050E0BA01DF
:1057A00083E190E00E94B03382E090E00E94803379
:1057B0008093E90184E090E00E9488339093A704ED
:1057C0008093A6040E94FC0FEFEFF6E721E0E15082
:1057D000F0402040E1F700C000000E94FC0F8091E3
:1057E000020280FF08C06FEF7FEF90E080E00E9430
:1057F000BC330E94090D83E090E00E9480330E9438
:10580000750B81E091E090939E0480939D04332476
:10581000339422242394CE018B969BAF8AAF809140
:10582000CD0400E112E1853009F490C00E94FC0F24
:10583000BAEECB2EB1E0DB2E12E0812E12E0912EDB
:1058400042EF51E0D401F601219131918D919D916A
:105850004E175F0709F484C028173907A9F3712C84
:10586000D4010D911D914D01F601A190B1906F01F0
:10587000A016B10659F1A026B126612CEE24E394BE
:10588000F12CC5018E219F21892BB1F06CAA7DAA34
:105890000E94E8049FAB8EAB28AE91E098012E21C8
:1058A0003F21232B09F490E099AF4CA95DA96EA983
:1058B0007FA988AD0E94D3256394EE0CFF1CFAE00B
:1058C0006F12DFCFF601329711830083739424E0C7
:1058D0007212C6CF0E94DC0449C08091CD0484308E
:1058E00021F11092A104A8E1B0E0E0E40FB6F89431
:1058F000A895A09360000FBEE093600083B7817FFE
:10590000846083BF83B7816083BF7894889583B7B1
:105910008E7F83BF0FB6F894A89580916000886150
:1059200080936000109260000FBE8091CC048823A9
:1059300069F00E94FC0FE2E0F2E081919191892BE5
:1059400009F0EAC522E0EA30F207B9F78091CD0408
:10595000853009F4C2CF0E947F110E94730566CF83
:105960002817390709F07BCF0E944C2980919204B7
:1059700090919304892B09F43EC040918704509183
:1059800088046091890470918A042FB7F8948091FB
:10599000A2049091A304A091A404B091A5042FBFE8
:1059A000841B950BA60BB70B409183045091840484
:1059B000609185047091860484179507A607B70740
:1059C000D0F080919204909193040E9466181092F6
:1059D00093041092920410928704109288041092FB
:1059E000890410928A041092830410928404109205
:1059F0008504109286040091990410919A0401156F
:105A0000110551F18091F2019091F3010E94CD04B2
:105A10007C0189E0AAADBBAD1D928A95E9F7BE0174
:105A2000655D7F4FC8010E949A0D8E159F05A0F4F9
:105A30008091990490919A049927E4E0880F991F26
:105A4000EA95E1F7FC01EE5CFD4F208122FD04C0E8
:105A5000835D9D4F0E94391180911401882301F1CB
:105A600080917F04909180040097D1F00E94CD0432
:105A70002091D1033091D2032817390788F49091EF
:105A80007D0480917E04981709F4E1C00E943F25AF
:105A90001092D2031092D1031092800410927F04CE
:105AA0008091C40380FF1EC08091130182FF1AC041
:105AB0000E94E8042091CD033091CE03AC01421B3B
:105AC000530B20911101309112014217530750F0EE
:105AD00024EF31E041E0BC018091CF039091D003ED
