:100000000C943D030C9475030C9475030C947503C8
:100010000C9475030C9475030C9475030C94750380
:100020000C9475030C9475030C94E1290C949D2990
:100030000C94DE2A0C9475030C9475030C947503D0
:100040000C9475030C9475030C9475030C94750350
:100050000C9475030C94BA2A0C9475030C947503D4
:100060000C9475030C9475030C9475030C94750330
:100070000C9475030C9475030C9475030C94750320
:100080000C9475030C9475030C9475030C94750310
:100090000C9475030C9475030C9475030C94750300
:1000A0000C9475030C9475030C94750305010902F7
:1000B000A10185020901A1000509190129081500FE
:1000C0002501950875018102050109300931158165
:1000D000257F95027508810609381581257F9501D0
:1000E00075088106050C0A38021581257F95017572
:1000F000088106C0C005010980A101850319012AF4
:10010000B700150126B700950175108100C0050CD8
:100110000901A101850419012AA002150126A002E6
:10012000950175108100C005010906A1018506052C
:100130000719E029E71500250195087501810205D9
:1001400007190029EF1500250195F07501810205B9
:10015000081901290595057501910295017503910D
:1001600001C00660FF0961A1010962150026FF00B8
:100170009520750881020963150026FF00952075FA
:10018000089102C005010906A101050719E029E748
:1001900015002501950875018102950175088101F9
:1001A0000507190029FF150026FF0095067508812F
:1001B000000508190129051500250195057501910E
:1001C00002950175039101C0FD377A585A00000469
:1001D000E6D6B4460200210116000000742FE5A304
:1001E000E0016500895D003D8889A654750A36E105
:1001F00082AEFA7A1AA6FCA2ED4951391A5E7177DD
:10020000BBD0558C3BA832869F744EF98317003EB5
:10021000A32C7C4E911C1B94136B8FE09575CF3AE9
:10022000D57CEBD4DCF2408CF51689D09EE3538E5E
:10023000249E646BE75B409A925340E4E566DDE6FA
:10024000B2129DD6795E80094F98F3C81D41A70F61
:100250008DBABF112D53F7E17DA1C54A99B9C1AF40
:10026000B5616E8B8291456C7F8E13B0D758931316
:1002700000000000CF17BA3B9F3058FC0001A501D9
:10028000E6020000BAB77447B1C467FB0200000081
:100290000004595A01000100C803430F280F000051
:1002A00002000200C403430F280F000003000100F6
:1002B000C903430F280F000004000200AE03430FE0
:1002C000280FFB0605000100CA03430F280F00009A
:1002D00006000200B003430F280F000007000200D1
:1002E000C603430F280F000008000100CB03430F93
:1002F000280F000009000200B203430F280FD606A2
:100300000A000200B403430F280FD6060B000200B8
:10031000B603430F280FD6060C000200B803430FA4
:10032000280FD6060D000200BA03430F280FD60689
:100330000E000200BC03430F280FD6060F00020078
:10034000BE03430F280FD60610000200C003430F60
:10035000280FD60611000200C203430F280FD6064D
:1003600012000200CC03430F280F0000130002000C
:10037000CE03430F280F000014000100D003430FE9
:10038000280F00001500000000005C069B1500000F
:100390002B0014001A000800150017001C0018009C
:1003A0000C00120013002A002900040016000700A8
:1003B00009000A000B000D000E000F00330034008E
:1003C000E1001D001B0006001900050011001000CF
:1003D0003600370038002800E000E000E200E300CB
:1003E00021522C002C0022525000510052004F008C
:1003F00035021E021F0220022102220223022402D1
:100400002502260227022A004C003A003B003C004D
:100410003D003E003F002D022E022F02300231022D
:100420000100400041004200430044004500320208
:1004300064024A004D0001000100010001000100BA
:100440000100010001000100AB00AA00A900AE00FC
:1004500035001E001F002000210022002300240080
:100460002500260027002A004C003A003B003C00F3
:100470003D003E003F002D002E002F0030003100D7
:1004800001004000410042004300440045003200AA
:1004900064004B004E00010001000100010001005A
:1004A0000100010001000100AB00AA00A900AE009C
:1004B0000100007C010001000100010001000100B9
:1004C0000100010001004C000100010001000100D9
:1004D0000100010001000100010001000100010014
:1004E0000100010001000100010001000100010004
:1004F00001000100010001000100010001000100F4
:1005000001000100010001000100010001000100E3
:1005100009025B00030100A0FA09040000010301C5
:10052000010009211101000122440007058103088F
:10053000000109040100020300000009211101006B
:100540000122220007058203200001070503032082
:10055000000109040200010300000009211101004B
:100560000122B600070584032000011201000200E9
:10057000000008AFBE04000100010203011C037665
:1005800000690061006C003A0066003600340063C8
:10059000003200620033006300000014036D006944
:1005A000006E0069007000650067003400380000CC
:1005B000001203730070006F007200650077006F17
:1005C00000680000000403090400000000000000AF
:1005D000000000000000000000000000000000001B
:1005E000000000000000000000000000007E0F007E
:1005F000D4FFFFFFC70000007800000000000000EB
:10060000002A2B280000000000000000000000006D
:100610000000000029000000002C1E3420212224AC
:10062000342627252E362D3738271E1F202122233A
:100630002425263333362E37381F040506070809CC
:100640000A0B0C0D0E0F1011121314151617181992
:100650001A1B1C1D2F3130232D35040506070809F0
:100660000A0B0C0D0E0F1011121314151617181972
:100670001A1B1C1D2F3130354C0011241FBECFEF2B
:10068000DAE0DEBFCDBF04B603FE18C080912705B7
:1006900090912805A0912905B0912A058730904BAB
:1006A000A740B04B59F410922705109228051092DC
:1006B000290510922A05E0E0F8E3099511E0A0E091
:1006C000B1E0E6EBF8E602C005900D92A637B1075F
:1006D000D9F725E0A6E7B1E001C01D92A732B20725
:1006E000E1F70E94052B0C9405340C940000482F70
:1006F000209125059091DC0459E0291302C080E087
:10070000089530E0529FF001539FF00D1124E35201
:10071000FB4F8181681306C08081481303C0858127
:100720008111EECF2F5F3F4F2770E7CFE8EDF0E06C
:1007300080818E7F80831092E2001092DA00109206
:10074000E100A0EEB0E08C9181608C9380818F7786
:10075000808319BCA7EDB0E08C918E7F8C93808153
:100760008F7E80831092AD0408952091E400309133
:10077000E50095E6A9012091EC00822F817020FF11
:1007800006C08091E80080FF06C080E008952091B7
:10079000E80022FD1AC08091D204882389F08530B8
:1007A00089F08091EB0085FD0FC02091E40030912D
:1007B000E50042175307F9F29150E1F684E00895FD
:1007C00082E0089583E0089581E008958091D40443
:1007D00087FF13C08091E80082FF06C08091E80087
:1007E0008B778093E80004C08091D2048111F2CF0E
:1007F00008958091D2048823D9F38091E80080FF86
:10080000F8CF8091E8008E77ECCF982F9093E90095
:10081000242F762F50E0891731F07091EC00209151
:10082000ED005091F00021FD07C09F5F973071F7F8
:100830008093E90081E008953091EB003E7F309392
:10084000EB003091ED003D7F3093ED003091EB00F7
:1008500031603093EB007093EC002093ED005093E7
:10086000F0002091EE0027FDE0CF80E00895B0E099
:10087000A0E0EDE3F4E00C944833C8EDD0E08881CB
:100880008F7E8883E7EDF0E080818160808384E063
:1008900082BF81E08093AD0488818E7F888302EEE1
:1008A00010E0F80110821092DA0081EEC82ED12CEF
:1008B000F601108288818F77888388818068888399
:1008C00088818F7D888319BC1092D2041092D30442
:1008D0001092D1041092D00490EEE92EF12CF70181
:1008E00080818B7F808388818160888342E060E0A3
:1008F00080E00E940504F60180818E7F8083F801EC
:10090000808181608083808188608083F70180811D
:100910008E7F8083888180618883CDB7DEB7E8E0F1
:100920000C946433FC018091DA049091DB04861707
:100930009707A0F06115710529F49091E8009E7762
:100940009093E80090E06115710551F4911108C091
:100950008091E80082FF34C080E00895BC01F2CFAE
:100960008091D2048823C1F18530C1F18091E800E3
:1009700083FD30C08091E80082FDEACF8091E800DD
:1009800080FFE1CF8091F3002091F200382F6115B4
:10099000710519F02830310558F091E02830310503
:1009A00009F090E02091E8002E772093E800CBCF6B
:1009B00081918093F100615071092F5F3F4FE7CF24
:1009C0008091D204882341F0853041F08091E80085
:1009D00083FFBECF81E0089582E0089583E008950B
:1009E0008091AF0408959C014FB7F8948091A704BB
:1009F0009091A804A091A904B091AA044FBF821BB2
:100A0000930B08952FB7F8946091A7047091A804F0
:100A10008091A9049091AA042FBF08952FB7F8944C
:100A20008091A7049091A804A091A904B091AA0470
:100A30002FBF0895209115012223C1F02091AB040E
:100A400027FF14C0E62FE695E695E695EE31F8F41B
:100A5000E80FF92FF11D677021E030E001C0220F8F
:100A60006A95EAF78281822B82830895FC0132968F
:100A70002FEF30E04191641751F02F3F19F44111ED
:100A800001C0232F3F5F3630A9F72F3F09F40895A7
:100A9000820F911D27FD9A95FC0162830895A3E0C2
:100AA000B0E0E5E5F5E00C944E332091A4043091DC
:100AB000A50428173907A1F09093A5048093A404F6
:100AC000E091A204F091A304309751F024E029832F
:100AD0009B838A830680F781E02DCE0101960995DC
:100AE0002396E2E00C946A33A3E0B0E0EAE7F5E095
:100AF0000C944E332091A0043091A104281739079B
:100B0000A1F09093A1048093A004E091A204F0913D
:100B1000A304309751F023E029839B838A830680C6
:100B2000F781E02DCE01019609952396E2E00C9421
:100B30006A33E091A204F091A304309729F0019068
:100B4000F081E02D0995089580E008954115510543
:100B500011F0FA0109950895CF93DF93EC014091CC
:100B600090045091910460919204709193042FB776
:100B7000F8948091A7049091A804A091A904B09141
:100B8000AA042FBF841B950BA60BB70B843F914083
:100B9000A105B10518F58091900490919104A09160
:100BA0009204B091930480938C0490938D04A0934D
:100BB0008E04B0938F0484EF91E0A0E0B0E08093C6
:100BC000880490938904A0938A04B0938B04D093F3
:100BD0009804C0939704DF91CF9108950E94020575
:100BE00060938C0470938D0480938E0490938F0493
:100BF00082E390E0A0E0B0E0E2CFFC0184818623B4
:100C000051F492819923B9F06923808583FF05C04F
:100C100081E061110FC080E00895892F8F70929557
:100C20009F70982B862F8F7062956F70682B81E074
:100C30009613F1CF089581E0FDCFDC01609182042D
:100C400080918304962F891301C00895292F30E0E5
:100C5000F901EE0FFF1FE658FB4F408151814A1703
:100C60005B07A1F487E08A9FA0018B9F500D1124A0
:100C700047525C4F81E0FA0184839613E6CF2F5FE1
:100C80003F4F237033272093820408952F5F3F4FF7
:100C9000922F9370D8CF1092D7031092D603E9ED1C
:100CA000F3E08581811102C014821682379684E0B8
:100CB000E131F807B1F70895B0E0A0E0E2E6F6E030
:100CC0000C9446338FEF9FEF4430510508F469C010
:100CD0004091AB0441FB882780F990E0880F991F71
:100CE00042FB002700F910E0000F111F000F111F39
:100CF000802B912B40FBCC24C0F8D12C8C299D2932
:100D000043FB222720F9C22FE0E0DE2F53E0CC0F77
:100D1000DD1F5A95E1F78C2B9D2B44FBAA27A0F9E8
:100D2000B0E0E4E0AA0FBB1FEA95E1F78A2B9B2B0A
:100D300045FBEE27E0F9F0E0A5E0EE0FFF1FAA95D6
:100D4000E1F78E2B9F2B46FB222720F930E0B6E0FF
:100D5000220F331FBA95E1F7822B932B47FB2227F3
:100D600020F930E03695322F222737952795822BB0
:100D7000932B2091AC04322F3170F32EE82EF92AF8
:100D800026952170B22EBB0CA82EBF28C501BB0C26
:100D9000AA0BBB0BFB0180839183A283B38390E0FA
:100DA00080E0CDB7DEB7EAE00C946233EEEAF3E020
:100DB000848195812AE030E0B9010E940933609373
:100DC0001001868180930F01828580930E018485B6
:100DD00080930D0186859785B9010E940933609340
:100DE0000C01808980930B01828980930A01848998
:100DF0008093090108958091AE039091AF03909381
:100E00001201809311010895E2E3F2E090E080E0A6
:100E10006EED78E245E059E224E538E277836683B7
:100E200051874087338722879787868701967096F8
:100E30008830910599F7089581152CE7920741F4C0
:100E40002091860430918704232B11F490E080E0F8
:100E500008950E940E059C0190911A0280911B0238
:100E6000982B21F0309317022093160290911C02C8
:100E700080911D02982B21F03093150220931402CB
:100E8000E091A204F091A304309749F082E08093AE
:100E900018020480F581E02D88E192E0099508951B
:100EA0008091130280FF0CC060910A0170E075957B
:100EB0006795759567956115710549F1862F0895B8
:100EC00081FF06C060910A0170E075956795F3CFC8
:100ED00060910A0182FD0BC0909112029923A1F04A
:100EE0006091090180910A01961738F0682F70E02F
:100EF0006038710500F38FE70895899FC0011124C0
:100F000070E00E941D33F4CF61E070E0D7CF81E044
:100F10000895809113026091B6037091B70380FF2A
:100F200016C020910E01269FC001279F900D11240D
:100F3000BC0176956795769567956038710508F0E0
:100F400043C06115710509F441C0862F089581FFE2
:100F50000BC020910E01269FC001279F900D1124E8
:100F6000BC0176956795E9CF82FF09C080910E019B
:100F70009B01829FB001839F700D1124DECF2091D1
:100F800011022223D1F290910D0180910E01482F80
:100F900050E0291748F0CB01849FB001859F700D68
:100FA000949F700D1124C9CF289F90011124269F72
:100FB000A001279F500D369F500D1124692F70E01E
:100FC000CA010E940933B9CF8FE7089581E00895DF
:100FD000282F35EB2303C001112497FF04C080584C
:100FE0009109892F089580589F4FFBCF80E0089585
:100FF000F894E82FE295EF70F0E031A1282F2F70E0
:1010000081E090E001C0880F2A95EAF7982F90952B
:10101000932391A392A1892B82A378940895909110
:10102000AB0492FF10C041E0282F2471243009F056
:1010300040E031E0282F2871283009F030E04317D4
:1010400011F02CE0822793FF10C041E0282F24717B
:10105000243109F040E031E0282F2871283109F0CF
:1010600030E0431711F02CE082273091AC0430FFC0
:1010700010C051E0282F2171213009F050E041E0EB
:10108000282F2871283009F040E0541711F029E08A
:10109000822731FF10C041E0282F2171213109F052
:1010A00040E031E0282F2871283109F030E0431763
:1010B00011F029E0822794FD877E089582389105FA
:1010C000B9F1B0F48133910509F47DC048F4893257
:1010D000910509F46DC08A32910509F47BC0089529
:1010E0008533910509F45FC08933910509F10895AD
:1010F000833E9105D9F138F4803E910529F1823E75
:10110000910579F10895863E9105D9F1873E9105C3
:1011100009F43EC0843E910541F52091AC0421FFC5
:1011200024C08091AB0484FD19C087EE90E008953F
:101130002091AB04237009F05AC02091AC0423FF26
:1011400014C089E290E008952091AB0420FD38C0DE
:101150003091AC0430FF09C024FF43C090E080E030
:1011600008952091AB0422FDF7CF08952091AB04A0
:1011700022FD3AC03091AC0430FD39C024FFF5CFD8
:10118000EDCF2091AB0423FFF0CF24FDE7CFCDCFEF
:101190002091AB0423FD2EC03091AC0431FFEECF83
:1011A00084EE90E008952091AB0425FFDECFC9CFF7
:1011B0002091AB0425FD21C02091AC0423FFD5CFA5
:1011C00089E390E0D2CF2091AB0426FFCECF8AE214
:1011D00090E008952091AB0426FFC7CF81E390E013
:1011E000089583EE90E0089582EE90E0089580EEF9
:1011F00090E0089586EE90E0089585E390E00895EC
:101200001F93CF93DF930E945E08EC01C11580E528
:10121000D807F0F5C11580E4D80708F09CC0C03E9F
:10122000D10520F5CD3CD10508F082C0C83AD105E2
:1012300078F4C53AD10508F073C0C130D10519F171
:10124000209709F1C430D105F0F4D0E0C0E01BC014
:10125000C33CD105D0F7C85AD0E0CC0FDD1FCF5D1D
:10126000DE4F0990D881C02DD4640DC0C11580E235
:10127000D80708F0D1C0C11581E0D80708F05AC0DE
:10128000C83ED10510F7CE01DF91CF911F9108958F
:10129000C03682E5D80718F5C03482E5D80708F0D3
:1012A0006BC0C03282E5D80708F05FC0C11582E587
:1012B000D80708F497C02C2F2695269580E2289F02
:1012C000900111248C2F8370C1E0D0E002C0CC0FBC
:1012D000DD1F8A95E2F7C22BD32BDD68D4CFC03A4D
:1012E00082E5D80760F4C03882E5D80708F459C011
:1012F000CF71D0E0DC2FCC27C46FD06AC4CFC03C04
:1013000082E5D80708F462C0C03E82E5D80708F03D
:101310009CCFDC2FCC27CC27DF71C06FD06AB3CF36
:10132000C55AD0E0C25EDE4FC881D0E0D064ABCFFA
:10133000D065A9CF8D2F0E940F08182FCE019927B5
:101340000E945E08C12FD0E0DC2FCC27CC27DF71B4
:10135000C82BD92B98CFCE0199270E945E08CC27A5
:10136000DF70C82BD92BD06A8ECFCF71D0E0DC2FA5
:10137000CC27C16FD06A87CF2C2F26952695277052
:1013800080E2289F900111248C2F8370C1E0D0E06F
:1013900002C0CC0FDD1F8A95E2F7C22BD32BDC688D
:1013A00072CF2C2F26952695277080E2289F9001DA
:1013B00011248C2F8370C1E0D0E002C0CC0FDD1F60
:1013C0008A95E2F7C22BD32BDA685DCF8C2F8F7111
:1013D0000E940F08C82FD0E0DC2FCC27CC27DF716C
:1013E000D06251CF8C2F8F710E940F0855E0D69597
:1013F000C7955A95E1F7CF70D0E0DC2FCC27282F86
:1014000030E084FF05C044E0220F331F4A95E1F726
:10141000C22BD32BD06937CF8D2F8F710E940F082D
:10142000182FCE0199270E945E08C12FD0E0DC2F33
:10143000CC27CC27DF71C82BD92BD2CF8091DE01EE
:10144000882331F01092DE011092DD011092DC0150
:101450000895CF93C82F8091AC0482FF0CC0809177
:10146000DE018C1741F00E940E059093DD01809300
:10147000DC01C093DE01CF9108959091DE01292F08
:10148000282361F0809589238093DE01882339F039
:101490000E940E059093DD018093DC01089590E099
:1014A00080E0F8CF809590912605982390932605AB
:1014B0000895809590918D03982390938D030895BE
:1014C00090918D03892B80938D0308951092BB0119
:1014D0001092BA011092B90108958091B0039091D1
:1014E000B103892B89F00E940E052091DC01309117
:1014F000DD01AC01421B530B81E02091B003309120
:10150000B1034217530708F480E081700895909169
:10151000B801292F282321F0809589238093B801D1
:101520000895909115019923D1F09091AB0497FF04
:1015300016C0E82FE695E695E695EE31E0F4F0E08A
:10154000E858FE4F282F277081E090E001C0880FF7
:101550002A95EAF780959281892382830895EAE7A4
:10156000F1E09191891303C0DF0111971C9291E082
:10157000E038F907B1F70895809125059091DC04D2
:10158000981301C008958F5F8770FACF292F943088
:1015900078F58C3068F590E03CE0239F800D911D3C
:1015A0001124682F677023E0969587952A95E1F7B7
:1015B000FC01EE0FFF1FE80FF91FE356FE4F50E04E
:1015C00040E080E0219130E0062E02C0369527955C
:1015D0000A94E2F721703327042E01C0220F0A94E7
:1015E000EAF7822B4F5F5F4F4330510559F708955B
:1015F00080E00895292F943098F58C3088F590E09C
:101600003CE0239F800D911D1124282F277041E07D
:1016100001C0440F2A95EAF723E0969587952A950D
:10162000E1F7FC01EE0FFF1FE80FF91FE356FE4F35
:1016300030E020E070E05191DF011197CB01022EE4
:1016400002C0969587950A94E2F781708195852767
:10165000842385278C932F5F3F4F2330310559F723
:101660000895982F9670963021F488608093ED014C
:101670000895877FFBCF9091ED0121E030E0F901E3
:1016800001C0EE0F8A95EAF7D90102C0AA0FBB1F6D
:101690006A95E2F7EA2B01C0220F4A95EAF7892FF3
:1016A0008E23E81305C0292B822F0E94310B089549
:1016B00020952923F9CF21E030E001C0220F8A953F
:1016C000EAF720958091ED0182230E94310B089565
:1016D0009091BB01809589238093BB01282F2770AF
:1016E00069F4891759F09091AC0492FF07C0869570
:1016F000869586950E945B0B0E94660A089521E0FC
:1017000030E001C0220F8A95EAF78091ED01822B2B
:101710000E94310B08959091AC0492FF10C098E0A4
:10172000899F90011124622B6093BB010E947F0B63
:101730000E940E059093BA018093B90108950E940A
:101740007F0B08958093EC01089592959F709630D9
:1017500091F058F4925F9F70923058F4803F19F0E6
:1017600030F4883E30F481E008959A5FF4CF843FEE
:10177000D1F380E00895883EB0F3813FD1F7F3CFF5
:10178000662309F45DC08D3C41F40E948907819570
:1017900080931B020E94290708958E3C19F40E9431
:1017A0008907F6CF8F3C31F40E9489078195809399
:1017B0001A02F0CF803D19F40E948907F8CF893DC5
:1017C00029F40E94500780931C02E4CF8A3D21F443
:1017D0000E9450078195F7CF8B3D31F40E9450074E
:1017E000819580931D02D6CF8C3D19F40E9450073D
:1017F000F8CF9FE2980F983070F4815D990B21E04B
:1018000030E001C0220F8A95EAF780911902822BFD
:1018100080931902BFCF8D3D31F480911302816016
:1018200080931302B7CF8E3D21F480911302826022
:10183000F7CF8F3D09F0AECF809113028460F0CFD7
:1018400040911A028D3C59F480911B0287FF0DC014
:1018500010921B0241110BC01092110208C08E3C65
:1018600081F480911B0218169CF3442381F080912F
:101870001C0290911D02892B09F08CCF109212024C
:1018800089CF8F3C49F447FFF0CF10921A02809124
:101890001B028111ECCFE0CF803D19F41416ACF39C
:1018A000E4CF90911C02893D29F41916F4F61092A8
:1018B0001C02DBCF8A3D19F497FFD7CFF8CF909168
:1018C0001D028B3D29F497FFD0CF10921D02CDCF82
:1018D0008C3D19F41916CCF3C8CF9FE2980F9830BD
:1018E00090F4815D990B21E030E0B90102C0660FF0
:1018F000771F8A95E2F7CB01809590911902892391
:1019000080931902B2CF8D3D31F4809113028E7F06
:1019100080931302AACF8E3D21F4809113028D7F14
:10192000F7CF8F3D09F0A1CF809113028B7FF0CFCD
:101930009C013A9521153F4150F5FC01EE27F170CD
:10194000BC0166277270AC01442754709C012227A9
:10195000387094FF0EC080E1EF2B09F480E0672B14
:1019600009F08062452B09F08064232B89F08068A0
:10197000089581E0EF2B09F480E0672B09F0826085
:10198000452B09F08460232B19F08860089580E0CE
:1019900008950F931F93CF93DF938B01EA019091EA
:1019A000D204943061F58093E9008FEF9091E800C4
:1019B000815095FD06C095ED9A95F1F700008111D3
:1019C000F5CF8091E80085FF1AC00E94B503811110
:1019D00011C08091E80085FD06C08091E8008E77F7
:1019E0008093E800F2CFF80181918F018093F1009C
:1019F000219779F78091E8008E778093E800DF9156
:101A0000CF911F910F91089543E050E0BC0184E015
:101A10000E94C90C089546E050E0BC0184E00E9499
:101A2000C90C0895CF93DF93EC01809115018111CA
:101A300011C048E050E0BE0181E00E94C90C80E284
:101A4000FE01A0EBB4E001900D928A95E1F7DF91E1
:101A5000CF9108958091AB0487FF05C040E284E0F8
:101A600050E0BE01EACF48E081E0FACF81E0809308
:101A7000E00080E28093D8001092C9008FE19EE4DC
:101A80000197F1F700C0000087E090EBDC01809344
:101A9000270590932805A0932905B0932A0588E18E
:101AA0009CE00FB6F894A895809360000FBE9093C9
:101AB0006000FFCF019708F40895EFE9FFE0319748
:101AC000F1F700C00000F6CFCF93DF93CDE7D3E06E
:101AD00060E0CE010E94C9332196C11584E0D80789
:101AE000B9F7DF91CF9108951F93CF93DF93122F12
:101AF0008630E0F46430D0F44C30C0F4C42FD0E031
:101B0000CC0FDD1F98E1699FC00DD11D112490E617
:101B1000899FC00DD11D1124632FCE0189960E948B
:101B2000C933612FCE018A960E94C933DF91CF91CC
:101B30001F910895CF93C82F6FEF811163E985E25C
:101B400090E00E94C9336FEFC11162E786E290E036
:101B50000E94C9336FEFC1116EEF87E290E00E94DF
:101B6000C933CF9108959B01883070F49AE0899F22
:101B7000B001112463577D4F4AE050E0C9010E9433
:101B80009B3390E080E008958FEF9FEF0895AAE0E7
:101B9000B0E0EDECFDE00C944E339C0137552F3F47
:101BA000310509F068F4BE016F5F7F4F0E94B30DED
:101BB000892B31F489859A852A96E2E00C946A3360
:101BC0008091C6039091C703F7CF0F931F93CF93D4
:101BD000DF93863030F5643020F54C3010F5C42F9B
:101BE000D0E0CC0FDD1F28E1629FC00DD11D112474
:101BF00030E6839FC00DD11D1124CE0189960E942D
:101C0000AB33082F10E0102F0027CE018A960E94D8
:101C1000AB339801282BC901DF91CF911F910F9110
:101C2000089590E080E0F8CF462F20910F02309188
:101C30001002232B99F4703F39F4603F79F48091BE
:101C40001E0290911F020895743040F46C3030F4FD
:101C5000863020F4672F0E94E50D089590E080E023
:101C60000895CF92DF92FF920F931F93CF93DF934C
:101C70006C010091ED018091EC01082BC5E0D0E0F2
:101C800010E0FC2EC8010C2E02C0959587950A9491
:101C9000E2F780FD0CC02197A0F7F12C8F2DDF918A
:101CA000CF911F910F91FF90DF90CF900895B601D3
:101CB0008C2F0E94140E0E940009019761F3EECF51
:101CC000CF93DF93EC010E94310EBE010E94140EEF
:101CD0000E940009DF91CF910895FC01848188233F
:101CE00071F087819085009729F00E9400090E9479
:101CF000A50B0895808191810E94600EF8CF80E04D
:101D00000895A6E0B0E0E7E8FEE00C944D33498387
:101D10005A8349815A819923A1F0222391F0CA0163
:101D20000E94310E182F682F89819A810E94FA0A29
:101D300069817A81812F0E94140E2696E3E00C942B
:101D40006933CA010E94C60A182FF2CFFC01262F60
:101D500087819085009741F4408151816281738130
:101D6000848195810E94810E08950F931F93CF93D4
:101D7000DF930EEA13E0C9E6D2E0CE010E94AB3356
:101D8000F80161918F01681719F0CE010E94C933E3
:101D90002196CD38F2E0DF0781F7DF91CF911F91D7
:101DA0000F9108950F931F93CF93DF930EEA13E0E3
:101DB000C9E6D2E0CE010E94AB33F80181938F01D6
:101DC0002196CD38F2E0DF07A9F7CEE9D2E0FE0197
:101DD00085919491009711F0FC0109952C96F3E000
:101DE000CA39DF07A1F7DF91CF911F910F910895B5
:101DF00085E290E00E94AB33833989F486E290E07B
:101E00000E94AB33823759F487E290E00E94AB33F3
:101E100091E08E3F09F090E0892F8170089580E075
:101E2000FCCF9091AC0492FB222720F9281779F07F
:101E300080FB92F99093AC046091AB047091AC0478
:101E400084E090E00E94E73382E00E94680B0895EE
:101E5000DA019C012E5F3F4FF90145915491F90140
:101E600025913491A217B30758F0FC01349685915F
:101E700094910E948B330E94B50E90E080E008950B
:101E80008FEF9FEF0895DB01FC013296259134918D
:101E90004217530758F0FC01349665917491A901DB
:101EA000CD010E948B3390E080E008958FEF9FEF8B
:101EB0000895AAE0B0E0EFE5FFE00C94443305E1BB
:101EC00013E083E0C82E83E0D82E9DE2E92E93E054
:101ED000F92E27E0922E32E0A32E33E0B32E882491
:101EE0008394D6010D931D936D014AE050E0B70134
:101EF000CE0101960E949B33F8013896DF01892DAF
:101F00001D928A95E9F789819A81D80111969C934F
:101F10008E938F8112968C9312978D8113968C934A
:101F20001397888514968C931497898515968C93AE
:101F300015978B819C8117969C938E931697189674
:101F40001C9218978A8587FF3CC01E961C921E9291
:101F50001D9780FF03C0D80118968C9281FF04C0A2
:101F6000F80190859260908782FF07C0D80118968B
:101F70009C911897946018969C9383FF04C0F80175
:101F800090859860908784FF07C0D80118969C912F
:101F90001897906118969C9385FF04C0F80180857E
:101FA00080628087015F1F4FFAE0EF0EF11C8DE722
:101FB000E81683E0F80609F094CF2A96ECE00C943A
:101FC0006033F801B686A586C4CFAAE0B0E0EBEE98
:101FD000FFE00C944833E2EBF2E080E5DF011D9274
:101FE0008A95E9F7E9EDF3E088E3DF011D928A9530
:101FF000E9F782EBC82E82E0D82E7F010DED12E0CA
:10200000F701D182C0824AE050E0B801CE010196CA
:102010000E949B3388E0FE013196D60101900D921B
:102020008A95E1F789859A85D70113969C938E93BB
:102030001297BAE0CB0ED11CE7E0EE0EF11C065F62
:102040001F4F0D32F3E01F07D9F62A96E8E00C94F3
:102050006433A8E0B0E0EFE2F0E10C9444338E0189
:102060000F5F1F4F88E0F80111928A95E9F797E515
:10207000E92E91E0F92E6801AA24A394B12CF7016E
:1020800081917F018F3F09F446C0F894E82FE295D3
:10209000EF70F0E021A18F70A50102C0440F551F21
:1020A0008A95E2F7CA01922F982B91A392A180956D
:1020B000892382A3789400C0EBE5F1E021E030E0D1
:1020C000912C812C41914F3F09F467C0A42FA29518
:1020D000AF70B0E090968C9190E04F7002C09595F3
:1020E00087954A95E2F780FD58C0C901882A992A48
:1020F000220F331F51E0E736F50721F7F70131973B
:1021000080818F3F11F00E94F80780EA8A95F1F7ED
:10211000F60191828082F2E0CF0ED11C4BE5E416ED
:1021200041E0F40609F0ABCF48E050E0B80184EE9E
:1021300091E00E947E33892B99F188E0F801A4EEAA
:10214000B1E001900D928A95E1F781E08093E3017F
:102150000E940E059093E2018093E1018091E101DC
:102160009091E2010E94F3040597F0F048E050E0FE
:1021700064EE71E087E092E00E947E33892BC9F023
:1021800088E0E4EEF1E0A7E0B2E001900D928A95DC
:10219000E1F781E01092E30108C090E080E0A6CF73
:1021A0008091E3018111DACF80E02896ECE00C9475
:1021B000603380E0EFCFCF9380918D03909126051F
:1021C000892B809378018091DE01882329F1809109
:1021D000B0039091B103892B29F00E946D0A8111FF
:1021E0000E941E0A809178019091DE01892B8093D4
:1021F000780180911501882309F447C08091AB04D0
:1022000087FF43C08EE1EAE7F1E090E0815008F0FB
:102210003EC091110E941E0AC0919404C095809105
:102220007801C82380919504C82BC093780140E2BF
:1022300050E06CEB71E088E791E00E947E33892BDF
:1022400011F180E2E8E7F1E0ACEBB1E001900D9232
:102250008A95E1F7E091A204F091A304309799F0F8
:1022600080911501882349F08091AB0487FF05C058
:10227000C093790186E0809378010280F381E02D9C
:1022800088E791E00995CF91089586E0BCCF219130
:10229000222309F4BBCF9F5FB9CFCF93DF93EC012B
:1022A0004A855B856E857F850E94A6058B810E948D
:1022B000520A8C810E94590A0E94DB1086E0FE01BE
:1022C00011928A95E9F7DF91CF910895CF93DF932B
:1022D000EC018D8181FD14C082608D838091260583
:1022E0009B81892B809326058C810E94600A0E9425
:1022F000DB10488559856E857F85CE010E94A60535
:1023000010929F0410929E048D8180FD03C0CE0127
:102310000E944D11DF91CF91089580911301877F25
:102320008093130182E00E94520A8091130184FF7E
:1023300006C08F7E8093130182E00E94600A809124
:10234000130185FF06C08F7D8093130180E20E94F8
:10235000600A0E94DB10089510928D038091150190
:10236000EAE7F1E0882329F18091AB0487FF21C0DF
:102370008EE1DF011D928A95E9F790E080E00E94EE
:10238000740590E080E00E944F05109226050E949F
:10239000DB1086E0E8E1F2E0DF011D928A95E9F7C3
:1023A0001092110210921202109213020E94290739
:1023B000089586E0DECFAAE2B0E0E1EEF1E10C9410
:1023C0004D3384ED94E02091F100DC012D93CD019B
:1023D000B4E08C3D9B07B9F78091D504833009F4B4
:1023E00072C0B8F4813009F449C0823009F4B3C036
:1023F0008091E80083FF96C28091D4049091D50427
:102400009A3008F08FC2E92FF0E0E95FFB4C0C94A2
:1024100031338A3009F48EC08B3009F471C08930B1
:1024200039F78091D404813219F78091D8049091C2
:10243000D904009711F00297D9F68091E800877FC0
:102440008093E8008091E80082FF38C09091F3000B
:102450008091F200029731F48091F100813011F007
:10246000863021F48091F1008093AF048091E800E0
:102470008B778093E8000E94E603BACF8091D40462
:10248000813A09F0B5CF8091E800877F8093E8001A
:102490008091D8049091D904892B61F460E280EB9B
:1024A00094E070E00E9492048091E8008B77809322
:1024B000E8009ECF60E090E080E0F3CF8091D2040E
:1024C0008111C0CF95CF8091D404813A09F090CF8B
:1024D0008091D8049091D904892B09F089CF8091FB
:1024E000E800877F8093E8008091E80080FFFCCFC0
:1024F000809115018093F1008091E8008E77B9CF2B
:102500008091D404813209F073CF8091D8049091E6
:10251000D904892B09F06CCF8091E800877F8093E4
:10252000E8000E94E6038091D604809315010E9482
:10253000AC115ECF8091D404813209F059CF8091E3
:10254000E800877F8093E8000E94E6038091D7042B
:102550008093AE044DCF8091D404813A09F048CFE6
:102560008091E800877F8093E8008091E80080FFF9
:10257000FCCF8091AE04BECF803899F0823809F04C
:10258000D1C18091D8048F70873008F0CBC180937F
:10259000E9008091EB0085FB882780F91092E90023
:1025A00006C08091D0049091D104911182609091E5
:1025B000E800977F9093E8008093F1001092F1007B
:1025C0008091E8008E77AAC1882309F498C18230EF
:1025D00009F0A8C18091D60481119BC18091D804D3
:1025E0008F702FEF280F263008F09CC18093E900F0
:1025F0002091EB0020FF8DC1933031F48091EB00EE
:1026000080628093EB0085C19091EB009061909384
:10261000EB0021E030E001C0220F8A95EAF7209319
:10262000EA001092EA008091EB008860EACF811105
:1026300079C11091D6041F778091E3008078812BB7
:102640008093E3008091E800877F8093E8000E94F8
:10265000E6038091E80080FFFCCF8091E300806872
:102660008093E30082E0111183E08093D2045AC189
:102670008058823008F056C12091D6043091D7049A
:102680002C3DE3E03E07A1F583E08A838AE289835B
:102690004FB7F894DE01139620E03EE051E2E32FBD
:1026A000F0E050935700E49120FF03C0E295EF70F3
:1026B0003F5FEF708E2F90E0EA30C0F0C7968D93A9
:1026C0009D932F5F243159F74FBF8091E800877F9A
:1026D0008093E8006AE270E0CE0101960E949204C5
:1026E0008091E8008B778093E8001CC1C096E7CF0B
:1026F0008091D8049091D904432F55274330510538
:1027000009F44AC078F54130510509F485C08BE5DC
:1027100090E0E0E1F5E04230510509F003C120917D
:10272000E800277F2093E8002091DA043091DB0451
:102730008217930708F49C0140E02115310509F048
:1027400070C041116EC08091E80082FDC9CF8091B8
:10275000D204882329F2853019F28091E80083FFA2
:10276000F2CFBECF4132510509F447C04232510584
:1027700009F0D8C08330910508F0D4C0FC01EE0FF9
:10278000FF1FE659FE4F0190F081E02D89599E4FC1
:10279000DC018C9190E01DC0332721303105E9F038
:1027A0002115310579F022303105F9F0233031055A
:1027B00009F0B8C0EDE7F5E0E4918E2F90E0EDE789
:1027C000F5E007C0E5ECF5E0E4918E2F90E0E5EC54
:1027D000F5E0009709F4A6C0A2CFE1EBF5E0E491A3
:1027E0008E2F90E0E1EBF5E0F4CFEBE9F5E0E4913A
:1027F0008E2F90E0EBE9F5E0ECCF8330910508F007
:1028000091C0880F991FFC01E059FE4F0190F081A3
:10281000E02D89E090E083CF82E190E0EBE6F5E007
:102820007ECF8091D204882309F45ACF853009F4F1
:1028300057CF8091E80083FD53CF8091E80082FD5F
:1028400082CF8091E80080FF78CF9091F300809153
:10285000F2002115310519F08830910550F041E062
:10286000089709F040E08091E8008E778093E800B7
:1028700064CF44914093F100319621503109019683
:10288000E8CF803809F04EC08091E800877F8093C0
:10289000E8008091D3048093F10092CE811142C070
:1028A0001091D6041230F0F58091E800877F809374
:1028B000E8001093D3040E94E603112311F084E092
:1028C00005C08091E30087FDFACF81E08093D204B8
:1028D00042E061EC81E00E94050442E261EC84E0A8
:1028E0000E94050442E261EC82E00E94050442E29B
:1028F00060EC83E00E9405048091D20413C08091B3
:10290000D604813079F481E0933009F080E080933F
:10291000D1041092E9008091E800877F8093E8005D
:102920000E94E6038091E80083FF0AC08091E800DE
:10293000877F8093E8008091EB0080628093EB00BA
:10294000AA96E3E00C946933EEEAF3E0128E138E5C
:102950008FEA90E09183808325E0248F88E893E1DB
:10296000938382838AE090E09583848344E150E0FE
:102970005783468348E050E051874087938782879A
:102980006EE170E0758764879787868780E590E0C1
:10299000918B808B538B428B48E250E0558B448B5C
:1029A00042E350E0578B468B48EC50E0518F408F0C
:1029B000158E178E168E91A380A322A30E94B50EAA
:1029C0000E94AC111092AC041092AB04ECEAF4E05B
:1029D0008081846080836091AB047091AC0484E05A
:1029E00090E00E94E7330E94D20E0895AEE1B0E07D
:1029F000ECEFF4E10C944433C0908604D09087044B
:102A000081E090E0909387048093860490E9A92E5A
:102A100093E0B92E912C7501812C1EC0402F83E0CC
:102A200021E030E0891540F0F801EE0FFF1FEE0DB8
:102A3000FF1D859194919C01682D892D0E94740D34
:102A40000F5F1F4F0C30110549F78394E8E1EE0E3C
:102A5000F11CF4E08F1619F010E000E0DFCF939442
:102A600080E6A80EB11CE6E09E12D5CF0E94A41409
:102A70001A8219821C821B821E821D8218861F8266
:102A800088EC90E09A8789870DE812E04AE050E0F0
:102A9000B801CE0101960E94ED33065F1F4F0D3D38
:102AA000F2E01F0799F77E018BE0E80EF11C8AE047
:102AB000F70111928A95E9F74AE050E0B801C701A1
:102AC0000E94ED33065F1F4F0D32F3E01F07A1F7A1
:102AD0007E0185E1E80EF11C8AE0F70111928A95EA
:102AE000E9F78FEF9FEF9A8F898F87E08E8F4AE00B
:102AF00050E0B801C7010E94ED33065F1F4F0D374C
:102B0000F3E01F07A1F7D0928704C09286046E9667
:102B1000ECE00C94603380E00E949A0D60E088E263
:102B200090E00E94C9330E94F6140E94640D81E077
:102B30000E949A0D0895CF92DF92EF92FF928FEF4D
:102B40009FEF4430510508F46CC0FB01C080D18078
:102B5000E280F3800E94AC118091AB04C0FA80F94E
:102B6000B701A601769567955795479540FB81F982
:102B7000B701A60122E076956795579547952A9566
:102B8000D1F740FB82F9B701A60133E0769567954E
:102B9000579547953A95D1F740FB83F9B701A601C0
:102BA000E4E07695679557954795EA95D1F740FB10
:102BB00084F9B701A601F5E0769567955795479595
:102BC000FA95D1F740FB85F9B701A601A6E0769505
:102BD000679557954795AA95D1F740FB86F9B701B8
:102BE000A601B7E07695679557954795BA95D1F7C1
:102BF00040FB87F98093AB048091AC04D0FA80F954
:102C0000D1FACC24C0F8C0FA81F98093AC04609169
:102C1000AB047091AC0484E090E00E94E73390E054
:102C200080E0FF90EF90DF90CF9008950E94AC116C
:102C30002FEF84E39CE0215080409040E1F700C0FA
:102C4000000088E19CE00FB6F894A895809360009E
:102C50000FBE90936000FFCF882321F00E94520A9C
:102C60000E94DB100895882339F090912605982B57
:102C7000909326050E94DB100895882321F00E947E
:102C8000590A0E94DB100895882321F00E94600AEF
:102C90000E94DB100895882381F19CEF980F913AF0
:102CA00028F40E94910A0E94DB10089590E2980F88
:102CB000983050F4877091E001C0990F8A95EAF737
:102CC000892F0E94590AEFCF9BE5980F933028F483
:102CD00090E080E00E947405089598E5980F9B317C
:102CE00028F490E080E00E944F05089593E3980F48
:102CF000933118F460E00E94C00B0895FF920F9387
:102D00001F93CF93DF93F82E0091990410919A04AA
:102D10000115110509F449C0109298041092970406
:102D20001092940410929504D8011696CD91DC91DE
:102D30009E013A9521153F4108F4D07ED1E0C111A2
:102D400001C0D0E0D8011996ED91FC911A97309707
:102D500031F01B966D917C9180E00995D823DD239D
:102D600039F08CEF8C0F813A30F58C2F0E94910A4C
:102D7000FF2099F0E0919904F0919A04808584FDF8
:102D80000CC080919604882341F0808191819C0140
:102D9000215031092F333E47A0F00E94DB101092E2
:102DA0009A041092990410929604C801CDB7DEB728
:102DB000E5E00C9467330E94DB108C2F0E944B16C9
:102DC000D7CF0E94AC05E9CFCF93DF93EC010E94EF
:102DD0004B16CE010E94980C9E01205E31092830CE
:102DE000310510F0CD2B29F40E943D16DF91CF91D3
:102DF00008950E942C16FACFCF93C82F8823C1F1D3
:102E00008CEF8C0F813AB0F580911501882301F188
:102E10008091AB0487FF1CC0EC2FE695E695E69504
:102E2000F0E0E858FE4F828190E04C2F477021E09F
:102E300030E002C0220F331F4A95E2F7822393232A
:102E4000892B79F08C2F0E94910A0E94DB1009C017
:102E5000EAE7F1E08191C817A9F381E0E038F807CB
:102E6000C9F76C2F88E791E00E941A050E94DB10D9
:102E7000CF91089580E28C0F883048F4C77081E0CC
:102E800001C0880FCA95EAF70E94600AEFCFEBE510
:102E9000EC0FE33040F4F0E0E25EFE4F808190E022
:102EA0000E947405E5CFE8E5EC0FEB3150F4F0E05B
:102EB000EE0FFF1FEF5DFE4F808191810E944F0555
:102EC000D7CF83E38C0F833198F661E08C2F0E947B
:102ED000C00BCECF1F93CF93DF93182FC091CE039B
:102EE000D091CF03893321F0C091CC03D091CD0391
:102EF000812F0E94FC16209739F4812F0E944B16D7
:102F0000DF91CF911F9108958FE99FE00197F1F72D
:102F100000C000002197EFCFB0E0A0E0E2E9F7E1C8
:102F20000C944633EC018AE0A82E2881222309F470
:102F30008FC02130C9F599818A81913021F4229680
:102F40000E946A1705C0923029F422960E94FC164E
:102F50002196EBCF933021F422960E944B16F8CFA6
:102F6000943011F02196F4CF229630E020E0AE01AB
:102F70004F5F5F4F8053990B8A30910550F021507D
:102F8000310930F38FE99FE00197F1F700C00000AD
:102F9000F6CFA29EB001A39E700D11249C01260FB6
:102FA000371F8981EA01E3CFE22FF0E0E750FA4FC3
:102FB000B490822F86958695869590E0FC01E75126
:102FC000FA4FE4902770F12C022E02C0F594E7949A
:102FD0000A94E2F731E0E322FF24FC01E752FA4FC2
:102FE000C490D12C022E02C0D594C7940A94E2F763
:102FF00031E0C322DD24FC01E753FA4F049110E0D5
:1030000002C0159507952A95E2F701701127E11482
:10301000F10419F081EE0E94FC16C114D10419F0DC
:1030200086EE0E94FC168B2D0E946A17C114D104F3
:1030300019F086EE0E944B16E114F10419F081EEAE
:103040000E944B160115110509F482CF8CE278CF4E
:10305000CDB7DEB7EAE00C946233B0E0A0E0E3E382
:10306000F8E10C9446337C015B01C42FD22FFC01A4
:1030700085818823A9F040939D040E940E059093BA
:103080009C0480939B04C77081E001C0880FCA959F
:10309000EAF70E944416CDB7DEB7EAE00C9462333B
:1030A00010919D04141338C080919B0490919C044E
:1030B0000E94F3046C01B701C5010E94C70DC81638
:1030C000D90650F5C0E2CD0F1D17C1F080E2810F87
:1030D000883048F4177081E0012E01C0880F0A94EF
:1030E000EAF70E943D16C83048F481E09D2F9770A2
:1030F00001C0880F9A95EAF70E944416802F0E941B
:103100006A17C83040F6D77081E001C0880FDA95A1
:10311000EAF70E943D16BFCFC77081E001C0880F5B
:10312000CA95EAF7F6CFCF93DF93EC010E94980C93
:103130009E01205E31092830310510F0209741F4BE
:103140000E9444168C2F0E94FC16DF91CF910895A7
:103150000E943316F7CF662329F0209126052260BE
:10316000209326059C0130522115304308F49927FD
:103170000E9493180895B0E0A0E0E1ECF8E10C940F
:1031800048336C018B01E42E8091130182FF87C0CC
:10319000C091D403D091D503CC15DD0521F0C11425
:1031A000D10409F07CC0809113018B7F80931301BF
:1031B00081FD6EC08091D2039091D303A801481B7A
:1031C000590B81E0209111013091120142175307F0
:1031D00008F480E08170F82E80911301F0FA81F9F3
:1031E00080931301FE0183E0F695E7958A95E1F758
:1031F000EE71FF27E257FC4F20813181AE014F7005
:10320000552781E090E002C0880F991F4A95E2F7A8
:10321000FF2009F43FC0822B932B91838083809100
:103220008D0381FF08C08091130180618093130199
:1032300082E00E94590A80918D0385FF08C0809129
:10324000130180628093130180E20E94590A6F2D5E
:10325000CE010E94AB18EE2031F08091C90385FFAA
:1032600002C086FF30C08091CC039091CD030E94B4
:103270005A0D8091D4039091D5039C0130522115B1
:10328000304308F499270E94E4160E948D1117C05C
:1032900081E0A0CF8095909582239323BECFC60175
:1032A000905281159043A0F4C60199270E94E4161C
:1032B0008091D4039091D5038C159D0531F3109323
:1032C000D3030093D203CDB7DEB7E8E00C946433A8
:1032D000C601ECCFA7E0B0E0E0E7F9E10C943E33A3
:1032E0007C01DC0114968C91882309F457C161E0BC
:1032F000C7010E94A60E8C01F7018581882319F170
:1033000080919E0490919F040097E9F00817190797
:10331000D1F09927F4E0880F991FFA95E1F7FC01A5
:10332000E95CFD4F2081246020838E5C9D4FDC0191
:103330000D931C930E9466111092260561E0C7014F
:103340000E94A60E8C01F7018581882309F4B1C083
:10335000C80197578038910508F0DEC0D02EFFE0F5
:10336000F01708F40BC18FEF93E00E94AB3381118B
:1033700005C10DE713E0D11036C019821A821B82F5
:103380001C8299249A9468013FEFC31AD30AC8019A
:103390000E94AB3389831A82882309F4EFC08130FD
:1033A00009F081C0580142E0A40EB11CC6010E9480
:1033B000AB33C82E8A83882309F4E0C0C5010E947C
:1033C000AB33D82E8FEF8C0D8330D8F4580153E0F7
:1033D000A50EB11CDB82DD2021F0CE0101960E94FA
:1033E0008C178501D0CF011524E0120709F4C6C05F
:1033F000C8010E94AB33811101C0DA940F5F1F4FE7
:10340000BACF8BEF8C0D833030F5C8010396DB8289
:103410005C01DD2031F35801A4E0AA0EB11C0E942A
:10342000AB338C838823E9F28B819C818130BFEFA1
:103430009B0710F0982F8827E6E0CE1631F0F7E0D2
:10344000CF1631F00E94CD28CCCF0E94A828C9CF3A
:103450000E942F28C6CF24E0C212C3CF580134E007
:10346000A30EB11CC80103960E94AB33DD2009F402
:1034700085C0882309F482C08150990B989E9001E1
:10348000999E300D11244D2D4150550BCA01820FCC
:10349000931F019708F4A5CFAFE9BFE01197F1F7AB
:1034A00000C00000F6CFCE0101960E948C17560195
:1034B00098CF6801E7E5DE1AFFEFCF16D10409F0D7
:1034C00058F568E272E08C2D0E94B30D892B21F52E
:1034D000C60174E0880F991F7A95E1F7FC01EE5C54
:1034E000FD4F22812130A1F520912802309129023F
:1034F000232B91F020912A0230912B02232B61F093
:1035000020912C0230912D0240912E0250912F02D9
:10351000242B352B232B21F1D70115965C905520B8
:1035200009F440C00E35BCE71B0729F10F35ECE765
:103530001E0741F00D35FCE71F07A1F58091000142
:103540008823C9F01092000180E00E947E1616C008
:10355000223011F720912C0230912D02232BE1F221
:10356000FC01E95CFD4F20812E7F20838E5C9D4F06
:103570000E946611D1CF81E0809300018091BB0150
:10358000877061F0D70115968C91882339F080916E
:10359000AC0482FF03C082E00E94680B2796E2E140
:1035A0000C945A3380910001882309F46CC64801B9
:1035B00020EE821A91084090DE018091B801482ADD
:1035C00080918D03482A38E08316910408F086C064
:1035D00098012770332781E090E001C0880F2A9579
:1035E000EAF7552009F477C0482AD7018D919C91BC
:1035F0000E94C60A21E030E0390102C0660C771C47
:103600008A95E2F7E0919904F0919A04FF83EE83A2
:1036100020909801309099011D822D81E22FF0E0D9
:10362000EE0FFF1FED5FFC4FC080D180C114D104AD
:1036300009F484C6411005C0D60112968C918111FF
:1036400089C0F601838190E086219721892B09F4B6
:1036500081C08085982F977009F487E0F8E08F1675
:10366000910408F055C0552009F44EC0869581702C
:10367000882309F46FC0D601AD90BC900A151B05D4
:1036800019F4552009F466C0EE81FF81CE16DF06DD
:1036900009F460C0D6011D96ED91FC91309721F0A0
:1036A0008081882309F456C0642DC6010E94FD055F
:1036B000882309F44FC00A151B0509F0A7C6011598
:1036C000110509F4A8C65110A8C6A214B30409F044
:1036D00041C0512CA2C68095482287CF552009F4BD
:1036E00016C610939901009398010E9402056093F9
:1036F0009004709391048093920490939304109299
:1037000098041092970471CF82FB882780F9B0CF7C
:10371000552001F18170ACCF0E944B169CC60497D6
:10372000813A910558F46A2D88E791E00E941A05C4
:10373000552009F4A8C50E94DB1020CF0E94DB10A1
:103740008FE39CE90197F1F700C000008A2D0E94E9
:10375000FC16EECF9D819F5F9D835FCFFC01208192
:1037600031810217130709F087C5511087C51092E0
:10377000960480E00E947E1686C5902F812FC2C5D8
:10378000F9014485558566857785C9010E94A6059E
:10379000D60115968C9181FFE5C5C6010E944D1199
:1037A00080919E0490919F040817190709F0DAC5CB
:1037B00010929F0410929E04D5C590911301892FF9
:1037C0008E7F90FF8160809313010E948D11F5C55B
:1037D000809113018E7FF7CF809113018F7E013E80
:1037E000110531F0053E1105E9F4809113018F7D3B
:1037F000809313018091130180FF29C0D701159692
:103800008C910832110570F50E31110508F07BC05E
:1038100004301105C8F58823D1F01092D503109219
:10382000D40315C0C80190528115904318F78091B8
:10383000130182FF0CC08091CB0381FD08C029EFEA
:1038400031E040E0B60190E080E00E94BB18F80152
:10385000E851FC47E730F10508F0B9C5EF5EFB4CD5
:103860000C9431330933110558F40D32110518F455
:103870000B32110581F69091C90392FDCCCF08C09F
:1038800004361105C1F3C7CF9091C90394FDC3CF8E
:10389000882309F4A8C08091DE0190918D03892BC3
:1038A0008D7FB1F11092D5031092D4038091C9039A
:1038B00081FD2EC0F80143E0F695E7954A95E1F7C2
:1038C000EE71FF27E257FC4F98012F70332781E0FC
:1038D00090E002C0880F991F2A95E2F78095909595
:1038E00020813181822393239183808360E0C8010A
:1038F0000E94AB188091DE018D7F0E94290A82E030
:103900000E94680B3BCE9091C90393FD84CFC0CF3A
:1039100089E0F701A9EFB1E001900D928A95E1F7F6
:103920001092FE011092FC011092FB018091D403D1
:103930009091D50308171907D1F52091C90325FFE8
:1039400036C03091130131FF02C026FF30C02091F4
:10395000D2033091D3035601A21AB30AB7010E94D1
:10396000C70DA816B90618F580918D0381FF08C010
:103970008091130180618093130182E00E94590AB3
:1039800080918D0385FF08C0809113018062809330
:10399000130180E20E94590A6091130166956170DB
:1039A0008091D4039091D5030E94AB18E7CD80910C
:1039B000DE0190918D03982B2091130191FB21F949
:1039C000209313018D7F0E94290A1093D503009341
:1039D000D403D092D303C092D203809113018460A8
:1039E000809313018CCF970140E0B601C8010E947B
:1039F000BB18C4CD06E221EE41EE6AE17CE7C701C7
:103A00000E942D18BBCD07E225EE45EE6BE17CE769
:103A1000F6CF06E221EE40EE68E17CE7F0CF07E268
:103A200025EE44EE69E17CE7EACF06E221EE42EEC4
:103A30006CE17CE7E4CF07E225EE46EE6DE17CE742
:103A4000DECF08E221E045EE6EE17CE7D8CF809141
:103A5000AB0481608093AB0495C08091AC04886016
:103A60008093AC048FC08091AB048260F3CF8091CF
:103A7000AB048460EFCF8091AB048860EBCF809182
:103A8000AC048160EDCF8091AC048260E9CF80917D
:103A9000AB048061DFCF8091AB048062DBCF80918B
:103AA000AB048064D7CF0E94AC118091AB048068D6
:103AB000D1CF8091AB048C60CDCF8091AC0483607A
:103AC000CFCF8091AB048E7FC5CF8091AC04877F30
:103AD000C7CF8091AB048D7FBDCF8091AB048B7F2E
:103AE000B9CF8091AB04877FB5CF8091AC048E7F36
:103AF000B7CF8091AC048D7FB3CF8091AB048F7E24
:103B0000A9CF8091AB048F7DA5CF8091AB048F7B33
:103B1000A1CF0E94AC118091AB048F779BCF809195
:103B2000AB04837F97CF8091AC048C7F99CF809139
:103B3000AB0482FB992790F921E0922790FB82F950
:103B400090FB83F987CF8091AC04982F909591706A
:103B50008E7F892B90FB81F983CF9091AB04892FC5
:103B60008F7B96FF806476CF0E94AC119091AB045E
:103B7000892F97FB87F980586DCF61E08EE090E048
:103B80000E94C9336091AB047091AC0484E090E072
:103B90000E94E7330E94AC11F1CC60E0EFCF90912E
:103BA000AB04892F8F7E94FF806154CF9091AB043A
:103BB000892F8E7F90FF81604DCF9091AC04892F2B
:103BC000877F93FF88604CCF0631FCE71F07B9F56C
:103BD00080918D03982F9A7A3091C80330FF04C0EA
:103BE000482F447409F090E031FF04C0482F417120
:103BF00009F090E032FF04C0482F487809F090E0C7
:103C000033FF03C0827209F090E0222371F081E05B
:103C1000911101C080E080939A0169E2911165E3FE
:103C200088E791E00E941A0586CD80919A01811162
:103C300004C089E20E94910A7ECD85E3FBCF07375D
:103C40003CE7130709F458C008374CE7140709F498
:103C50005EC0222381F003305CE7150709F477C0CA
:103C600008F05AC001159CE7190709F463C0013038
:103C70001C4709F472C0F70187819085009709F409
:103C80007AC00E940009182F092FF701C580B6805D
:103C9000B2943FE0B3228091BB018770F1F0AC2C6D
:103CA000CC20E1F0892F807F803451F080E2810FB9
:103CB000883098F0B11004C0892F807E803269F07E
:103CC0008091AC0482FF09C082E00E94680B809161
:103CD000BB018770AA24A3948111A12C902E9294E9
:103CE0002FE09222FBE0F91508F4D5C0E92DF0E0B1
:103CF000E85EFB4C0C94313381E0222351F00E94AA
:103D00007F0B43E062E081E00E943B0B37CC82E016
:103D1000F4CF0E945B0BF5CF0B35BCE71B0749F1D5
:103D20000C35ECE71E07D9F00A351C4709F0A3CF84
:103D300081E01CC00E94AC112FEF34E34CE0215015
:103D400030404040E1F700C000000E94360D6FEFA8
:103D50007FEF90E080E00E94E7330E94161680918A
:103D6000AC0482FB882780F991E089270E94110F1B
:103D700082CF80E0FBCF858100811181882369F0AB
:103D8000C8010E94310ED82E682FC8010E94FA0A7D
:103D9000B8018D2D0E94140E74CFC8010E94C60A6E
:103DA000D82EF6CF202F2F70D22E802F807F19F0A3
:103DB000D29490EFD922CC20A9F0DD2059F080E2F6
:103DC000810F883010F0111107C08D2D0E94600AFC
:103DD0000E94DB10812F5DC080912605D82AD092E9
:103DE0002605F6CF812F0E944B16DD2009F453C023
:103DF00080E2810F883010F0111104C08D2D0E94D7
:103E0000590A03C08D2D0E94520A0E94DB1043C044
:103E1000302F3F70D32E802F807F803219F0D294C4
:103E200080EFD822112339F1113009F4B6C0CC202B
:103E300009F4C2C0BB2009F466C020E0D7014C9150
:103E400011965C91119712966C91129713967C9132
:103E5000139714968C91149715969C910E94810E3D
:103E60008091CB0381FDB6CFF701868180FFB2CF71
:103E70008F70868348C08091AC0482FD40C0CC2006
:103E8000C1F1DD2029F08D2D0E94600A0E94DB1017
:103E900080E00E94FC16A92DA850BB0B149710F4CB
:103EA0000E949905812F902F0E94A50B8111C4C1FA
:103EB00010929C0110929B01AA20B1F08091BB014D
:103EC00080FD12C0D70115961C9286958695869521
:103ED0000E947F0BC7010E946A198091BB018695E1
:103EE000869586950E945B0B60E0C7010E94A60E36
:103EF00055CB80E00E944B16DD2069F27FCFCC20AD
:103F000091F1B11004C08D2D0E944416C4CF41E040
:103F1000B41211C08090DE018D2D8821D81609F4CD
:103F2000BACF0E940E059093DD018093DC01D82862
:103F3000D092DE01B0CF8091CA03823008F4ABCFBB
:103F4000B812A9CF8D2D0E9444168D2D0E943D0AD6
:103F50008091B8019D2D9823D91609F49CCFD82AB9
:103F6000D092B80198CFB1100AC08D2D0E943D1695
:103F70008D2D0E943D0A8D2D0E94870A8CCF809145
:103F8000CA03823008F487CF51E0B51284CF809104
:103F90008D038D2109F47FCFE8CF8091D003CC2011
:103FA00021F08B1508F477CFAECFB81608F073CF99
:103FB0008D2D0E943D166FCFBB20D1F38091CE0393
:103FC0009091CF03193321F08091CC039091CD03D0
:103FD0000E945A0D812F0E944B165DCF802F86952F
:103FE0008695837069F0813009F055CF812F902F2D
:103FF0009370C11002C080E090E00E944F054BCF4B
:10400000812F902F9370C11002C080E090E00E9439
:10401000740541CF6C2D812F0E94C00B3CCF802FA7
:10402000837091F5C11037CF412F42954695477067
:10403000440F440F812F8F70042E01C0880F0A9403
:10404000EAF7212F207114FF07C02FE030E001C0F4
:10405000220F4A95EAF72095302F36953695337022
:10406000323069F050F44091EC01313029F0822B6C
:1040700084230E94A20B0FCF842B822BFACF282BF4
:104080008091EC018227F5CF8695CC2011F0802F0E
:104090008170882309F4FFCE412F429546954770E1
:1040A000440F440F812F8F70042E01C0880F0A9493
:1040B000EAF7212F207114FF07C02FE030E001C084
:1040C000220F4A95EAF72095302F369536953370B2
:1040D000323069F050F44091ED01313029F0822BFB
:1040E00084230E94310BD7CE842B822BFACF282B2E
:1040F0008091ED018227F5CFF02FFF70DF2ECC20CD
:1041000029F08F2F0E947F0B812FFECE812F0E94DE
:104110003D168D2D0E945B0BBECE123F89F160F4DF
:10412000103FB9F0113F81F0CC2009F480C0B110EC
:1041300051CE802F8F7128C0133F49F1143FA1F752
:104140008091AC0482FD2FC0802F8F71CC2011F3A1
:104150001BC08091D003CC2079F0B81608F09BCE1C
:10416000202F2F7181E090E001C0880F2A95EAF797
:104170009091ED018927B5CF8B1508F48CCEF0CF47
:10418000802F8F71C110C6CF0E947F0B84CE80E03C
:10419000CC2009F4A6CF81E0902F9F7101C0880F39
:1041A0009A95EAF79ECF8091CA03823040F1CC20E5
:1041B000D1F09091BB019770943041F40E94660A4F
:1041C000802F8F710E945B0BA12C65CEB816E0F793
:1041D000202F2F71D22E822F0E947F0B63E08D2D16
:1041E0000E948B0BF1CFB81630F00E94660A64E093
:1041F000802F8F71F5CF81E00E94680BE5CFCC2036
:1042000059F0302F3F71D32E832F0E947F0B63E034
:104210008D2D0E948B0B3FCE81E00E94680B41E008
:104220004B1508F038CE82E00E94680B34CEB110F6
:10423000C5CE802F8F716ECFCC2019F0B11038CE43
:104240003BCEB11035CE20E0F70140815181628133
:104250007381848195810E94810E8091CB0383FFBD
:1042600027CE80919B0190919C01029709F020CE6E
:10427000812F0E946A171CCE552029F0DC01189668
:104280008C9185FF76CAC80197558F3F910511F033
:1042900008F068C0F801FF2754E0EE0FFF1F5A95A1
:1042A000E1F79F012E5C3D4F6901D70115968C9176
:1042B000E95CFD4F908180FB90F99083882309F49D
:1042C0005FCA0E940E059093F8018093F701F601F2
:1042D00082818F5F82838091260590918D03892B47
:1042E00083838091DE01848346815781668577854B
:1042F000C6010E94A605D60115968C9181FF3DCA84
:1043000090E080E090939E0480939F042BC0809166
:104310009801909199010817190781F41092990159
:1043200010929801109290041092910410929204AD
:10433000109293041092980410929704809199041B
:1043400090919A04009709F49ECFA8E08A169104F0
:1043500008F004CA642D0E94FD05811103C081E0AC
:104360000E947E168091C90380FF71CA0E940E05CB
:104370006C01F7018581882309F42ECA809113010D
:1043800082FF08C029EF31E040E0B60190E080E014
:104390000E94BB180431FCE71F0709F419CA053154
:1043A0002CE7120709F409CA03313CE7130729F483
:1043B00080911301816080931301C801905281158F
:1043C000904308F017CA1092D5031092D403F70156
:1043D0002581222309F4F8CB10929D04C80190573F
:1043E000839708F0F1CB84E090E00E94B333909380
:1043F000AC048093AB04F801E150F047E232F105E0
:1044000008F025CBEC5DFB4C0C943133A114B104C6
:1044100009F05BC9512CB12CA12C80E00E947E16C2
:10442000D0929A04C092990481E080939604F60198
:1044300085818093940451100EC0AB2861F0F60181
:10444000808191819C0124503109213A310508F085
:1044500063C90E94910AD6011696AD90BC90C50121
:104460009A9581159F4110F4E0EEBE227724739453
:10447000C50101978F339E4708F0712CD60119961C
:10448000ED91FC911A97309731F01B966D917C91CC
:1044900081E009957822772079F0F601868197816D
:1044A0000E94980C80939504C501F8E08F16910442
:1044B00008F035C90E94AC050E94DB1039C9B0E094
:1044C000A0E0E5E6F2E20C9449338091B501807FEB
:1044D00009F054C08091B401882309F44FC0E091E1
:1044E000250589E0D82E8091DC048E1709F446C09A
:1044F0000E2F10E0ED9DF0011124E352FB4F84815B
:10450000882309F440C0D09EE001D19ED00D112433
:10451000FE01E352FB4F91818091B001981333C0AB
:1045200090818091AF0198132EC0858181112BC09D
:10453000E280F3808091B1019091B201E81AF90A0A
:1045400060E08FEA91E00E94A60E6FEA71E00E949F
:10455000C70DE816F906B8F48091B5018F70806137
:104560008093B501CD51DB4F88818F708061888346
:104570008FEA91E00E946A190E94BC0ACDB7DEB7AB
:10458000E7E00C946533F8013196E770ACCFA8E111
:10459000B0E0EDECF2E20C9441338C0186E0F801DE
:1045A000DE01539601900D928A95E1F7D801149699
:1045B0007C9014971596EC908FEAA82E81E0B82E87
:1045C0008091B30181112AC0711003C0FF24F394BC
:1045D0001CC0EE20F9F0C8010E946D0EF82E882351
:1045E000C9F089E0F801AFEAB1E001900D928A9537
:1045F000E1F78091B301813031F48091AF01909166
:10460000B0010E94600E0E945F228F2D6896EFE03D
:104610000C945D33C8010E946A19D8CFF80150800C
:104620006180C280D38060E08FEA91E00E94A60E94
:10463000F090B4018091B1019091B2014601881AC5
:10464000990A60E08FEA91E0FF2009F428C10E94F6
:10465000A60E6FEA71E00E94C70D8816990608F051
:10466000D1C0772009F4B2CF8091B501382F307FC7
:104670002091B001D80111969C911197311171C010
:1046800029131FC02091AF019C9129131AC040919A
:10469000B6015091B70117962D913C9142175307DF
:1046A00081F4E11054C08F7080618093B5018FEA6E
:1046B00091E00E946A198091B501F8018683F12C7E
:1046C000A4CFE11044C0662D852D0E947703E82E0B
:1046D000882381F08091CB0380FFF1CF8FEA91E0B6
:1046E0000E946A1989E0EFEAF1E0DF011D928A95E4
:1046F000E9F7E5CF5B8A6C8A8B899C890E94600E02
:10470000292F22952F70243058F49F70223088F082
:10471000992399F0F8019681907F79F4FE2C75CF5A
:104720002A5F2F70223068F0C8010E946A19EF2CAE
:10473000F5CF992311F0882389F3805E883070F3D8
:10474000F3CF803F58F3815F833070F7E7CF8091DC
:10475000B50181608093B5018091CB0381FDAFCF1E
:10476000BDCF291320C02091AF019C9129131BC0FC
:104770004091B6015091B70117962D913C91189731
:104780004217530781F4E1100EC016968C93C801AE
:104790000E946A1989E0F801AFEAB1E001900D9238
:1047A0008A95E1F732CFC8010E946D0E882309F483
:1047B00031CFEE2009F42ECF8091B5018032B8F0D0
:1047C0002091AF013091B0013B872A87DD86CC86EE
:1047D0009091B3019E871F86888B8091B60190913E
:1047E000B7019A8B898BCE010A960E946A1989E0DB
:1047F000F801AFEAB1E001900D928A95E1F70E94CD
:104800005F22E4CE8091B501982F907F09F466CFA6
:10481000772009F4DBCE2091B001F80191812913B2
:104820001AC02091AF019081291315C04091B601A3
:104830005091B701278130854217530761F4E11089
:104840000AC08683C8010E946A1989E0D5011D92B9
:104850008A95E9F7DACEC8010E946D0E882309F423
:10486000D9CEEE2009F4D6CE8091B501803208F47D
:10487000BECF2091AF013091B0013A832983DC8211
:10488000CB829091B3019D831E828F838091B6016C
:104890009091B70199878887CE010196A6CF0E9493
:1048A000A60E6FEA71E00E94C70D8816990608F0FF
:1048B0004AC0772009F48ACEFE2CEE2009F4AACE55
:1048C0009091B001F801818198132FC09091AF01B0
:1048D000808198132AC02091B6013091B701878159
:1048E00090852817390709F58091B1019091B2019F
:1048F000C81AD90AF8ECCF16D10408F04BCF909122
:10490000B50190FD47CF907F09F444CF8091B50168
:10491000D80116968C931697903F09F438CF982FAC
:10492000907F905F8F70892B30CFC8010E946D0EF1
:1049300081115DCF8091B50181608093B501C8017F
:104940000E946A1962CE89E0F50111928A95E9F711
:104950005CCEA2E1B0E0EFEAF4E20C944C330A87BB
:104960001B872C873D874E875F87688B798B8A8B67
:10497000CE010A960E94C72281110CC089E0FE0177
:104980003A96DE01119601900D928A95E1F78E8597
:1049900081110BC019E0809125059091DC048913E9
:1049A00031C06296E4E00C9468332091DC0430E07E
:1049B000C901019687709927409125054817190666
:1049C00099F099E0929FD001939FB00D1124A352CA
:1049D000BB4FFE01319601900D929A95E1F78093BD
:1049E000DC040E94BC0AD6CF0E94AC111092DC04F9
:1049F0001092250589E0EFEAF1E0DF011D928A952A
:104A0000E9F7C8CF819FC001112483529B4F0E94B8
:104A1000C722882331F28091250590E001968770A6
:104A2000992780932505B7CFEF92FF920F931F939D
:104A3000CF93DF9380911104882361F0E091D80334
:104A40008DE0F82E80911104E81748F010921104BF
:104A50001092D803CDB7DEB7E6E00C946633EE24AF
:104A6000E394EE0EE092D803CE2FD0E0EF9DF0015C
:104A70001124EE5EFB4F84818823E9F087819085C5
:104A8000892B21F481859285019659F40081118149
:104A900022813381448155816681778180850E949E
:104AA000A924FC9EF001FD9EF00D1124EE5EFB4F4B
:104AB000148210922605EE2DC5CF10928504109217
:104AC00084041092140180918304809382040E94D4
:104AD0004B060E9414250895B0E0A0E0E2E7F5E25D
:104AE0000C943F33C091820497E0992E01E010E0CE
:104AF0002DE0322E34E0432E5524539480918304CC
:104B00008C1309C00E9414250E944B06CDB7DEB756
:104B1000E1E10C945B33D0E0FE01EE0FFF1FE6589D
:104B2000FB4F80819181989ED001999EB00D1124F8
:104B3000A752BC4F14962C911497211159C0609024
:104B40001104E2E1F4E030E020E0812C5D01261563
:104B500008F04CC0E384F484D501CD90DC906FEF75
:104B60007FEF712C472D50E0DA01AA0FBB1FAC0D6F
:104B7000BD1D0D90BC91A02D109731F0EA16FB06DB
:104B800009F4BA017394EECF6F3F7607A9F1D8010B
:104B900002C0AA0FBB1F6A95E2F78A2AB801072C48
:104BA00002C0660F771F0A94E2F7AB01415051092A
:104BB0008416150601F5329EF001339EF00D112486
:104BC000EE5EFB4F989ED001999EB00D1124A75226
:104BD000BC4F12962D913C911397308727834482C6
:104BE000108211829287818715965C920E941D0621
:104BF0002196C37083CF14822F5F3F4F3D96A7CF7E
:104C0000AEE1B0E0E6E0F6E20C943E334B8B5C8B19
:104C10006D8B7E8B8F8B988F882349F080919B01C1
:104C200090919C01019690939C0180939B01888DAB
:104C3000811110922605188A198A1A8A86E0FE01C7
:104C40007396DE011A9601900D928A95E1F7809194
:104C5000AC0482FF1EC08091B0039091B103892BF8
:104C6000C1F00E940E052091B9013091BA01821B5A
:104C7000930B2091B0033091B1038217930720F07A
:104C80008091BB0182FFE7C10E946D0A81110E94E1
:104C90001E0A8E85882389F061E0CE010A960E9463
:104CA000A60E6C018F8520E5C2162CE7D20689F48A
:104CB000882329F181E0809314010A851B852C85C6
:104CC0003D854E855F85688979898A890E94A924F6
:104CD000CDC031E5C3163CE7D30629F4882379F02B
:104CE0000E945D25EACF42E5C4164CE7D40639F4AC
:104CF000882329F0809114018111F2CFDBCF99ED47
:104D0000E92E93E0F92E412CB12CA12C8824839418
:104D1000912CBE016F5F7F4F7A8F698F222423947D
:104D2000F7014081518166246A94762C20E0822F1D
:104D300090E0FC01EE0FFF1FE40FF51F6081718111
:104D40006115710531F0C616D70609F43C012F5FD5
:104D5000EECF312CFFEF6F167F0609F448C0F70144
:104D6000448130901401832D411180E0F82FF170BF
:104D70003F2EF701558086819F85992309F4F7C05E
:104D8000332009F4F4C00091C4031091C5035110FD
:104D900013C0A401062C01C0440F0A94EAF7842B27
:104DA00086838091D6039091D7038017910720F4D2
:104DB0001093D7030093D603C40102C0880F991F34
:104DC0002A95E2F70197F70126812817190679F449
:104DD0008091840490918504009709F44BC00E944F
:104DE000F3040817190708F045C0F7012482432887
:104DF000FFEFAF1ABF0A27E0E20EF11C38E0A3165E
:104E0000B10409F08DCF8F85882309F410C14420A7
:104E100009F40DC10E940E059093850480938404CB
:104E200080911104883010F591E0980F909311044F
:104E300099E0FE013A96DE01119601900D929A9545
:104E4000E1F74DE0849FC00111248E5E9B4F29E065
:104E5000FE013196DC0101900D922A95E1F72FEFCA
:104E60003FEFFC0132872187D486C3866E96E2E14C
:104E70000C945A338091820450918304982FF0E06F
:104E8000E0E0851314C090938204EE16FF0609F447
:104E9000AECF90E0FC01EE0FFF1FE658FB4FB18252
:104EA000A08201968370992780938304A0CF682EF7
:104EB000712CF301EE0FFF1FE658FB4F208131816B
:104EC000F7E0F29FD001F39FB00D1124A752BC4F21
:104ED0002D913C9111973E8F2D8F40E020E030E0E6
:104EE000E32FF0E0EE0FFF1F6D8D7E8DE60FF71FB5
:104EF0000081118101151105E1F0F7010190F081A8
:104F0000E02DFC8FEB8F20E005C00617170709F492
:104F1000432D2F5FE22FF0E0EE0FFF1F6B8D7C8D96
:104F2000E60FF71F608171816115710571F73F5FB1
:104F3000D7CF4423C9F0F701231708F0FD012482DD
:104F4000EE16FF0621F490938204342E50CF98136E
:104F500005C0AE17BF0711F49F5F937093012F5FD9
:104F60003F4F822F83708DCFF0E0E0E0F7CF90E0ED
:104F7000511020C0B40102C0660F771F2A95E2F7D6
:104F80009B01215031098217930731F4442309F41E
:104F90004CC0C5010E941D06C401062C01C0880F2B
:104FA0000A94EAF7982F9095F701868189238683E2
:104FB000352C1DCFAC01062C02C0559547950A949F
:104FC000E2F7BA01617077279C01215031098223F1
:104FD0009323892B31F5672B21F1F701828193818E
:104FE000892BE1F0E98DFA8D27E011922A95E9F7F6
:104FF0000E940E05282F8B839C8334E03D83F701AC
:1050000082819381782F8887998709811A813C81D1
:1050100044E05E816F81892F0E94A924F7011582E7
:10502000BBCFF42FF1705F2EB7CF532CB5CF90913B
:10503000820480918304981729F00E946C25411006
:1050400015CF3BCE0E941425109285041092840443
:105050000E944B06F4CF82E00E94680B15CEA6E0BA
:10506000B0E0E5E3F8E20C944E3390931F02809396
:105070001E02811520E2920730F40E94E416269663
:10508000E2E00C946A3380EF89838A830E940E05E4
:105090008160682F9C838B8349815A817C8181E068
:1050A00090E00E940026EBCF0F931F93CF93DF93E6
:1050B0008C01EB0168E272E08C2F0E94B30D892B0A
:1050C000A1F48091CC039091CD030E945A0DDD276D
:1050D000C05EDD4F8881F801128218828330F1F0C2
:1050E00048F4813059F0823081F0DF91CF911F91E7
:1050F0000F9108958430B9F08530B9F78091280276
:1051000090912902009789F306C080912A0290911C
:105110002B02009799F30E942F28E7CF80912C0251
:1051200090912D02F6CF80912E0290912F02009740
:1051300091F7209128023091290280912A029091C2
:105140002B0221153105F1F2009729F7C901E3CFB0
:10515000A6E0B0E0EEEAF8E20C944E3390931F0222
:1051600080931E02811520E2920730F40E9493186A
:105170002696E2E00C946A3380EF89838A830E944A
:105180000E058160682F9C838B8349815A817C81C5
:1051900081E091E00E940026EBCFCF93DF93EC01FA
:1051A0000E94A8288091CC039091CD030E945A0DB3
:1051B000CE010E942F28DF91CF9108950F931F9366
:1051C000CF93DF938C01862F68E272E00E94B30DCB
:1051D000892BB1F4C0912802D0912902209781F047
:1051E000F8018281833051F4CE010E94CD28CE0196
:1051F0000E94CD28CE010E94CD2802C08430D0F775
:10520000DF91CF911F910F9108950F931F93CF932B
:10521000DF938C01EB0168E272E08C2F0E94B30DEA
:10522000892B09F05CC0FE01FF27D80112968C91F2
:105230001297E05EFD4F8130B9F415969C9192FF74
:1052400002C080830AC090FFFCCF82E080838091FF
:105250002A0290912B020097B9F480912802909134
:1052600029020097E1F110C08230B9F515968C91B2
:1052700082FD28C080FD0BC083E0808380912C02DA
:1052800090912D02009701F10E94A82828C084E087
:10529000808380912E0290912F020097A9F7809130
:1052A0002802909129020097F9F00E94CD28809160
:1052B0002A0290912B02009739F780912802909151
:1052C0002902E2CF85E08083809128029091290213
:1052D000009729F00E94CD28F0CF86E08083DF91EF
:1052E000CF911F910F91089580912A0290912B02E6
:1052F000B8CFA6E0B0E0EFE7F9E20C944C330E949F
:105300000E058C018091DF019091E00180179107DB
:1053100081F019821A820E940E05682F49815A81F4
:10532000792F80E090E00E9400261093E001009326
:10533000DF012696E4E00C9468331F920F920FB6BB
:105340000F9211242F933F934F935F936F937F930B
:105350008F939F93AF93BF93CF93DF93EF93FF937D
:10536000D091E900DF708091EC00C82FC17080FD02
:10537000C0E81092E9008091F000877F8093F000F0
:1053800078940E94DB111092E9008091F00088600F
:105390008093F000CD2BCF70C093E900FF91EF9187
:1053A000DF91CF91BF91AF919F918F917F916F913D
:1053B0005F914F913F912F910F900FBE0F901F90D3
:1053C00018951F920F920FB60F9211242F933F93AF
:1053D0004F935F936F937F938F939F93AF93BF93FD
:1053E000EF93FF938091E10082FF09C08091E2007A
:1053F00082FF05C08091E1008B7F8093E100809166
:10540000DA0080FF24C08091D80080FF20C0809106
:10541000DA008E7F8093DA008091D90080FF9DC0F2
:1054200080E189BD82E189BD09B400FEFDCF81E044
:105430008093D2048091AD04811109C00E9496032B
:105440000E9437048091E20084608093E2008091A2
:10545000E10080FF17C08091E20080FF13C08091BF
:10546000E2008E7F8093E2008091E2008061809371
:10547000E2008091D80080628093D80019BC85E05A
:105480008093D2048091E10084FF2BC08091E200E0
:1054900084FF27C080E189BD82E189BD89B5982F4D
:1054A000917080FFFBCF8091D8008F7D8093D800D2
:1054B0008091E1008F7E8093E1008091E2008F7EF9
:1054C0008093E2008091E20081608093E20080910D
:1054D000D304882309F447C084E08093D2048091E8
:1054E000D2048091E10083FF27C08091E20083FF16
:1054F00023C08091E100877F8093E10082E0809368
:10550000D2041092D3048091E1008E7F8093E10059
:105510008091E2008E7F8093E2008091E2008061C2
:105520008093E20042E060E080E00E940504809108
:10553000F00088608093F000FF91EF91BF91AF91F0
:105540009F918F917F916F915F914F913F912F919B
:105550000F900FBE0F901F90189519BC1092D20497
:105560001092AD0474CF8091E30087FD93E0909397
:10557000D204B5CF78941F921FB61F9211248F9337
:105580009F93AF93BF938091A7049091A804A0919B
:10559000A904B091AA040196A11DB11D8093A7048E
:1055A0009093A804A093A904B093AA04BF91AF91CB
:1055B0009F918F911F901FBE1F9018951F921FB62D
:1055C0001F9211248F939F93AF93BF938091A60452
:1055D000811113C08091A7049091A804A091A904FF
:1055E000B091AA044196A11DB11D8093A704909388
:1055F000A804A093A904B093AA04BF91AF919F916E
:105600008F911F901FBE1F901895CDB7DEB7ED97F5
:105610000FB6F894DEBF0FBECDBF85B7806885BFDB
:1056200085B7806885BF84B7877F84BF0FB6F8943D
:10563000A89580916000886180936000109260005E
:105640000FBE80E890E00FB6F894809361009093CD
:1056500061000FBE86EF97E090937701809376010B
:105660000E9404070E94E50F0E94590F0E94D20E6B
:105670000E9496030E9437048091E2008460809328
:10568000E20078948091D2048823A1F01091E9007F
:105690001F709091EC00892F817090FD80E8182B8D
:1056A0001092E9008091E80083FD0E94DB111F70D9
:1056B0001093E90082E084BD93E095BD9AEF97BD19
:1056C00080936E000E94F80E811102C00E948B151B
:1056D00080EF0E94F80781EF0E94F80784EF0E9494
:1056E000F80785EF0E94F8070BE511E0D8018D91CE
:1056F0008D018F3F11F00E94F807B1E007361B07BC
:10570000A9F788E0E7E0F2E0DF01282F1D922A9553
:10571000E9F7E4EEF1E0DF011D928A95E9F790E008
:1057200080E00E94B333863E9E4F21F40E94F80E23
:10573000811167C066EE7EEF90E080E00E94E73363
:1057400060E082E090E00E94C93360E083E090E096
:105750000E94C9331092EC0160E074E184E090E0B3
:105760000E94E73360E086E090E00E94C9336FEF6B
:1057700087E090E00E94C93340E050E0BA0188E041
:1057800090E00E94DB3360E084E290E00E94C93345
:1057900060E087E190E00E94C93360E08CE090E037
:1057A0000E94C93360E08DE090E00E94C933198205
:1057B0001A821B821C821D821E821F82188648E06C
:1057C00050E068E170E0CE0101960E94B93340E0FC
:1057D00050E0BA0180E290E00E94DB3380E00E945A
:1057E0009A0D0E948B1540E050E0BA018FE090E0E6
:1057F0000E94DB3340E050E0BA0183E190E00E9478
:10580000DB3382E090E00E94AB338093EE0184E0D2
:1058100090E00E94B3339093AC048093AB040E9459
:105820002910EFEFF6E721E0E150F0402040E1F7EA
:1058300000C000000E9429108091070280FF08C06C
:105840006FEF7FEF90E080E00E94E7330E94360D1B
:1058500083E090E00E94AB330E94A20B81E091E0D4
:105860009093A3048093A20433243394222423949A
:10587000CE018B969BAF8AAF8091D20400E112E1FA
:10588000853009F48FC00E942910BFEECB2EB1E005
:10589000DB2E17E0812E12E0912ED401F60121912A
:1058A00031918D919D9141E0E73FF40709F484C067
:1058B00028173907A1F3712CD4010D911D914D01C9
:1058C000F601A190B1906F01A016B10659F1A02682
:1058D000B126612CEE24E394F12CC5018E219F2189
:1058E000892BB1F06CAA7DAA0E940E059FAB8EABEE
:1058F00028AE91E098012E213F21232B09F490E05E
:1059000099AF4CA95DA96EA97FA988AD0E94002618
:105910006394EE0CFF1CFCE06F12DFCFF6013297B0
:1059200011830083739424E07212C6CF0E94020593
:1059300049C08091D204843021F11092A604A8E1DC
:10594000B0E0E0E40FB6F894A895A09360000FBE15
:10595000E093600083B7817F846083BF83B78160F9
:1059600083BF7894889583B78E7F83BF0FB6F894F2
:10597000A89580916000886180936000109260001B
:105980000FBE8091D104882369F00E942910E7E0BE
:10599000F2E081919191892B09F0E9C522E0EF3085
:1059A000F207B9F78091D204853009F4C2CF0E9482
:1059B000AC110E94990567CF2817390709F07BCFF2
:1059C0000E9479298091970490919804892B09F479
:1059D0003EC040918C0450918D0460918E04709172
:1059E0008F042FB7F8948091A7049091A804A091F8
:1059F000A904B091AA042FBF841B950BA60BB70B6B
:105A0000409188045091890460918A0470918B04BC
:105A100084179507A607B707D0F080919704909157
:105A200098040E9493181092980410929704109270
:105A30008C0410928D0410928E0410928F04109298
:105A400088041092890410928A0410928B040091A9
:105A50009E0410919F040115110551F18091F701E9
:105A60009091F8010E94F3047C0189E0AAADBBADDE
:105A70001D928A95E9F7BE01655D7F4FC8010E94BE
:105A8000C70D8E159F05A0F480919E0490919F04F0
:105A90009927E4E0880F991FEA95E1F7FC01E95C9A
:105AA000FD4F208122FD04C08E5C9D4F0E94661137
:105AB00080911401882301F18091840490918504E0
:105AC0000097D1F00E94F3042091D6033091D703C0
:105AD0002817390788F490918204809183049817DD
