:100000000C94B1010C94E9010C94E9010C94E90100
:100010000C94E9010C94E9010C94E9010C94E901B8
:100020000C94E9010C94E9010C94261C0C94FA1C24
:100030000C94F7160C94E9010C94E9010C94E90175
:100040000C94E9010C94E9010C94E9010C94E90188
:100050000C94E9010C947E170C94E9010C94E901CD
:100060000C94E9010C94E9010C94E9010C94E90168
:100070000C94E9010C94E9010C94E9010C94E90158
:100080000C94E9010C94E9010C94E9010C94E90148
:100090000C94E9010C94E9010C94E9010C94E90138
:1000A0000C94E9010C94E9010C94E90114001A0084
:1000B0000800150017001C0018000C0012001300A7
:1000C00004001600070009000A000B000D000E00D6
:1000D0000F0033001D001B00060019000500110071
:1000E00010003600370038002900E30000002B61C3
:1000F0002C4201512A620000E20028001E001F006D
:1001000020002100220023002400250026002700D3
:1001100035002D002E002F003000500051005200FD
:100120004F00340031000100010001000100010016
:100130000100010001003400000000000000000088
:100140000351000000003100000000001E021F02E9
:100150002002210222022302240225022602270273
:1001600035022D022E022F023002500051005200A3
:100170004F003402310201000100010001000100C2
:100180000100010001003402000000000000000036
:10019000000003510000310200000000A85D0000D3
:1001A00000000000000000000000000000004C0003
:1001B0003A003B003C003D003E003F00AA00A90081
:1001C00000000000400041004200430044004500A0
:1001D00000000000000000000000FB5C0000FD5C6F
:1001E0000000000000000000000000001803620092
:1001F00061006E0063006F0075007600650072009C
:100200003400300000001203730070006F007200B1
:10021000650077006F00680000000403090409020C
:100220003B00020100A0FA090400000103010100E3
:100230000921110100012240000705810308000186
:10024000090401000103000000092111010001223D
:10025000B600070582032000011201000200000021
:1002600008AFBE030001000102000105010902A15F
:100270000185020901A100050919012908150025B8
:1002800001950875018102050109300931158125A3
:100290007F95027508810609381581257F950175BE
:1002A000088106050C0A38021581257F950175081D
:1002B0008106C0C005010980A101850319012AB783
:1002C00000150126B700950175108100C0050C09C5
:1002D00001A101850419012AA002150126A0029599
:1002E0000175108100C005010906A10185060507F9
:1002F00019E029E715002501950875018102050718
:10030000190029EF1500250195F0750181020508F6
:100310001901290595057501910295017503910152
:10032000C005010906A101050719E029E715002507
:10033000019508750181029501750881010507196C
:100340000029FF150026FF009506750881000508A5
:100350001901290595057501910295017503910112
:10036000C00011241FBECFEFDAE0DEBFCDBF04B660
:1003700003FE18C080919B0290919C02A0919D0267
:10038000B0919E028730904BA740B04B59F4109229
:100390009B0210929C0210929D0210929E02E0E03D
:1003A000F8E3099511E0A0E0B1E0ECEEFEE302C055
:1003B00005900D92A838B107D9F722E0A8E8B1E07E
:1003C00001C01D92AB39B207E1F70E949B100C945B
:1003D0005E1F0C94000081E0089581E008950E9462
:1003E000ED01089508950E94F2010895A5E0B0E09E
:1003F000ECEFF1E00C94CA1E49835A8330918F01CF
:1004000089819A81311119C0662399F0222389F0DC
:100410000E947D07182F682F89819A810E945907B1
:1004200069817A81812F0E94FC0D2596E3E00C946E
:10043000E61E0E946B07182FF3CF0E947D0769818B
:100440007A81F1CFFC01262F408151816281738135
:1004500084810E94F601089581E00895CF93DF938F
:10046000EC0160E00E942202BE010E94F301DF91D4
:10047000CF9108950E943F0F08950E94430F089561
:1004800008950E9424060E9440022FEF84E39CE01E
:10049000215080409040E1F700C0000008950E9484
:1004A00041020E94A21708950E9441020E94C617AD
:1004B00008950F931F93CF93DF938C0161E00E9407
:1004C0002202EC01B8010E94EF01811106C080E018
:1004D000DF91CF911F910F910895B801CE010E9435
:1004E00028158823A1F3B801CE010E942C1388237C
:1004F00071F3B801CE010E949A14882341F3F801E8
:100500008281882361F0CB35FDE5DF0701F158F4E6
:10051000C115ECE5DE0791F0CF3DDC4591F0C80157
:100520000E94EB01D5CFCD358DE5D80769F090F06D
:10053000C83ADD45A1F70E945402C9CF0E944F027C
:10054000C6CF0E94370CF7CF0E94750BE8CF0E94F0
:100550007F0BE5CF0E94830BE2CF0E94D3160E944F
:10056000CA0208950E94CE020E94D81608950895E6
:100570000E94B702089581E008950E94BB02089589
:100580000895CF93C82F0E94B8028C2F0E94BD02FD
:10059000CF91089580E00E94C10208950E948415C1
:1005A0000E94C1020895CF930E948415C82F8091A4
:1005B0008A018C1779F0C0938A010E9463176093B7
:1005C0008B0170938C0180938D0190938E018C2F01
:1005D0000E94C102CF910895ABE0B0E0E2EFF2E0FB
:1005E0000C94CB1E4F83588769877A878B8761115C
:1005F0000E94C00A1E821D8285E0FE013796DE0140
:10060000119601900D928A95E1F78C819D81892B3D
:1006100061F449815A816B817C818D819E810E9428
:10062000E9092B96E2E00C94E71E89819A818923DF
:100630008F3F79F3CE0101960E942C028111E9CF00
:10064000F0CFFC01808191810E94AF070895CF9384
:10065000C82F8823B9F08CEF8C0F813AA8F46C2F47
:1006600080910001909101010E94F915882329F0E1
:100670008C2F0E94800A0E94E10A8C2F0E94780A27
:100680000E94E10ACF91089580E28C0F883048F4EF
:10069000C77081E001C0880FCA95EAF70E94A30ADB
:1006A000EFCFEBE5EC0FE33040F4F0E0EB5BFE4F17
:1006B000808190E00E94B915E5CFE8E5EC0FE731C5
:1006C00050F4F0E0EE0FFF1FE95EFE4F8081918154
:1006D0000E94CF15D7CFCD3EA8F28C2F0E941F11BC
:1006E0000E94F211CFCF882379F19CEF980F913AB5
:1006F00028F40E94800A0E94E10A089590E2980F6F
:10070000983050F4877091E001C0990F8A95EAF70C
:10071000892F0E94A90AEFCF9BE5980F933028F408
:1007200090E080E00E94B915089598E5980F973100
:1007300028F490E080E00E94CF1508958D3E20F0CF
:100740000E9479110E94F21108951F93CF93DF93B5
:10075000182FEB010E942703209739F4812F0E9464
:100760007303DF91CF911F9108958FE99FE0019767
:10077000F1F700C000002197EFCF70E060E089330F
:1007800011F460E570E00E94A5030895882321F02C
:100790000E94A30A0E94E10A0895882321F00E9482
:1007A000A90A0E94E10A0895B0E0A0E0EAEDF3E0B2
:1007B0000C94C41E6C01D62FC72FFC011281F5804A
:1007C000F2949FE0F9220E94990AE82E8823B9F05A
:1007D000E12E1123A1F08C2F807F803421F080E264
:1007E0008D0F8830D0F08091790282FF16C082E0B0
:1007F0000E94440B0E94990A91E0E82EE926BC2E43
:10080000B2948FE0B822FBE0FB1508F468C0EB2D32
:10081000F0E0E05AF04E0C94B51EE12CF0CF0C2F16
:100820000F70C07F11F00295007F112399F0002313
:1008300059F080E28D0F883010F0D11107C0802F61
:100840000E94A30A0E94E10A8D2F41C0802F0E94BE
:10085000B30AF8CF8D2F0E947303002309F43FC021
:1008600080E28D0F883010F0D11104C0802F0E94DB
:10087000A90A03C0802F0E94B90A0E94E10A2FC072
:100880000C2F0F70C07FC03211F00295007FDD2366
:1008900081F0D13009F463C0112309F46DC0FF2049
:1008A00009F463C0F601858180FFCECF8F70858308
:1008B0005CC08091790282FD33C0112359F000237E
:1008C00029F0802F0E94A30A0E94E10A80E00E9482
:1008D000270305C080E00E9473030111C7CFEB2DF1
:1008E000E850FF0B349720F40E9484150E94C10247
:1008F000EE2089F00E94950A80FD0DC0F60112825B
:100900000E948F0A0E94B706C6010E94E4050E9459
:100910008F0A0E94C706CDB7DEB7E9E00C94E01E4F
:10092000112389F0F11006C00E94C30A802B0E9497
:10093000C603D5CF21E0F212F7CF0E94C30A802B65
:100940000E94CA0ACCCFF11006C00E94D70A802F9D
:100950000E94CD03C4CF31E0F31609F2F6CF112384
:1009600031F085E08F1508F4BACF802FE0CF94E006
:100970009F1508F4B4CFEBCFFF2049F3D93349F4E6
:10098000FFEF27EE33E0F15020403040E1F700C0A8
:1009900000008D2F0E947303A2CF8C2F8695869521
:1009A000837069F0813009F09ACF8D2F9C2F93705E
:1009B000111102C090E080E00E94CF1590CF8D2FE2
:1009C0009C2F9370111102C090E080E00E94B91535
:1009D00086CF8D2F112329F00E941F110E94F21142
:1009E0007ECF0E947911FACF8C2F8370A1F511115F
:1009F00076CF4D2F429546954770440F440F2D2FCB
:100A00002F7030E0042E02C0220F331F0A94E2F749
:100A100090E080E0D4FF09C08FE090E002C0880F32
:100A2000991F4A95E2F780959095C695C695C37033
:100A3000822B932BC23049F058F4C13019F00E9438
:100A400085064DCF0E947C064ACF0E948E0647CF76
:100A50000E94790644CF8695112311F08C2F817066
:100A6000882309F43CCF4D2F429546954770440F9B
:100A7000440F2D2F2F7030E0042E02C0220F331FA1
:100A80000A94E2F790E080E0D4FF09C08FE090E0A4
:100A900002C0880F991F4A95E2F780959095C695F8
:100AA000C695C370822B932BC23049F058F4C130E5
:100AB00019F00E94F20613CF0E94E90610CF0E949F
:100AC000FB060DCF0E949D060ACFCF70112329F09F
:100AD0008C2F0E94B7068D2F2ACF8D2F0E94CD0319
:100AE0008C2F0E94C706FBCED23F51F160F4D03F5D
:100AF000B9F0D13F81F0112309F449C0F110A4CE1F
:100B00008C2F8F7121C0D33F11F1D43FA1F7809179
:100B1000790282FD26C08C2F8F71112311F314C02E
:100B2000112349F084E08F1508F4D9CE8C2F8F71F2
:100B30000E94D906D4CE95E09F1508F4D0CEF6CF0A
:100B40008C2F8F711111CDCF0E94B706C8CE112303
:100B500029F08C2F8F710E94AB06C1CE0E94A60691
:100B6000BECE112349F0CF718C2F0E94B70663E0EF
:100B70008C2F0E94260BB3CE81E00E94440BE1E053
:100B8000EF1508F0ACCE82E00E94440BA8CEF11025
:100B9000F5CE8C2F8F71A5CF0F931F93CF93DF933B
:100BA000EC01688179818A810E94BA078C010E94D8
:100BB00004070E947806B801CE010E94D403DF9199
:100BC000CF911F910F910895CF93DF93EC018B810B
:100BD0009C81892B29F08881998189238F3F51F449
:100BE000DF91CF910895CE010E94CC05CE010E94E5
:100BF0002E02F6CFCE010E9459028111F4CF0E943D
:100C0000990A882369F38A81882351F380917902B4
:100C100082FFE6CF82E00E94440BE2CF90E080E0CA
:100C20000E94B91590E080E00E94CF150E94C00A92
:100C30000E94E10A0E940E120E94F21108950E9481
:100C4000880A0E940E0608950E94B00A0E941F069C
:100C5000089592959F70963091F058F4925F9F702E
:100C6000923058F4803F19F030F4883E30F481E03F
:100C700008959A5FF4CF843FD1F380E00895883ED1
:100C8000B0F3813FD1F7F3CFFC0183819481892BAD
:100C900029F08081918189238F3F11F480E00895AC
:100CA000808191810E94AF070E9429060895A5E0E6
:100CB000B0E0EDE5F6E00C94CB1E2596E2E00C9456
:100CC000E71EA6E0B0E0E7E6F6E00C94CB1E269621
:100CD000E2E00C94E71E08950E946B0608950E94BE
:100CE0006C069093A7018093A6010E940E060895BA
:100CF00008950E946F0608952091A6013091A701E2
:100D0000822B932B0E946F0608952091A6013091AB
:100D1000A701822393230E946F0608952091A601C4
:100D20003091A701822793270E946F0608950E94A1
:100D30006B0608950E94970608950E949A06909364
:100D4000A5018093A4010E940E06089590E080E022
:100D50000E949D06089521E030E0A90102C0440FE1
:100D6000551F8A95E2F7CA010E949D06089521E069
:100D700030E002C0220F331F8A95E2F78091A40170
:100D80009091A501822B932B0E949D06089521E04E
:100D900030E002C0220F331F8A95E2F7209530958C
:100DA0008091A4019091A501822393230E949D0626
:100DB000089521E030E002C0220F331F8A95E2F748
:100DC0008091A4019091A501822793270E949D06FE
:100DD00008952091A4013091A501822B932B0E94AC
:100DE0009D0608952091A4013091A50182239323AB
:100DF0000E949D0608952091A4013091A5018227AB
:100E000093270E949D0608950895262F277091E04C
:100E100001C0990F2A95EAF723E0769567952A9500
:100E2000E1F7660F771F660F771FFA01E60FF71FCE
:100E300050E040E0682F70E08191DF0111979B0145
:100E4000042E02C0369527950A94E2F72170219569
:100E50002827292328272C934F5F5F4F44305105C3
:100E600059F70895A82FA77023E0969587952A959E
:100E7000E1F7880F991F880F991FFB01E80FF91FF1
:100E800050E040E080E0219130E00A2E02C036952B
:100E900027950A94E2F721703327042E01C0220F10
:100EA0000A94EAF7822B4F5F5F4F4430510559F7A0
:100EB0000895262F943070F48A3060F4682F70E023
:100EC0008AE0989F600D711D112440E951E0822F46
:100ED0000E9405070895292F943068F48A3058F449
:100EE00090E060E971E03AE0239F800D911D1124AC
:100EF0000E943207089580E00895B0E0A0E0E3E8A2
:100F0000F7E00C94C41E7C010091A4011091A5018E
:100F10008091A6019091A701082B192BCFE0D0E07A
:100F2000CC24C394D12CBC2EC6010C2E02C0880F39
:100F3000991F0A94E2F780239123892B49F4219782
:100F400090F7B12C8B2DCDB7DEB7E9E00C94E01E05
:100F5000B7018C2F0E94170E019789F3F3CFCF931F
:100F6000DF93EC010E947D07BE010E94170EDF9106
:100F7000CF9108951F93CF93DF93EB0190918F0151
:100F8000992339F0CB010E94AF07DF91CF911F91D8
:100F90000895882369F0CB010E947D07182F682FE0
:100FA000CE010E945907BE01812F0E94170EEDCF7E
:100FB000CB010E946B07182FF6CF1F93CF93DF93BF
:100FC000C091A80116E08091A9018C1304C0DF91A3
:100FD000CF911F910895D0E01C9FF0011D9FF00D4F
:100FE0001124E655FE4F40815181628173818481D5
:100FF00095810E9461062196C770E5CF4091DA0184
:101000005091DB016091DC017091DD018091DE0186
:101010009091DF010E94610608951F93CF93DF93A3
:101020008091DF01807F09F049C08091DC01882335
:1010300009F444C08091A801C091A9016091DA012E
:101040007091DB01A091DD01B091DE01D62FD72395
:1010500016E0C81799F190E0109711F0DF3F19F4EE
:1010600001968770F6CF189F9001199F300D1124BB
:10107000F901E655FE4F41814713F2CF40814613F7
:10108000EFCF42814111ECCF438154814A1B5B0B6E
:10109000483C510528F78091DF018F708061809373
:1010A000DF01F901E155FE4F80818F7080618083FF
:1010B0008AED91E00E94E4050E94DD07DF91CF9167
:1010C0001F910895A1E1B0E0E8E6F8E00C94C31E9A
:1010D0008C0185E0F801DE011D9601900D928A9544
:1010E000E1F7F801E2808AEDC82E81E0D82E609108
:1010F000DD017091DE016115710509F44EC1909119
:10110000DA012091DB01892F82238F3F09F445C149
:1011100040815181A380B480F090DC01F501E61B91
:10112000F70BFF2009F4EAC08091DF01382F307FF0
:10113000E83CF10508F0A3C031116DC0FE2C251369
:1011400016C0941314C0E11012C08F708061809398
:10115000DF010E94FE07C6010E94E4058091DF01C5
:10116000F80185838F2D6196EAE00C94DF1EA114AF
:10117000B10429F0842F85238F3F09F027C180E037
:10118000F82FF170DF2E80FF3CC08091A8012091E4
:10119000A90136E0821315C04D875E878D859E8537
:1011A0000E94AF07292F22952F702230F0F02430B3
:1011B00018F59F70F1F0F8019581907FD1F4D12C52
:1011C0001EC090E0389FF001399FF00D1124E655C4
:1011D000FE4F6181651306C06081641303C06281A4
:1011E000E6120FC001968770D5CF9F7011F088234B
:1011F00031F3805E883018F3C8010E94E405FD2CAD
:10120000B1CFEE2009F4AECF8091DF0181608093F1
:10121000DF01F12CA7CF251306C0941304C0F801F9
:10122000EE2009F487C0C8010E944406882319F102
:10123000EE2009F18091DF01803270F02091DA0117
:101240003091DB0138872F831986BB86AA868C876D
:10125000CE0107960E94E40586E0F801AAEDB1E010
:1012600001900D928A95E1F70E940D080E94FE07F9
:10127000FF24F39477CFC8010E94E405F9CF311120
:1012800013C07A2DB98AA88A6E2D89890E945706C3
:101290008AED91E00E94E40586E0F60111928A95BC
:1012A000E9F70E94FE07B5CF25130FC094130DC0B8
:1012B000E1100BC0F8018583C8010E94E40586E0B7
:1012C000F60111928A95E9F74DCFC8010E944406B4
:1012D000882389F2EE2079F28091DF01803208F4D0
:1012E000BBCF2091DA013091DB013A8329831B8245
:1012F000BD82AC828E83CE010196ACCFE83CF10575
:1013000008F03EC0FE2CEE2009F4B5CF25132AC00C
:10131000941328C08091DF0180FD1BC0982F907F1F
:10132000C1F0F8018583903F31F0982F907F905F56
:101330008F70892B8583C8010E94E40586E0F8013F
:10134000AAEDB1E001900D928A95E1F70E94FE07A7
:1013500009CF86E0F801AAEDB1E001900D928A95DF
:10136000E1F700CFC8010E944406811175CF80913A
:10137000DF0181608093DF01C8010E94E405F2CEA5
:101380007A2DB98AA88A6E2D89890E94570686E02F
:10139000F60111928A95E9F7D9CFEE2009F46BCFC7
:1013A000C8010E944406F82E882309F464CF86E021
:1013B000F801AAEDB1E001900D928A95E1F78AED6E
:1013C00091E00E9421030E940D08C0CF81E08E258C
:1013D000D7CEACE0B0E0EFEEF9E00C94CA1E4F833C
:1013E000588769877A878B879C87CE0107960E94EA
:1013F0006208882369F08A859B85892B39F04F81A3
:101400005885842F85238F3F09F06BC016E05FC09D
:1014100086E0FE013796DE01119601900D928A95C5
:10142000E1F78A859B85892B89F38F8198858923AC
:101430008F3F61F32091A90130E0C90101968770C7
:1014400099274091A8014817190671F40E942406B3
:101450001092A9011092A80186E0EAEDF1E0DF0107
:101460001D928A95E9F7D2CF96E0929FD001939F83
:10147000B00D1124A655BE4FFE01319601900D927C
:101480009A95E1F78093A9010E94DD07BFCF819F64
:10149000C001112486559E4F0E9462088823E9F0FE
:1014A000E091A8011E9FF0011124E655FE4F4081F6
:1014B000518162817381848195810E94610680914E
:1014C000A80190E00196877099278093A8018091E8
:1014D000A8019091A9018913DACF2C96E3E00C942E
:1014E000E61E69857A858B859C850E9461068ECF74
:1014F000682F80910001909101010E947916089552
:10150000682F80910001909101010E948716089533
:1015100080910001909101010E949516089580919B
:1015200000028595859585950895809100028770C4
:10153000089590910002977081E009F480E0089589
:1015400080912302089590912302892B8093230296
:1015500008958095909123029823909323020895F3
:1015600010922302089590912202892B80932202E7
:1015700008958095909122029823909322020895D5
:1015800010922202089580910102089508950E9408
:10159000C60A08959091790292FF08C090910102C5
:1015A000981721F0809301020E94C70A0895809144
:1015B0000102882329F01092010280E00E94C70AEC
:1015C0000895CF93DF93E0910001F09101018091A4
:1015D00023028083E0910001F091010180819091CC
:1015E0002202892B808390910102992381F0E0915E
:1015F0000001F09101018081892B8083809100019D
:10160000909101010E94E51581110E94D70AC091B5
:101610000001D091010140E250E060EE71E0CE01A6
:101620000E94061F892B59F080E2FE01A0EEB1E076
:1016300001900D928A95E1F7CE010E949115DF91FC
:10164000CF91089508950E94220B089590917902F8
:1016500092FF11C098E0899F90011124622B609342
:1016600000020E94B70680910002859585958595B8
:101670000E94230B08950E94B7060895109200025D
:1016800080E00E94230B08959091000280958923A9
:1016900080930002282F277091F4282F082E000C29
:1016A000330B9217130659F09091790292FF07C0FD
:1016B0008595859585950E94C7060E943E0B0895E5
:1016C0009091790292FB222720F9281769F080FB7C
:1016D00092F99093790280917802909179020E9418
:1016E000B10B82E00E94440B08958091790282FB45
:1016F000882780F991E089270E94600B089581E096
:101700000E94600B089580E00E94600B08956FEFC7
:101710007FEF90E080E00E94481F089590E080E015
:101720000E94241F21E0883E9E4F09F020E0822F76
:10173000089582E090E00E941C1F089583E090E0ED
:101740000E941C1F0895CF9384E090E00E941C1F0C
:10175000C82F82E290E00E941C1F982F8C2FCF91FF
:101760000895CF93C92F682F84E090E00E942A1F2C
:101770006C2F82E290E00E942A1FCF910895AB0166
:10178000BC018FE090E00E943C1F0895AB01BC01BA
:1017900083E190E00E943C1F089560E070E0CB017F
:1017A0000E94C60B089560E070E0CB010E94BF0B61
:1017B0000E94CD0B089568EE7EEF90E080E00E94DD
:1017C000481F60E082E090E00E942A1F60E083E012
:1017D00090E00E942A1F1092A7011092A60160E0DB
:1017E00084E090E00E942A1F64E082E290E00E9480
:1017F0002A1F60E085E090E00E942A1F60E086E0FA
:1018000090E00E942A1F6FEF87E090E00E942A1F5D
:1018100040E050E0BA0188E090E00E943C1F60E0A8
:101820008DE090E00E942A1F40E050E0BA0188E17C
:1018300090E00E943C1F60E087E190E00E942A1F38
:1018400040E050E0BA018CE190E00E943C1F70E063
:1018500060E080E290E00E94481F40E050E0BA0162
:1018600088E190E00E943C1F0E94D30B08950E94E3
:10187000DB0B0895682F8EE090E00E942A1F0895E8
:101880000E94631760933202709333028093340294
:101890009093350260932E0270932F028093300252
:1018A000909331020895089508950E94540C08956C
:1018B00008950E94580C089581E09FE00E947A15D7
:1018C0000E94530C0E94550C089581E008950E94D7
:1018D000650C0895089508950E946A0C0E946B0C8F
:1018E00008950E94200F0E94C00208950E944E1782
:1018F0000E94FC0F0E94710C0E94590C0895AAE0EE
:10190000B0E0E5E8FCE00C94C01E0E94121026E254
:10191000822E22E0922E640110E0F601E190F19017
:101920006F01812F0E94460F1F5F143009F449C0D8
:10193000E816F90691F38091360281FD0E944F0F5F
:101940000E94670C782E10E0812F0E94460F7C01C8
:10195000F401A190B1904F018A159B0561F1A82671
:10196000BF2400E0CC24C394D12CC5018C219D213F
:10197000892BC1F07720B1F00E831F8321E0C701CE
:101980008C219D21892B09F420E028870E9457177C
:101990008160782F9A8789874E815F8168858A85E3
:1019A0000E94EC020F5FCC0CDD1C0A30F1F6F40152
:1019B0003297F182E0821F5F143031F60E94400CB2
:1019C00022C0E816F90609F0B6CF0E9457178C011D
:1019D000809124029091250208171907A1F08FEF3A
:1019E00089838A831B820E9457178160782F9D8389
:1019F0008C8349815A816B818D810E94EC02109306
:101A00002502009324020E9430120E94D3022A96DB
:101A1000EDE00C94DC1ECF93DF930E941C0EEC01D2
:101A2000811521E5920708F042C0811530E5930742
:101A300008F09FC0883E910530F5803E910508F082
:101A400094C0883A910588F4853A910508F086C0DB
:101A50008130910509F489C0009709F486C0049784
:101A600008F083C0D0E0C0E080C08F3B9105D0F784
:101A7000C85AD0E0CC0FDD1FC85BDE4F0990D8817B
:101A8000C02DD46472C0811540E2940750F4C11592
:101A900081E0D80708F069C0CD3ED10518F3D065C4
:101AA00064C081159044F0F2DF70D06A5EC0811589
:101AB00035E5930718F5811544E5940708F085C0CE
:101AC000C11583E5D80708F06CC0C11522E5D2071F
:101AD00008F462C0CE018370992721E030E002C093
:101AE000220F331F8A95E2F7C695C69580E2C89FFC
:101AF000E0011124C22BD32BDC6837C0811539E5F6
:101B00009307A8F4811548E5940708F063C0C11550
:101B100086E5D80708F0A6CF8C2F0E94BE0EC82FEE
:101B2000D0E0DC2FCC27CC27DF71D0621EC081151E
:101B30002AE5920708F453C090568115904208F0A8
:101B400091CF8D2F8F710E94BE0E90E0982F882725
:101B500088279F719C012C2BE901E7CFC55AD0E063
:101B6000CA58DE4FC881D0E0D064CE01DF91CF915A
:101B700008958370992721E030E002C0220F331FBF
:101B80008A95E2F7C695C69540E2C49FE00111240C
:101B9000C22BD32BDD68E9CFDC2FCC27C16FD06AF5
:101BA000E4CFCE018370992721E030E002C0220FFC
:101BB000331F8A95E2F7C695C69540E2C49FE001BF
:101BC0001124C22BD32BDA68D0CFD82FCC27C46FE7
:101BD000D06ACBCFD82FCC27C06FD06AC6CF8F703A
:101BE0000E94BE0E34E0D695C7953A95E1F7CF70C6
:101BF0009C2FEC01D069B9CF972F7430A8F46A30CC
:101C000098F470E02AE0929F600D711D1124FB0191
:101C100098E2899FE00DF11D1124EE0FFF1FE4559E
:101C2000FF4F85919491089580E090E008950E947F
:101C3000FC0D0E940B0D089582389105B9F1B0F4A6
:101C40008133910509F47DC048F48932910509F486
:101C50006DC08A32910509F47BC0089585339105E2
:101C600009F45FC08933910509F10895833E910518
:101C7000D9F138F4803E910529F1823E910579F140
:101C80000895863E9105D9F1873E910509F43EC03D
:101C9000843E910541F52091790221FF24C0809175
:101CA000780284FD19C087EE90E0089520917802B3
:101CB000237009F05AC02091790223FF14C089E2F1
:101CC00090E008952091780220FD38C0309179028B
:101CD00030FF09C024FF43C090E080E008952091C8
:101CE000780222FDF7CF08952091780222FD3AC0B4
:101CF0003091790230FD39C024FFF5CFEDCF20912E
:101D0000780223FFF0CF24FDE7CFCDCF20917802DA
:101D100023FD2EC03091790231FFEECF84EE90E0AA
:101D200008952091780225FFDECFC9CF2091780257
:101D300025FD21C02091790223FFD5CF89E390E0D2
:101D4000D2CF2091780226FFCECF8AE290E008958C
:101D50002091780226FFC7CF81E390E0089583EEBB
:101D600090E0089582EE90E0089580EE90E008956E
:101D700086EE90E0089585E390E0089590917802D2
:101D800092FF06C0282F28712830F9F4877F8460DD
:101D900093FF06C0282F28712831F1F4877E8461D3
:101DA0002091790220FF06C0382F38713830D9F4DD
:101DB000877F816021FF06C0282F28712831D1F448
:101DC000877E816194FD877E0895282F24712430B9
:101DD000F9F68B7F8860DCCF282F2471243101F73E
:101DE0008B7E8861DDCF382F3171313019F78E7FCE
:101DF0008860E0CF282F2171213121F78E7E886104
:101E0000E1CF80E008950E94870B08950E94121090
:101E10002FEF86E791E0215080409040E1F700C02D
:101E200000000E94121080E00E94460F80FF04C054
:101E30000E94030F0E94A21708950E94060F0895A2
:101E40000E948E0B811102C00E94370C0E94990BD8
:101E5000809336020E94A30B9093790280937802BC
:101E60000E941D0F0E949E0B90E00E9479068091B7
:101E7000A4019091A5010E949A06089508950E94D8
:101E80003E0F089508950E94420F0895E82FF0E054
:101E9000EE0FFF1FEE57FD4F808191810895089549
:101EA00080EA8A95F1F7089500C008950E94500FC6
:101EB0000895F894E82FE295EF70F0E031A1282F13
:101EC0002F7081E090E001C0880F2A95EAF7982FE3
:101ED0009095932391A392A1892B82A3789408953E
:101EE000CF93DF9380EF0E94590F81EF0E94590F2B
:101EF00084EF0E94590F85EF0E94590FC9E7D1E086
:101F000089918F3F11F00E94590F81E0C338D807A3
:101F1000B9F7DF91CF910895AF92BF92DF92EF9220
:101F2000FF920F931F93CF93DF938C01D62EC62F72
:101F3000D0E0CE018D579E4F7C01FC0120812F3FC8
:101F400009F44DC0F894E22FE295EF70F0E031A172
:101F50002F7081E090E001C0880F2A95EAF7932F57
:101F6000982B91A392A18095892382A378940E94B3
:101F7000540FE9E7F1E043E851E021E030E0B12C13
:101F8000A12C61916F3FA9F1A62FA295AF70B0E08F
:101F900090968C9190E06F7002C0959587956A95A8
:101FA000E2F780FD26C0C901A82AB92A220F331FF3
:101FB0004E175F0731F7F70180818F3F11F00E94C4
:101FC000590F61E0A114B10409F460E08D2D0E9465
:101FD000560FCC0FDD1FC00FD11FB982A882DF9131
:101FE000CF911F910F91FF90EF90DF90BF90AF9036
:101FF000089590E080E0D8CF0E94700F88E0E2E87A
:10200000F2E0DF01982F1D929A95E9F7EAE7F2E0F6
:10201000DF011D928A95E9F784E00E944D100E942D
:102020003A020895A8E0B0E0E8E1F0E10C94C81E9F
:102030008E010F5F1F4F88E0F80111928A95E9F732
:10204000F12C6F2DC8010E948C0FF394F4E0FF1265
:10205000F8CF48E050E0B8018AE792E00E94061FFE
:1020600021E0009709F420E0892B41F088E0F80195
:10207000AAE7B2E001900D928A95E1F744E062E8A8
:1020800072E08AE792E00E944E10182F0E943D02F3
:10209000812F2896E5E00C94E41E0895CF92DF92FC
:1020A000EF92FF921F93CF93DF936C017B01C42FBC
:1020B000222349F081E0809339020E9457179093C0
:1020C0003802809337021091390211110AC010E0D2
:1020D000812FDF91CF911F91FF90EF90DF90CF90F4
:1020E000089580913702909138020E946F170597EA
:1020F00070F3D0E0CC0FDD1FAE01B601C7010E9426
:10210000061F892B41F0AE01B601C7010E94131FC3
:1021100010923902DDCF10E0FBCF0E947C190E94A3
:10212000760C0E94891908950E948E190E947F0CD6
:102130000E94A81908950E94F0160E9462190E9438
:102140005C0C0E948D100E9494100E946C0CFBCFBE
:102150008091400280FF0DC06091070170E0660F22
:10216000771F6038710570F56115710569F1862F6B
:10217000089581FF07C06091070184E0689FB00166
:102180001124EFCF6091070182FD0AC080913F02C8
:102190008823A9F02091060160910701821710F0B1
:1021A00088E0ECCF869FC001112433E0880F991F8F
:1021B0003A95E1F7622F70E00E94A11ED2CF68E04D
:1021C00070E0D5CF8FE7089581E0089580914002B7
:1021D00080FF0CC06091030170E07595679575955F
:1021E00067956115710549F1862F089581FF06C035
:1021F0006091030170E075956795F3CF60910301DD
:1022000082FD0BC090913E029923A1F060910201E2
:1022100080910301961738F0682F70E060387105DF
:1022200000F38FE70895899FC001112470E00E9498
:10223000A11EF4CF61E070E0D7CF81E008958D3E1C
:1022400031F40E94A81081958093440208958E3E37
:1022500019F40E94A810F8CF8F3E31F40E94A81004
:102260008195809343020895803F19F40E94A8103D
:10227000F8CF893F29F40E94E61080934502089523
:102280008A3F21F40E94E6108195F7CF8B3F31F40D
:102290000E94E61081958093460208958C3F19F4C0
:1022A0000E94E610F8CF9FE0980F983070F4815F9D
:1022B000990B21E030E001C0220F8A95EAF7809166
:1022C0004202822B8093420208958D3F31F4809127
:1022D000400281608093400208958E3F21F48091F6
:1022E00040028260F7CF8F3FB9F78091400284604F
:1022F000F1CF409143028D3E59F48091440287FF13
:102300000DC01092440241110BC010923F0208C050
:102310008E3E81F48091440218169CF3442381F090
:102320008091450290914602892B09F05AC0109283
:102330003E0208958F3E49F447FFF0CF10924302CA
:10234000809144028111ECCFE0CF803F19F4141644
:10235000ACF3E4CF90914502893F29F41916F4F6C5
:1023600010924502DBCF8A3F19F497FFD7CFF8CF01
:10237000909146028B3F29F497FFD0CF10924602EE
:10238000CDCF8C3F19F41916CCF3C8CF9FE0980F2E
:10239000983090F4815F990B21E030E0B90102C0E0
:1023A000660F771F8A95E2F7CB01809590914202E4
:1023B000892380934202B2CF8D3F31F48091400255
:1023C0008E7F80934002AACF8E3F21F480914002FD
:1023D0008D7FF7CF8F3F09F0A1CF809140028B7F97
:1023E000F0CF08950E9457179C019091430280916D
:1023F0004402982B21F030933D0220933C029091AF
:10240000450280914602982B21F030933B022093A5
:102410003A0281E492E00E94AB15089586E0E1E47F
:10242000F2E0DF011D928A95E9F710923F021092C7
:102430003E02109240020895FC01828181110EC07B
:10244000838181110BC08481811108C091E0858155
:10245000811101C090E0892F8170089581E0FCCF47
:10246000A6E0B0E0E6E3F2E10C94CA1E86E0E1E407
:10247000F2E0DE01119601900D928A95E1F710923B
:1024800043021092440210924502109246028B8140
:102490009C81892B89F080913C0290913D020E94A1
:1024A0006F17AC0190913F029923C9F18091080107
:1024B0008417150608F440C08D819E81892B91F008
:1024C00080913A0290913B020E946F17AC0190916B
:1024D0003E02992309F471C0809104018417150606
:1024E00008F479C0BE016F5F7F4F81E492E00E94E3
:1024F000A716811105C081E492E00E941C1281118F
:102500000E94F21186E0FE013196A1E4B2E0019052
:102510000D928A95E1F72696E3E00C94E61E209151
:1025200009018AE0289F900111242417350720F61D
:102530009F5F90933F0202C09F3FD1F71B81112301
:1025400059F00E94A8109FEF11160CF491E0899F9A
:10255000802D1124809343021C81112359F00E9485
:10256000A8109FEF11160CF491E0899F802D112483
:102570008093440230914302332309F49DCF20918C
:102580004402222309F498CF45EB3403C0011124FF
:10259000992359F09093430245EB240390011124B1
:1025A000332339F03093440287CF81E08093430294
:1025B000F3CF81E0809344027FCF209105018AE030
:1025C000289F900111242417350708F08BCF9F5FB7
:1025D00090933E0202C09F3FD1F71D81112359F015
:1025E0000E94E6109FEF11160CF491E0899F802D58
:1025F0001124809345021E81112359F00E94E61098
:102600009FEF11160CF491E0899F802D1124809387
:10261000460230914502332309F464CF20914602EB
:10262000222309F45FCF45EB3403C0011124992321
:1026300059F09093450245EB240390011124332374
:1026400039F0309346024ECF81E080934502F3CFBC
:1026500081E08093460246CFCF93DF93EC01FB01EC
:102660008281882309F464C1C430FDE5DF07E0F509
:10267000CB3F9CE5D90730F49E0122503C452431E4
:102680003105D8F50E94A30B9093790280937802CC
:10269000C231ECE5DE0709F41FC108F06EC0C93095
:1026A0008CE5D80709F4F2C008F03FC0C530ECE56E
:1026B000DE0709F4DBC058F5C3308CE5D80709F410
:1026C000CDC008F0CFC0809178028160C230DC4577
:1026D00009F4AEC080917802909179020E94B10B0A
:1026E0000E94240680E009C0C63AEDE5DE0751F2FB
:1026F00038F4C2369DE5D90729F2DF91CF910895CC
:102700009E012E5A3D4523303105B8F7BBCF80914D
:1027100078028062C730FCE5DF0709F489C008F45D
:10272000B1C080917802806483C0CD309CE5D90728
:1027300009F4BAC070F4809178028E7FCB30FCE54A
:10274000DF0709F475C008F4A7C0809178028D7F77
:102750006FC0CF309CE5D90709F4B6C008F4A8C013
:10276000C031FCE5DF0709F4B3C0C131DC4509F035
:10277000B1CF809178028F7B5BC0C1159DE5D907F1
:1027800009F4B4C098F5CB3FFCE5DF0709F472C04B
:10279000B8F4C4319CE5D90709F4B6C008F4A2C066
:1027A000C531DC4509F096CF8091780282FB9927EC
:1027B00090F921E0922790FB82F990FB83F938C0D1
:1027C000CD3F8CE5D80709F477C008F457C0CE3F59
:1027D000ECE5DE0709F474C0809179028360CF3F95
:1027E000DC4509F077CF8093790274CFC2368DE54E
:1027F000D80709F496C068F4C230EDE5DE0709F4A5
:102800008CC008F477C0C330DD4509F063CF80E0A9
:1028100085C0CE3A9DE5D907E9F068F49091780239
:10282000892F8E7F90FF8160C63ADD4509F052CF37
:10283000809378024FCFCF3A8DE5D80789F1C03B1E
:10284000DD4509F047CF90917902892F877F93FF6B
:102850008860C9CF809179028860C5CF8091780265
:102860008260E6CF809178028460E2CF8091780226
:102870008860DECF809179028160B5CF8091790246
:102880008260B1CF809178028061D2CF0E9424060D
:10289000809178028068CCCF809178028C60C8CF1C
:1028A00080917902877F9FCF809178028B7FC0CF04
:1028B00080917802877FBCCF809179028E7F93CF01
:1028C000809179028D7F8FCF809178028F7EB0CFFB
:1028D000809178028F7DACCF0E942406809178028F
:1028E0008F77A6CF80917802837FA2CF80917902E3
:1028F0008C7F79CF80917902982F909591708E7FFF
:10290000892B90FB81F96FCF0E9424069091780269
:10291000892F97FB87F980588BCF81E00E943A0C72
:10292000D9CE90917802892F8F7E94FF806180CFDD
:1029300081E0E3CECF93DF93EB0186319C4511F527
:102940000E94A00A9A81992399F08A7A91E009F469
:1029500090E090934702811109C089E20E94780AB1
:102960000E94E10A80E0DF91CF91089585E3F6CFE0
:1029700080914702811104C089E20E94800AF0CF51
:1029800085E3FBCF81E0EFCF0F931F93CF93DF93CE
:10299000C42FD22FFC0182818823C9F040934A02C0
:1029A0000E945717909349028093480280E28C0F4F
:1029B000883040F4C77081E001C0880FCA95EAF7FB
:1029C0000E94C603DF91CF911F910F91089510913E
:1029D0004A02141332C080914802909149020E9429
:1029E0006F17883C910548F5C0E2CD0F1D17B9F06F
:1029F00080E2810F883040F4177081E001C0880FB9
:102A00001A95EAF70E94CD03C83048F481E09D2F63
:102A1000977001C0880F9A95EAF70E94C603802F2D
:102A20000E94BD03C83070F6D77081E001C0880FE6
:102A3000DA95EAF70E94CD03C5CF80E28C0F88308B
:102A400008F6C77081E001C0880FCA95EAF7F2CF97
:102A50000F939C01CB01243F4CE5340759F1A8F4B6
:102A6000293DFCE53F0701F12A3D4CE53407D1F152
:102A7000283D3C4591F406E221EE41EE68ED7CE50F
:102A80000E94C41480E00F910895263FFCE53F07A3
:102A9000E9F0B0F0273F3C45F9F0FC018281882342
:102AA00039F110924A02EFCF07E225EE45EE69EDCB
:102AB0007CE5E6CF06E221EE40EE64EF7CE5E0CF78
:102AC00007E225EE44EE65EF7CE5DACF06E221EE83
:102AD00042EE66EF7CE5D4CF07E225EE46EE67EFE7
:102AE0007CE5CECF08E221E045EE6AED7CE5C8CF7B
:102AF00081E0C9CF909389018093880108959093D4
:102B0000500280934F020895E0914F02F0915002DD
:102B1000309729F00190F081E02D0995089580E02B
:102B20000895E0914F02F0915002309799F0209172
:102B30001601222359F02091780227FF07C0DC01FB
:102B40002C9111962C93119726E02C930280F381FF
:102B5000E02D09950895E0914F02F09150023097D1
:102B600039F022E0DC012C930480F581E02D0995F9
:102B7000089520914D0230914E022817390771F0C7
:102B800090934E0280934D02E0914F02F0915002DB
:102B9000309721F00680F781E02D09950895209166
:102BA0004B0230914C022817390771F090934C0278
:102BB00080934B02E0914F02F0915002309721F048
:102BC0000084F185E02D09950895FC0132968091ED
:102BD0001601882321F0809178029EE187FF96E01C
:102BE00080E0915008F4089521912223D1F38F5F62
:102BF000F8CF662301F1209116012223F1F02091F4
:102C0000780227FF1AC0462F4695469546954E31C5
:102C100090F4677021E030E002C0220F331F6A9504
:102C2000E2F7840F911DFC01828190E02823392373
:102C300081E0232B69F480E00895FC013296089628
:102C40002191261721F0E817F907D1F7F4CF81E099
:102C500008959C01FC0132969FEF80E04191461758
:102C600051F09F3F19F4411101C0982F8F5F8630BA
:102C7000A9F79F3F09F40895290F311D97FD3A9553
:102C8000F90162830895FC0132960896219126137A
:102C900003C0DF0111971C92E817F907B9F70895EF
:102CA000E62FE695E695E695EE3168F4E80FF92F04
:102CB000F11D677021E030E001C0220F6A95EAF74C
:102CC0008281822B82830895E62FE695E695E6952C
:102CD000EE3170F4E80FF92FF11D677021E030E05C
:102CE00001C0220F6A95EAF720958281282322836A
:102CF000089520911601222339F02091780227FFB0
:102D000003C00E94501608950E942916089520912C
:102D10001601222339F02091780227FF03C00E9478
:102D2000641608950E9443160895FC01329680911E
:102D30001601882351F08091780287FF06C08EE14A
:102D4000DF011D928A95E9F7089586E0F9CF46E004
:102D500050E00E94061F21E0892B09F420E0822F19
:102D6000089508950E94B1160895811106C081E06A
:102D7000809351020E94B216089582E0F9CF83E059
:102D8000809351020E94B21608950E94B5160895CC
:102D900081E0809351020E94B21608950E94C816E5
:102DA0000895089508950E94D216089508950895EB
:102DB0000E94D1160895CF930E94D6160E94121039
:102DC0000E94D716C0E08C2F0E94460F892B31F449
:102DD000CF5FC430C1F780E0CF91089581E0FCCF90
:102DE00085B7806885BF85B7806885BF08951F92C5
:102DF0001FB61F9211248F939F93AF93BF9380911F
:102E00005202811113C080918A0290918B02A0918D
:102E10008C02B0918D024196A11DB11D80938A0252
:102E200090938B02A0938C02B0938D02BF91AF91CF
:102E30009F918F911F901FBE1F90189580919202B5
:102E4000843031F10E94AD021092520288E190E08C
:102E500020E40FB6F894A895809360000FBE2093ED
:102E6000600083B7817F846083BF83B7816083BF45
:102E70007894889583B78E7F83BF0FB6F894A89512
:102E800080916000886180936000109260000FBEA6
:102E900008950E9424060E94B202089582E084BD33
:102EA00093E095BD9AEF97BD80936E0008952FB77C
:102EB000F89480918A0290918B02A0918C02B0913B
:102EC0008D022FBF08952FB7F89460918A027091F8
:102ED0008B0280918C0290918D022FBF08959C01EE
:102EE0004FB7F89480918A0290918B02A0918C0246
:102EF000B0918D024FBF821B930B089578941F925F
:102F00001FB61F9211248F939F93AF93BF9380910D
:102F10008A0290918B02A0918C02B0918D02019651
:102F2000A11DB11D80938A0290938B02A0938C0205
:102F3000B0938D02BF91AF919F918F911F901FBE53
:102F40001F90189581E08093E00080E28093D80084
:102F50001092C9008FE19EE40197F1F700C00000D4
:102F600087E090EBDC0180939B0290939C02A093FE
:102F70009D02B0939E0288E19CE00FB6F894A8955C
:102F8000809360000FBE90936000FFCF88E19CE0CB
:102F90000FB6F894A895809360000FBE90936000E0
:102FA000FFCF80917602089508959C0182E080937E
:102FB000E9009FEF8091E800915085FD06C085ED06
:102FC0008A95F1F700009111F5CF8091E80085FF17
:102FD0000CC050E040E066E070E0C9010E941A1A9F
:102FE0008091E8008E778093E8000895CF93DF9377
:102FF000EC01809116018823B1F18091780287FF5E
:1030000032C060E282E08093E9008FEF9091E800A7
:10301000815095FD06C095ED9A95F1F7000081115C
:10302000F5CF8091E80085FF1BC08091160170E00C
:1030300050E040E0811104C050E040E068E070E002
:10304000CE010E941A1A8091E8008E778093E800E2
:1030500080E2FE01A6E5B2E001900D928A95E1F7CB
:10306000DF91CF91089568E081E0CDCF8093530246
:10307000709355026093540280919202843001F55E
:1030800082E08093E9008FEF9091E800815095FDF8
:1030900006C095ED9A95F1F700008111F5CF80916A
:1030A000E80085FF0DC050E040E063E070E083E59C
:1030B00092E00E941A1A8091E8008E778093E800CF
:1030C0000895BC0184E00E9436180895BC0183E095
:1030D0000E943618089580919102811109C00E94C2
:1030E000AA1B0E94071C8091E20084608093E2008A
:1030F00008951092910208950E94C8160895609153
:103100008E0281E0611101C080E00E94BF16089527
:103110009091920281E0943009F080E060918E02FB
:103120000E94C516089542E061EC81E00E94261BD2
:1031300042E261EC82E00E94261B9091920281E0C3
:10314000943009F080E060918E020E94B5160895D7
:1031500080919402833009F461C030F48130D1F160
:10316000823009F49EC008958A3009F48AC08B30F9
:1031700009F46FC0893009F050C080919302813208
:1031800009F04BC08091970290919802029708F045
:1031900044C08091E800877F8093E8008091E80038
:1031A00082FF37C09091F3008091F200029731F4D2
:1031B0008091F100813011F0863021F48091F1008E
:1031C000809376028091E8008B778093E8000E94DC
:1031D0005A1B23C080919302813AF9F48091E80050
:1031E000877F8093E8008091970290919802892BC5
:1031F00061F460E286E592E070E00E94691A8091D5
:10320000E8008B778093E800089560E090E080E02C
:10321000F3CF809192028111C1CF089580919302E2
:10322000813AD9F78091970290919802892BA9F75A
:103230008091E800877F8093E8008091E80080FF1C
:10324000FCCF809116018093F1008091E8008E7789
:10325000BCCF80919302813201F7809197029091C7
:103260009802892BD1F68091E800877F8093E8004F
:103270000E945A1B80919502809316010E94240699
:10328000089580919302813241F68091E800877F12
:103290008093E8000E945A1B8091960280937702E7
:1032A000089580919302813A09F0B7CF8091E800A8
:1032B000877F8093E8008091E80080FFFCCF8091B9
:1032C0007702C1CF84B7877F84BF0FB6F894A895E3
:1032D00080916000886180936000109260000FBE52
:1032E00080E890E00FB6F8948093610090936100BD
:1032F0000FBE0E94CE1608950E94AA1B0E94071CB2
:10330000E2EEF0E080818460808378940E94861EE3
:1033100008958AE091E00E947F15089580919202BD
:10332000853031F480919202853019F00E9449175E
:1033300008950E941E1780919002882399F30E949D
:10334000DB16882379F30E94041A0E942406EACF30
:1033500008950E94AC190895292F33272330310591
:1033600019F168F42130310509F444C022303105E7
:1033700009F445C090E080E030E020E025C0213233
:10338000310549F122323105A9F780E490E021E2CC
:1033900033E061157105C1F086EB90E02BE632E079
:1033A0006130710589F0E6CF99278130910581F070
:1033B000009729F00297F1F6ECEEF1E002C0EAE1A5
:1033C000F2E0849190E09F01FA0131832083089517
:1033D000E6E0F2E0F6CF89E090E020E332E061152C
:1033E000710591F389E090E029E432E061307105E4
:1033F00059F3C0CF82E190E029E532E0E5CF8BE3DD
:1034000090E02EE132E0E0CF80E189BD82E189BD2C
:1034100009B400FEFDCF8091D8008F7D8093D80045
:103420008091E00082608093E0008091E00081FD67
:10343000FCCF0895AF92BF92CF92DF92FF920F938D
:103440001F93CF93DF936C01EB018A010E94791BDC
:10345000F82E811123C00115110539F0F801808182
:103460009181C81BD90BC80ED91EB12CA12C209755
:10347000A9F08091E80085FD22C08091E8008E7758
:103480008093E80001151105A1F0F8018081918178
:10349000A80EB91EB182A08285E0F82E8F2DDF9193
:1034A000CF911F910F91FF90DF90CF90BF90AF9081
:1034B00008950E94791B8823D1F2F82EEFCFF601F0
:1034C00081916F018093F1002197FFEFAF1ABF0A3E
:1034D000CECFFC018091990290919A0286179707AE
:1034E000A0F06115710529F49091E8009E77909302
:1034F000E80090E06115710551F4911108C08091C8
:10350000E80082FF34C080E00895BC01F2CF8091D2
:1035100092028823C1F18530C1F18091E80083FDDA
:1035200030C08091E80082FDEACF8091E80080FF02
:10353000E1CF8091F3002091F200382F61157105E1
:1035400019F02830310558F091E02830310509F0A4
:1035500090E02091E8002E772093E800CBCF819176
:103560008093F100615071092F5F3F4FE7CF809149
:103570009202882341F0853041F08091E80083FF7A
:10358000BECF81E0089582E0089583E00895FC01B4
:103590008091990290919A0286179707A0F0611581
:1035A000710529F48091E8008E778093E80090E01F
:1035B0006115710551F4911108C08091E80082FFF6
:1035C00035C080E00895BC01F2CF8091920288233B
:1035D000C9F18530C9F18091E80083FD31C0809147
:1035E000E80082FDEACF8091E80080FFE1CF809182
:1035F000F3002091F200382F6115710519F0283081
:10360000310558F091E02830310509F090E08091C3
:10361000E8008E778093E800CBCF84918093F1000F
:103620003196615071092F5F3F4FE6CF8091920232
:10363000882341F0853041F08091E80083FFBDCFC1
:1036400081E0089582E0089583E00895982F9730EF
:1036500028F08F708093E90081E008959093E9004D
:10366000242F762F50E0981731F07091EC002091C4
:10367000ED005091F00021FD02C09F5FE8CF309136
:10368000EB003E7F3093EB003091ED003D7F3093B7
:10369000ED003091EB0031603093EB007093EC0063
:1036A0002093ED005093F0002091EE0027FDE5CF30
:1036B00080E008958091930287FF13C08091E80015
:1036C00082FF06C08091E8008B778093E80004C0F9
:1036D000809192028111F2CF089580919202882305
:1036E000D9F38091E80080FFF8CF8091E8008E77D1
:1036F000ECCF2091E4003091E50095E6A9012091FE
:10370000EC00822F817020FF06C08091E80080FFCE
:1037100006C080E008952091E80022FD1AC0809143
:103720009202882389F0853089F08091EB0085FD35
:103730000FC02091E4003091E50042175307F9F2E1
:103740009150E1F684E0089582E0089583E00895C1
:1037500081E008950E94191C0E94211CE0EEF0E017
:10376000808181608083E8EDF0E080818F778083C5
:1037700019BCA7EDB0E08C918E7F8C9380818F7EF9
:1037800080831092910208950F931F93CF93DF933C
:103790000E94191C0E94211CC8EDD0E088818F77FF
:1037A000888388818068888388818F7D888319BC1D
:1037B0001092920210928E021092900210928F023A
:1037C00000EE10E0F80180818B7F8083888181602A
:1037D000888342E060E080E00E94261BE1EEF0E09A
:1037E00080818E7F8083E2EEF0E080818160808343
:1037F000808188608083F80180818E7F80838881CA
:1038000080618883DF91CF911F910F910895E8ED3A
:10381000F0E080818F7E8083E7EDF0E08081816041
:10382000808384E082BF81E0809391020E94C41B68
:103830000895E8EDF0E080818E7F80831092E200B1
:1038400008951092DA001092E10008951F920F92ED
:103850000FB60F9211242F933F934F935F936F9363
:103860007F938F939F93AF93BF93EF93FF93809139
:10387000E10082FF0BC08091E20082FF07C08091CF
:10388000E1008B7F8093E1000E94851E8091DA0029
:1038900080FF19C08091D80080FF15C08091DA00A8
:1038A0008E7F8093DA008091D90080FF96C080E1FE
:1038B00089BD82E189BD09B400FEFDCF81E080931E
:1038C00092020E946B188091E10080FF19C08091E4
:1038D000E20080FF15C08091E2008E7F8093E200BD
:1038E0008091E20080618093E2008091D800806244
:1038F0008093D80019BC85E0809392020E947F18C3
:103900008091E10084FF2BC08091E20084FF27C0FA
:1039100080E189BD82E189BD89B5982F917080FFD2
:10392000FBCF8091D8008F7D8093D8008091E100FB
:103930008F7E8093E1008091E2008F7E8093E20091
:103940008091E20081608093E20080918E02882362
:1039500009F449C084E0809392020E948818809103
:10396000E10083FF29C08091E20083FF25C08091A0
:10397000E100877F8093E10082E0809392021092C1
:103980008E028091E1008E7F8093E1008091E200C1
:103990008E7F8093E2008091E20080618093E2005C
:1039A00042E060E080E00E94261B8091F000886089
:1039B0008093F0000E947C18FF91EF91BF91AF912E
:1039C0009F918F917F916F915F914F913F912F9137
:1039D0000F900FBE0F901F90189519BC1092920275
:1039E0000E94791870CF8091E30087FD93E0909357
:1039F0009202B3CF1F920F920FB60F9211242F9302
:103A00003F934F935F936F937F938F939F93AF9366
:103A1000BF93CF93DF93EF93FF93D091E900DF70D3
:103A20008091EC00C82FC17080FDC0E81092E900C1
:103A30008091F000877F8093F00078940E943E1D73
:103A40001092E9008091F00088608093F000CD2B07
:103A5000CF70C093E900FF91EF91DF91CF91BF91BB
:103A6000AF919F918F917F916F915F914F913F9116
:103A70002F910F900FBE0F901F901895AAE2B0E003
:103A8000E4E4FDE10C94CA1E83E992E02091F10088
:103A9000FC012193CF01F2E08B399F07B9F70E9417
:103AA000A8188091E80083FF1EC180919302909135
:103AB00094029A3008F017C1E92FF0E0E459F04E73
:103AC0000C94B51E803899F0823809F00CC18091B1
:103AD00097028F70873008F006C18093E9008091CB
:103AE000EB0085FB882780F91092E90006C08091E1
:103AF0008F0290919002911182609091E800977FDF
:103B00009093E8008093F1001092F1008091E8001A
:103B10008E77E5C0882309F4D3C0823009F0E3C072
:103B2000809195028111D6C0809197028F702FEFFE
:103B3000280F263008F0D7C08093E9002091EB00D1
:103B400020FFC8C0933031F48091EB0080628093F5
:103B5000EB00C0C09091EB0090619093EB0021E0EE
:103B600030E001C0220F8A95EAF72093EA00109214
:103B7000EA008091EB008860EACF8111B4C0109117
:103B800095021F778091E3008078812B8093E3007A
:103B90008091E800877F8093E8000E945A1B809103
:103BA000E80080FFFCCF8091E30080688093E30011
:103BB00082E0111183E08093920295C08058823098
:103BC00008F091C080919502909196028C3D23E07F
:103BD0009207A1F583E08A838AE289834FB7F8943C
:103BE000DE01139620E03EE051E2E32FF0E0509337
:103BF0005700E49120FF03C0E295EF703F5FEF7044
:103C00008E2F90E0EA30C0F0C7968D939D932F5F82
:103C1000243159F74FBF8091E800877F8093E800F7
:103C20006AE270E0CE0101960E94691A8091E80074
:103C30008B778093E80057C0C096E7CF60919702DA
:103C400070919802AE014F5F5F4F0E94A919BC01AD
:103C5000892B09F448C09091E800977F9093E80081
:103C600089819A810E94C71AE1CF8038E1F580915D
:103C7000E800877F8093E80080918E028093F100B6
:103C800045CF811130C090919502923060F58091BE
:103C9000E800877F8093E80090938E020E945A1B71
:103CA00080918E02882311F084E005C08091E300AA
:103CB00087FDFACF81E0809392020E94931813C08F
:103CC00080919502813079F481E0933009F080E0B1
:103CD000809390021092E9008091E800877F8093A2
:103CE000E8000E945A1B8091E80083FF0AC080917F
:103CF000E800877F8093E8008091EB0080628093EA
:103D0000EB00AA96E3E00C94E61E0895CF93809111
:103D100092028823A1F0C091E900CF709091EC004D
:103D2000892F817090FD80E8C82B1092E900809166
:103D3000E80083FD0E943E1DCF70C093E900CF9143
:103D4000089597FB072E16F4009407D077FD09D04D
:103D50000E94F21E07FC05D03EF4909581959F4F7E
:103D60000895709561957F4F0895EE0FFF1F0590A0
:103D7000F491E02D09942F923F924F925F926F92AF
:103D80007F928F929F92AF92BF92CF92DF92EF92EB
:103D9000FF920F931F93CF93DF93CDB7DEB7CA1B6C
:103DA000DB0B0FB6F894DEBF0FBECDBF09942A8897
:103DB000398848885F846E847D848C849B84AA843F
:103DC000B984C884DF80EE80FD800C811B81AA81CC
:103DD000B981CE0FD11D0FB6F894DEBF0FBECDBF97
:103DE000ED010895AA1BBB1B51E107C0AA1FBB1F11
:103DF000A617B70710F0A61BB70B881F991F5A9577
:103E0000A9F780959095BC01CD010895FB01DC01D7
:103E100004C08D910190801921F441505040C8F7A1
:103E2000881B990B0895FB01DC0102C001900D92E3
:103E300041505040D8F70895F999FECF92BD81BD09
:103E4000F89A992780B50895A8E1B0E042E050E0E3
:103E50000C94501F262FF999FECF92BD81BDF89A80
:103E6000019700B4021639F01FBA20BD0FB6F894BE
:103E7000FA9AF99A0FBE08950396272F0E942B1FD6
:103E80000E942A1F252F0E942B1F242F0C942B1FCA
:103E90000196272F0E942B1F0C942A1FDC01CB01B7
:103EA000FC01F999FECF06C0F2BDE1BDF89A31964A
:103EB00000B40D9241505040B8F70895F894FFCFE8
:103EC0000F040F0440044004CD04E9046F046F04A0
:103ED000F404650574057405621D8A1D731E8A1D30
:0C3EE000731EBD1DDE1D731E351E411E2D
:103EEC000202280850011E0A1401D117F617D51723
:103EFC0066186118D41701E200E900EA00B500B6B3
:103F0C0000B700CD008301CC008A019201940121FD
:103F1C0002230224022502260227022A02B300B43D
:103F2C00006F007000818283E200E900EA00B500B6
:103F3C00B600B700CD008301CC008A019201940138
:103F4C002102230224022502260227022A02B300A0
:103F5C00B4006F00700081828335349796949593EA
:083F6C00929190F0F1F4F500D0
:00000001FF
