:100000000C9485020C94BD020C94BD020C94BD02AC
:100010000C94BD020C94BD020C94BD020C94BD0264
:100020000C94BD020C94BD020C941C2A0C94D8298B
:100030000C94192B0C94BD020C94BD020C94BD02BF
:100040000C94BD020C94BD020C94BD020C94BD0234
:100050000C94BD020C94F52A0C94BD020C94BD02C4
:100060000C94BD020C94BD020C94BD020C94BD0214
:100070000C94BD020C94BD020C94BD020C94BD0204
:100080000C94BD020C94BD020C94BD020C94BD02F4
:100090000C94BD020C94BD020C94BD020C94BD02E4
:1000A0000C94BD020C94BD020C94BD020501090222
:1000B000A10185020901A1000509190129081500FE
:1000C0002501950875018102050109300931158165
:1000D000257F95027508810609381581257F9501D0
:1000E00075088106050C0A38021581257F95017572
:1000F000088106C0C005010980A101850319012AF4
:10010000B700150126B700950175108100C0050CD8
:100110000901A101850419012AA002150126A002E6
:10012000950175108100C005010906A1018506052C
:100130000719E029E71500250195087501810205D9
:1001400007190029EF1500250195F07501810205B9
:10015000081901290595057501910295017503910D
:1001600001C00660FF0961A1010962150026FF00B8
:100170009520750881020963150026FF00952075FA
:10018000089102C005010906A101050719E029E748
:1001900015002501950875018102950175088101F9
:1001A0000507190029FF150026FF0095067508812F
:1001B000000508190129051500250195057501910E
:1001C00002950175039101C0FD377A585A00000469
:1001D000E6D6B4460200210116000000742FE5A304
:1001E000E000D900755D003D8889A654750A36E1A6
:1001F00082AEFA7A1AA6FCA2ED4951391A5E7177DD
:10020000BE91240427AF3CE2F9800A2CB73A988DBE
:100210005BFCF3AC2FC269B7330F37AB5BC84B9DA8
:100220003E6EECC4C9E2C17FFEE1A136A77E387EF6
:10023000B2F118A526B972143A5D234959903DAA26
:100240005F78DF27E172267CD70479FAB2661E7EDA
:1002500035B578956779E8DDE7F1FA000000000030
:10026000A26664C4F880F97200019101DA0100000D
:10027000410B2460B1C467FB020000000004595A1E
:1002800001000100CC03320F170F00000200020032
:10029000C803320F170F000003000100CD03320F17
:1002A000170F000004000200B203320F170F4306BD
:1002B00005000100CE03320F170F000006000200F8
:1002C000B403320F170F000007000200CA03320FF9
:1002D000170F000008000100CF03320F170F0000B6
:1002E00009000200B603320F170F1E060A000200B3
:1002F000B803320F170F1E060B000200BA03320FAD
:10030000170F1E060C000200BC03320F170F1E064B
:100310000D000200BE03320F170F1E060E00020072
:10032000C003320F170F1E060F000200C203320F68
:10033000170F1E0610000200C403320F170F1E060F
:1003400011000200C603320F170F1E061200020032
:10035000D003320F170F000013000200D203320F38
:10036000170F000014000100D403320F170F000014
:10037000150000000000A405B715000024002500AA
:100380002600310021002200230025021E001F004C
:1003900020002D002700370028002E02A900AA0007
:1003A00009025B00030100A0FA0904000001030137
:1003B0000100092111010001224400070581030801
:1003C00000010904010002030000000921110100DD
:1003D00001222200070582032000010705030320F4
:1003E00000010904020001030000000921110100BD
:1003F0000122B6000705840320000112010002005B
:10040000000008AFBE04000100010203011C0376D6
:1004100000690061006C003A006600360034006339
:10042000003200620033006300000014036B006FB1
:10043000007700670061007200790031003600002B
:10044000001203730070006F007200650077006F88
:100450000068000000040309040000000000000020
:10046000000000000000000000000000000000008C
:10047000000000000000000000000000007E0F00EF
:10048000D4FFFFFFC700000078000000000000005C
:10049000002A2B28000000000000000000000000DF
:1004A0000000000029000000002C1E34202122241E
:1004B000342627252E362D3738271E1F20212223AC
:1004C0002425263333362E37381F0405060708093E
:1004D0000A0B0C0D0E0F1011121314151617181904
:1004E0001A1B1C1D2F3130232D3504050607080962
:1004F0000A0B0C0D0E0F10111213141516171819E4
:100500001A1B1C1D2F3130354C0011241FBECFEF9C
:10051000DAE0DEBFCDBF04B603FE18C080912B0524
:1005200090912C05A0912D05B0912E058730904B10
:10053000A740B04B59F410922B0510922C05109245
:100540002D0510922E05E0E0F8E3099511E0A0E0FA
:10055000B1E0E0E0FBE602C005900D92AE37B107D6
:10056000D9F725E0AEE7B1E001C01D92AB32B2078A
:10057000E1F70E94402B0C942A350C940000482F80
:10058000209129059091E00459E0291302C080E0F0
:10059000089530E0529FF001539FF00D1124EF5168
:1005A000FB4F8181681306C08081481303C0858199
:1005B0008111EECF2F5F3F4F2770E7CFE8EDF0E0DE
:1005C00080818E7F80831092E2001092DA00109278
:1005D000E100A0EEB0E08C9181608C9380818F77F8
:1005E000808319BCA7EDB0E08C918E7F8C938081C5
:1005F0008F7E80831092B10408952091E4003091A1
:10060000E50095E6A9012091EC00822F817020FF82
:1006100006C08091E80080FF06C080E00895209128
:10062000E80022FD1AC08091D604882389F0853025
:1006300089F08091EB0085FD0FC02091E40030919E
:10064000E50042175307F9F29150E1F684E008956E
:1006500082E0089583E0089581E008958091D804B0
:1006600087FF13C08091E80082FF06C08091E800F8
:100670008B778093E80004C08091D6048111F2CF7B
:1006800008958091D6048823D9F38091E80080FFF3
:10069000F8CF8091E8008E77ECCF982F9093E90007
:1006A000242F762F50E0891731F07091EC002091C3
:1006B000ED005091F00021FD07C09F5F973071F76A
:1006C0008093E90081E008953091EB003E7F309304
:1006D000EB003091ED003D7F3093ED003091EB0069
:1006E00031603093EB007093EC002093ED00509359
:1006F000F0002091EE0027FDE0CF80E00895B0E00B
:10070000A0E0E5E8F3E00C946D34C8EDD0E088811A
:100710008F7E8883E7EDF0E080818160808384E0D4
:1007200082BF81E08093B10488818E7F888302EE4E
:1007300010E0F80110821092DA0081EEC82ED12C60
:10074000F601108288818F7788838881806888830A
:1007500088818F7D888319BC1092D6041092D704AB
:100760001092D5041092D40490EEE92EF12CF701EA
:1007700080818B7F808388818160888342E060E014
:1007800080E00E944D03F60180818E7F8083F80116
:10079000808181608083808188608083F70180818F
:1007A0008E7F8083888180618883CDB7DEB7E8E063
:1007B0000C948934FC018091DE049091DF0486174B
:1007C0009707A0F06115710529F49091E8009E77D4
:1007D0009093E80090E06115710551F4911108C003
:1007E0008091E80082FF34C080E00895BC01F2CF20
:1007F0008091D6048823C1F18530C1F18091E80051
:1008000083FD30C08091E80082FDEACF8091E8004E
:1008100080FFE1CF8091F3002091F200382F611525
:10082000710519F02830310558F091E02830310574
:1008300009F090E02091E8002E772093E800CBCFDC
:1008400081918093F100615071092F5F3F4FE7CF95
:100850008091D604882341F0853041F08091E800F2
:1008600083FFBECF81E0089582E0089583E008957C
:100870008091B30408959C014FB7F8948091AB0424
:100880009091AC04A091AD04B091AE044FBF821B17
:10089000930B08952FB7F8946091AB047091AC045A
:1008A0008091AD049091AE042FBF08952FB7F894B6
:1008B0008091AB049091AC04A091AD04B091AE04D2
:1008C0002FBF0895209115012223C1F02091AF047C
:1008D00027FF14C0E62FE695E695E695EE31F8F48D
:1008E000E80FF92FF11D677021E030E001C0220F01
:1008F0006A95EAF78281822B82830895FC01329601
:100900002FEF30E04191641751F02F3F19F441115E
:1009100001C0232F3F5F3630A9F72F3F09F4089518
:10092000820F911D27FD9A95FC0162830895A3E033
:10093000B0E0EDE9F4E00C9473342091A804309118
:10094000A90428173907A1F09093A9048093A8045B
:10095000E091A604F091A704309751F024E0298398
:100960009B838A830680F781E02DCE01019609954D
:100970002396E2E00C948F34A3E0B0E0E2ECF4E0E4
:100980000C9473342091A4043091A50428173907DE
:10099000A1F09093A5048093A404E091A604F091A3
:1009A000A704309751F023E029839B838A83068034
:1009B000F781E02DCE01019609952396E2E00C9493
:1009C0008F34E091A604F091A704309729F00190AC
:1009D000F081E02D0995089580E0089541155105B5
:1009E00011F0FA0109950895CF93DF93EC0140913E
:1009F00094045091950460919604709197042FB7D8
:100A0000F8948091AB049091AC04A091AD04B091A6
:100A1000AE042FBF841B950BA60BB70B843F9140F0
:100A2000A105B10518F58091940490919504A091C9
:100A30009604B09197048093900490939104A093AE
:100A40009204B093930484EF91E0A0E0B0E080932F
:100A50008C0490938D04A0938E04B0938F04D09354
:100A60009C04C0939B04DF91CF9108950E944A0497
:100A700060939004709391048093920490939304F4
:100A800082E390E0A0E0B0E0E2CFFC018581862324
:100A900051F492819923B9F06923818583FF05C0C0
:100AA00081E061110FC080E00895892F8F709295C9
:100AB0009F70982B862F8F7062956F70682B81E0E6
:100AC0009613F1CF089581E0FDCFDC01609186049B
:100AD00080918704962F891301C00895292F30E053
:100AE000F901EE0FFF1FE258FB4F408151814A1779
:100AF0005B07A1F487E08A9FA0018B9F500D112412
:100B000043525C4F81E0FA0184839613E6CF2F5F56
:100B10003F4F237033272093860408952F5F3F4F64
:100B2000922F9370D8CF1092DB031092DA03EDED81
:100B3000F3E08581811102C014821682379684E029
:100B4000E531F807B1F70895B0E0A0E0EAEAF5E092
:100B50000C946B348FEF9FEF4430510508F469C05B
:100B60004091AF0441FB882780F990E0880F991FDE
:100B700042FB002700F910E0000F111F000F111FAA
:100B8000802B912B40FBCC24C0F8D12C8C299D29A3
:100B900043FB222720F9C22FE0E0DE2F53E0CC0FE9
:100BA000DD1F5A95E1F78C2B9D2B44FBAA27A0F95A
:100BB000B0E0E4E0AA0FBB1FEA95E1F78A2B9B2B7C
:100BC00045FBEE27E0F9F0E0A5E0EE0FFF1FAA9548
:100BD000E1F78E2B9F2B46FB222720F930E0B6E071
:100BE000220F331FBA95E1F7822B932B47FB222765
:100BF00020F930E03695322F222737952795822B22
:100C0000932B2091B004322F3170F32EE82EF92A65
:100C100026952170B22EBB0CA82EBF28C501BB0C97
:100C2000AA0BBB0BFB0180839183A283B38390E06B
:100C300080E0CDB7DEB7EAE00C948734E2EBF3E076
:100C4000848195812AE030E0B9010E942E346093BE
:100C50001001868180930F01828580930E01848527
:100C600080930D0186859785B9010E942E3460938B
:100C70000C01808980930B01828980930A01848909
:100C80008093090108958091B2039091B3039093EA
:100C90001201809311010895EEE2F2E090E080E00D
:100CA00069E179E240E459E22FE838E2778366832C
:100CB000518740873387228797878687019670966A
:100CC0008830910599F7089581152CE7920741F432
:100CD00020918A0430918B04232B11F490E080E062
:100CE00008950E9456049C0190911602809117026B
:100CF000982B21F030931302209312029091180246
:100D000080911902982B21F0309311022093100248
:100D1000E091A604F091A704309749F082E0809317
:100D200014020480F581E02D84E192E00995089594
:100D300080910F0280FF0CC060910A0170E07595F0
:100D40006795759567956115710549F1862F089529
:100D500081FF06C060910A0170E075956795F3CF39
:100D600060910A0182FD0BC090910E029923A1F0BF
:100D70006091090180910A01961738F0682F70E0A0
:100D80006038710500F38FE70895899FC001112431
:100D900070E00E944234F4CF61E070E0D7CF81E090
:100DA000089580910F026091BA037091BB0380FF98
:100DB00016C020910E01269FC001279F900D11247F
:100DC000BC0176956795769567956038710508F052
:100DD00043C06115710509F441C0862F089581FF54
:100DE0000BC020910E01269FC001279F900D11245A
:100DF000BC0176956795E9CF82FF09C080910E010D
:100E00009B01829FB001839F700D1124DECF209142
:100E10000D022223D1F290910D0180910E01482FF5
:100E200050E0291748F0CB01849FB001859F700DD9
:100E3000949F700D1124C9CF289F90011124269FE3
:100E4000A001279F500D369F500D1124692F70E08F
:100E5000CA010E942E34B9CF8FE7089581E008952A
:100E6000282F35EB2303C001112497FF04C08058BD
:100E70009109892F089580589F4FFBCF80E00895F6
:100E8000F894E82FE295EF70F0E031A1282F2F7051
:100E900081E090E001C0880F2A95EAF7982F90959D
:100EA000932391A392A1892B82A378940895909182
:100EB000AF0492FF10C041E0282F2471243009F0C4
:100EC00040E031E0282F2871283009F030E0431746
:100ED00011F02CE0822793FF10C041E0282F2471ED
:100EE000243109F040E031E0282F2871283109F041
:100EF00030E0431711F02CE082273091B00430FF2E
:100F000010C051E0282F2171213009F050E041E05C
:100F1000282F2871283009F040E0541711F029E0FB
:100F2000822731FF10C041E0282F2171213109F0C3
:100F300040E031E0282F2871283109F030E04317D4
:100F400011F029E0822794FD877E0895823891056B
:100F5000B9F1B0F48133910509F47DC048F48932C8
:100F6000910509F46DC08A32910509F47BC008959A
:100F70008533910509F45FC08933910509F108951E
:100F8000833E9105D9F138F4803E910529F1823EE6
:100F9000910579F10895863E9105D9F1873E910535
:100FA00009F43EC0843E910541F52091B00421FF33
:100FB00024C08091AF0484FD19C087EE90E00895AD
:100FC0002091AF04237009F05AC02091B00423FF90
:100FD00014C089E290E008952091AF0420FD38C04C
:100FE0003091B00430FF09C024FF43C090E080E09E
:100FF00008952091AF0422FDF7CF08952091AF040A
:1010000022FD3AC03091B00430FD39C024FFF5CF45
:10101000EDCF2091AF0423FFF0CF24FDE7CFCDCF5C
:101020002091AF0423FD2EC03091B00431FFEECFEC
:1010300084EE90E008952091AF0425FFDECFC9CF64
:101040002091AF0425FD21C02091B00423FFD5CF0E
:1010500089E390E0D2CF2091AF0426FFCECF8AE281
:1010600090E008952091AF0426FFC7CF81E390E080
:10107000089583EE90E0089582EE90E0089580EE6A
:1010800090E0089586EE90E0089585E390E008955D
:101090001F93CF93DF930E94A607EC01C11580E553
:1010A000D807F0F5C11580E4D80708F09CC0C03E11
:1010B000D10520F5CD3CD10508F082C0C83AD10554
:1010C00078F4C53AD10508F073C0C130D10519F1E3
:1010D000209709F1C430D105F0F4D0E0C0E01BC086
:1010E000C33CD105D0F7C85AD0E0CC0FDD1FCF5D8F
:1010F000DE4F0990D881C02DD4640DC0C11580E2A7
:10110000D80708F0D1C0C11581E0D80708F05AC04F
:10111000C83ED10510F7CE01DF91CF911F91089500
:10112000C03682E5D80718F5C03482E5D80708F044
:101130006BC0C03282E5D80708F05FC0C11582E5F8
:10114000D80708F497C02C2F2695269580E2289F73
:10115000900111248C2F8370C1E0D0E002C0CC0F2D
:10116000DD1F8A95E2F7C22BD32BDD68D4CFC03ABE
:1011700082E5D80760F4C03882E5D80708F459C082
:10118000CF71D0E0DC2FCC27C46FD06AC4CFC03C75
:1011900082E5D80708F462C0C03E82E5D80708F0AF
:1011A0009CCFDC2FCC27CC27DF71C06FD06AB3CFA8
:1011B000C55AD0E0C25EDE4FC881D0E0D064ABCF6C
:1011C000D065A9CF8D2F0E945707182FCE019927E0
:1011D0000E94A607C12FD0E0DC2FCC27CC27DF71DF
:1011E000C82BD92B98CFCE0199270E94A607CC27D0
:1011F000DF70C82BD92BD06A8ECFCF71D0E0DC2F17
:10120000CC27C16FD06A87CF2C2F269526952770C3
:1012100080E2289F900111248C2F8370C1E0D0E0E0
:1012200002C0CC0FDD1F8A95E2F7C22BD32BDC68FE
:1012300072CF2C2F26952695277080E2289F90014B
:1012400011248C2F8370C1E0D0E002C0CC0FDD1FD1
:101250008A95E2F7C22BD32BDA685DCF8C2F8F7182
:101260000E945707C82FD0E0DC2FCC27CC27DF7196
:10127000D06251CF8C2F8F710E94570755E0D695C1
:10128000C7955A95E1F7CF70D0E0DC2FCC27282FF7
:1012900030E084FF05C044E0220F331F4A95E1F798
:1012A000C22BD32BD06937CF8D2F8F710E94570758
:1012B000182FCE0199270E94A607C12FD0E0DC2F5E
:1012C000CC27CC27DF71C82BD92BD2CF8091E0015E
:1012D000882331F01092E0011092DF011092DE01BC
:1012E0000895CF93C82F8091B00482FF0CC08091E5
:1012F000E0018C1741F00E9456049093DF01809327
:10130000DE01C093E001CF9108959091E001292F73
:10131000282361F0809589238093E001882339F0A8
:101320000E9456049093DF018093DE01089590E0BF
:1013300080E0F8CF809590912A05982390932A0514
:101340000895809590919103982390939103089527
:1013500090919103892B8093910308951092BD0180
:101360001092BC011092BB0108958091B40390913A
:10137000B503892B89F00E9456042091DE0130913B
:10138000DF01AC01421B530B81E02091B40330918B
:10139000B5034217530708F480E0817008959091D7
:1013A000BA01292F282321F0809589238093BA013F
:1013B0000895909115019923D1F09091AF0497FF72
:1013C00016C0E82FE695E695E695EE31E0F4F0E0FC
:1013D000E058FE4F282F277081E090E001C0880F71
:1013E0002A95EAF780959281892382830895E2E81D
:1013F000F1E09191891303C0DF0111971C9291E0F4
:10140000E838F907B1F70895809129059091E00433
:10141000981301C008958F5F8770FACFA82FA77027
:1014200023E0969587952A95E1F7880F991F880FF5
:10143000991FFB01E80FF91F50E040E080E0219187
:1014400030E00A2E02C0369527950A94E2F7217003
:101450003327042E01C0220F0A94EAF7822B4F5F34
:101460005F4F4430510559F70895903FB9F09430DB
:1014700070F4843098F444E0949F9001112469EA58
:1014800071E0820F932F911D0E940E0A08959C5FB8
:10149000923020F465EA71E090E0F6CF80E00895A4
:1014A000262F277091E001C0990F2A95EAF723E0D3
:1014B000769567952A95E1F7660F771F660F771F78
:1014C000FA01E60FF71F50E040E0682F70E08191CD
:1014D000DF0111979B01042E02C0369527950A94CF
:1014E000E2F7217021952827292328272C934F5F85
:1014F0005F4F4430510559F70895282F862F903FAC
:1015000071F0943068F4243050F434E0939FB001CB
:101510001124620F711D49EA51E00E94500A08959A
:101520009C5F9230E0F7622F70E045EA51E0F5CF22
:101530009093ED018093EC010895E091EC01F0911E
:10154000ED0121E030E0D90102C0AA0FBB1F8A954E
:10155000E2F7CD01D90102C0AA0FBB1F6A95E2F7DD
:10156000BD018A2B972B02C0220F331F4A95E2F749
:10157000AF01482359238417950731F42E2B3F2BB5
:10158000C9010E94980A0895209530952E233F2383
:10159000F7CF21E030E002C0220F331F8A95E2F737
:1015A000209530958091EC019091ED018223932359
:1015B0000E94980A08959091BD0180958923809397
:1015C000BD01282F277069F4891759F09091B00454
:1015D00092FF07C08695869586950E94C90A0E944B
:1015E000AE09089521E030E002C0220F331F8A9532
:1015F000E2F78091EC019091ED01822B932B0E94F8
:10160000980A08959091B00492FF10C098E0899FC5
:1016100090011124622B6093BD010E94F20A0E9486
:1016200056049093BC018093BB0108950E94F20A76
:1016300008959093EB018093EA01089592959F702D
:10164000963091F058F4925F9F70923058F4803F3A
:1016500019F030F4883E30F481E008959A5FF4CFB9
:10166000843FD1F380E00895883EB0F3813FD1F705
:10167000F3CF662309F45DC08D3C41F40E94D1068E
:101680008195809317020E94710608958E3C19F48B
:101690000E94D106F6CF8F3C31F40E94D10681958D
:1016A00080931602F0CF803D19F40E94D106F8CF46
:1016B000893D29F40E94980680931802E4CF8A3D60
:1016C00021F40E9498068195F7CF8B3D31F40E945A
:1016D0009806819580931902D6CF8C3D19F40E940B
:1016E0009806F8CF9FE2980F983070F4815D990BBF
:1016F00021E030E001C0220F8A95EAF780911502BF
:10170000822B80931502BFCF8D3D31F480910F0263
:10171000816080930F02B7CF8E3D21F480910F023C
:101720008260F7CF8F3D09F0AECF80910F028460C9
:10173000F0CF409116028D3C59F48091170287FF3B
:101740000DC01092170241110BC010920D0208C07B
:101750008E3C81F48091170218169CF3442381F08B
:101760008091180290911902892B09F08CCF109268
:101770000E0289CF8F3C49F447FFF0CF109216023A
:10178000809117028111ECCFE0CF803D19F414163F
:10179000ACF3E4CF90911802893D29F41916F4F6C0
:1017A00010921802DBCF8A3D19F497FFD7CFF8CFFC
:1017B000909119028B3D29F497FFD0CF1092190216
:1017C000CDCF8C3D19F41916CCF3C8CF9FE2980FFA
:1017D000983090F4815D990B21E030E0B90102C0AE
:1017E000660F771F8A95E2F7CB01809590911502DD
:1017F000892380931502B2CF8D3D31F480910F0281
:101800008E7F80930F02AACF8E3D21F480910F022C
:101810008D7FF7CF8F3D09F0A1CF80910F028B7F95
:10182000F0CF9C013A9521153F4150F5FC01EE2780
:10183000F170BC0166277270AC01442754709C01A2
:101840002227387094FF0EC080E1EF2B09F480E06E
:10185000672B09F08062452B09F08064232B89F007
:101860008068089581E0EF2B09F480E0672B09F090
:101870008260452B09F08460232B19F0886008955D
:1018800080E008950F931F93CF93DF938B01EA01BC
:101890009091D604943061F58093E9008FEF909198
:1018A000E800815095FD06C095ED9A95F1F700008E
:1018B0008111F5CF8091E80085FF1AC00E94FD02DA
:1018C000811111C08091E80085FD06C08091E8007B
:1018D0008E778093E800F2CFF80181918F01809399
:1018E000F100219779F78091E8008E778093E800E6
:1018F000DF91CF911F910F91089543E050E0BC011B
:1019000084E00E94420C089546E050E0BC0184E06F
:101910000E94420C0895CF93DF93EC018091150152
:10192000811111C048E050E0BE0181E00E94420CEC
:1019300080E2FE01A4EBB4E001900D928A95E1F7FC
:10194000DF91CF9108958091AF0487FF05C040E2F9
:1019500084E050E0BE01EACF48E081E0FACF81E0C8
:101960008093E00080E28093D8001092C9008FE15C
:101970009EE40197F1F700C0000087E090EBDC01E6
:1019800080932B0590932C05A0932D05B0932E05E5
:1019900088E19CE00FB6F894A895809360000FBE94
:1019A00090936000FFCF019708F40895EFE9FFE0FE
:1019B0003197F1F700C00000F6CFCF93DF93C5EA6F
:1019C000D2E060E0CE010E94EE342196C11584E0A1
:1019D000D807B9F7DF91CF9108950F931F93CF9355
:1019E000DF93142F022F8A30F0F461111CC094E0B1
:1019F000899FE0011124C759DE4F82E090E0442323
:101A000011F090E080E0632F8C0F9D1F0E94EE3458
:101A100083E090E0112311F081E090E0602F8C0FC3
:101A20009D1F0E94EE34DF91CF911F910F91089579
:101A30001F93CF93DF93122F8A30E8F46430D8F4E9
:101A40004430C8F428E0629FE001112450E0440FC4
:101A5000551FC40FD51F20E2829FC0011124C80F5B
:101A6000D91F632FCE0189960E94EE34612FCE01DB
:101A70008A960E94EE34DF91CF911F910895CF9303
:101A8000C82F6FEF811168EB85E290E00E94EE3481
:101A90006FEFC1116FEC86E290E00E94EE346FEFC1
:101AA000C1116BE887E290E00E94EE34CF91089577
:101AB0009B01883070F49AE0899FB00111246B5427
:101AC0007E4F4AE050E0C9010E94C03490E080E0BF
:101AD00008958FEF9FEF0895AAE0B0E0E2E7FDE000
:101AE0000C9473349C0137552F3F310509F068F48D
:101AF000BE016F5F7F4F0E94580D892B31F489859D
:101B00009A852A96E2E00C948F348091CA039091D2
:101B1000CB03F7CFFF920F931F93CF93DF93F42E56
:101B20008A3040F5611126C024E0829F8001112493
:101B300007591E4F82E090E0442311F090E080E0CE
:101B4000800F911F0E94D034C82FD0E0DC2FCC270B
:101B500083E090E0FF2011F081E090E0800F911F82
:101B60000E94D0349E01282BC901CDB7DEB7E5E035
:101B70000C948C3490E080E0F8CF0F931F93CF93B8
:101B8000DF938A3038F5643028F5443018F528E0C2
:101B9000629F8001112450E0440F551F040F151F50
:101BA00030E2839FC0011124080F191FC8018996D4
:101BB0000E94D034C82FD0E0DC2FCC27C8018A96F1
:101BC0000E94D0349E01282BC901DF91CF911F9133
:101BD0000F91089590E080E0F8CF462F672F209175
:101BE0000B0230910C02232BC9F4703F39F4403FB3
:101BF000A9F480911A0290911B020895743038F470
:101C0000443060F48A3050F40E94BD0D08957D3F49
:101C100041F4411103C041E08A3048F090E080E097
:101C200008957C3FD9F74111F9CF8A30B8F760E0C9
:101C30000E948A0D0895B0E0A0E0E1E2FEE00C947D
:101C40006C347C010091EC011091ED018091EA016E
:101C50009091EB01082B192BC9E0D0E0CC24C39460
:101C6000D12CBC2EC6010C2E02C0880F991F0A94DD
:101C7000E2F780239123892B49F4219790F7B12C27
:101C80008B2DCDB7DEB7E9E00C948834B7018C2FEB
:101C90000E94ED0D0E944808019779F3F1CFCF9390
:101CA000DF93EC010E941B0EBE010E94ED0D0E940D
:101CB0004808DF91CF910895FC018481882371F059
:101CC00087819085009729F00E9448080E941E0B8A
:101CD0000895808191810E944F0EF8CF80E0089591
:101CE000A6E0B0E0E6E7FEE00C94723449835A8344
:101CF00049815A819923A1F0222391F0CA010E94BF
:101D00001B0E182F682F89819A810E947D0A698194
:101D10007A81812F0E94ED0D2696E3E00C948E349B
:101D2000CA010E94350A182FF2CFFC01262F8781A5
:101D30009085009741F44081518162817381848153
:101D400095810E94700E08950F931F93CF93DF9398
:101D500002EB13E0C1E9D1E0CE010E94D034F801DA
:101D600061918F01681719F0CE010E94EE3421961F
:101D7000C53BF1E0DF0781F7DF91CF911F910F9114
:101D800008950F931F93CF93DF9302EB13E0C1E904
:101D9000D1E0CE010E94D034F80181938F012196C9
:101DA000C53BF1E0DF07A9F7CAE8D2E0FE01859163
:101DB0009491009711F0FC0109952C96F3E0C63838
:101DC000DF07A1F7DF91CF911F910F91089585E271
:101DD00090E00E94D034883B89F486E290E00E9433
:101DE000D0348F3C59F487E290E00E94D03491E0E7
:101DF0008B3809F090E0892F8170089580E0FCCF46
:101E00009091B00492FB222720F9281779F080FBEB
:101E100092F99093B0046091AF047091B00484E0A3
:101E200090E00E940C3582E00E94DB0A0895DA01FE
:101E30009C012E5F3F4FF90145915491F901259185
:101E40003491A217B30758F0FC0134968591949110
:101E50000E94B0340E94A40E90E080E008958FEFBD
:101E60009FEF0895DB01FC013296259134914217D2
:101E7000530758F0FC01349665917491A901CD0186
:101E80000E94B03490E080E008958FEF9FEF0895B6
:101E9000AAE0B0E0EEE4FFE00C94693401E113E065
:101EA0008FEFC82E82E0D82E95E5E92E92E0F92E2C
:101EB00026E0922E3EEFA32E32E0B32E88248394A8
:101EC000D6010D931D936D014AE050E0B701CE019C
:101ED00001960E94C034F8013A96DF01892D1D92C7
:101EE0008A95E9F789819A81D80111969C938E93FE
:101EF0008F8112968C9312978D819E8114969C935C
:101F00008E931397888515968C93159789851696C9
:101F10008C9316978B819C8118969C938E93179720
:101F200019961C9219978A8587FF3CC01F961C92B0
:101F30001E921E9780FF03C0D80119968C9281FFD4
:101F400004C0F80191859260918782FF07C0D80193
:101F500019969C911997946019969C9383FF04C0DD
:101F6000F80191859860918784FF07C0D801199680
:101F70009C911997906119969C9385FF04C0F80174
:101F8000818580628187005F1F4FFAE0EF0EF11CB0
:101F900085EAE81682E0F80609F092CF2A96ECE08E
:101FA0000C948534F801B786A686C4CFAAE0B0E0C9
:101FB000ECEDFFE00C946D34EEEAF2E080E5DF0139
:101FC0001D928A95E9F7EDEDF3E088E3DF011D92BC
:101FD0008A95E9F78EEAC82E82E0D82E7F0105E0C7
:101FE00012E0F701D182C0824AE050E0B801CE0190
:101FF00001960E94C03488E0FE013196D60101901E
:102000000D928A95E1F789859A85D70113969C935D
:102010008E931297BAE0CB0ED11CE7E0EE0EF11CC6
:10202000065F1F4F0535F2E01F07D9F62A96E8E054
:102030000C948934A4E0B0E0E0E2F0E10C946C345C
:1020400019821A821B821C8287E5C82E81E0D82E55
:1020500010E000E0EE24E394F12CF60181916F0191
:102060008F3F09F446C0F894E82FE295EF70F0E056
:1020700021A18F70A70102C0440F551F8A95E2F776
:10208000CA01922F982B91A392A18095892382A3B4
:10209000789400C0EBE5F1E0B12C31E021912F3FC5
:1020A00009F473C0A22FA295AF70B0E090968C9106
:1020B00090E02F7002C0959587952A95E2F780FDF4
:1020C00064C0832FB82A330F51E0EF35F50731F79D
:1020D000F601319780818F3F11F00E94400780EA1E
:1020E0008A95F1F7E1E0F0E0EC0FFD1FE00FF11F42
:1020F000B0820F5F1F4F0430110509F0AECF44E0EE
:1021000050E0BE016F5F7F4F86EE91E00E94A334E6
:10211000892BE9F189819A81AB81BC818093E601A9
:102120009093E701A093E801B093E90181E08093E7
:10213000E5010E9456049093E4018093E3018091AD
:10214000E3019091E4010E943B04059720F144E0F3
:1021500050E066EE71E087E092E00E94A334892BA4
:10216000F9F08091E6019091E701A091E801B0912A
:10217000E9018093070290930802A0930902B093AB
:102180000A0281E01092E50107C080E09BCF8091B8
:10219000E5018111D4CF80E02496E9E00C948834E5
:1021A00080E0F0CFCF938091910390912A05892B05
:1021B000809380018091E001882329F18091B4030C
:1021C0009091B503892B29F00E94B50981110E94D5
:1021D0006609809180019091E001892B80938001B4
:1021E00080911501882309F447C08091AF0487FFCF
:1021F00043C08EE1E2E8F1E090E0815008F03EC09B
:1022000091110E946609C0919804C0958091800147
:10221000C82380919904C82BC093800140E250E00C
:102220006EEB71E080E891E00E94A334892B11F1FC
:1022300080E2E0E8F1E0AEEBB1E001900D928A952A
:10224000E1F7E091A604F091A704309799F080910E
:102250001501882349F08091AF0487FF05C0C09322
:10226000810186E0809380010280F381E02D80E887
:1022700091E00995CF91089586E0BCCF219122236A
:1022800009F4BBCF9F5FB9CFCF93DF93EC014A85B1
:102290005B856E857F850E94EE048B810E949A0982
:1022A0008C810E94A1090E94D21086E0FE01119249
:1022B0008A95E9F7DF91CF910895CF93DF93EC01F1
:1022C0008D8181FD14C082608D8380912A059B8160
:1022D000892B80932A058C810E94A8090E94D21024
:1022E000488559856E857F85CE010E94EE04109247
:1022F000A3041092A2048D8180FD03C0CE010E9430
:102300004411DF91CF91089580911301877F8093CD
:10231000130182E00E949A098091130184FF06C094
:102320008F7E8093130182E00E94A809809113019F
:1023300085FF06C08F7D8093130180E20E94A8096B
:102340000E94D21008951092910380911501E2E845
:10235000F1E0882329F18091AF0487FF21C08EE14D
:10236000DF011D928A95E9F790E080E00E94BC04AD
:1023700090E080E00E94970410922A050E94D210FB
:1023800086E0E4E1F2E0DF011D928A95E9F7109220
:102390000D0210920E0210920F020E947106089513
:1023A00086E0DECFAAE2B0E0E8EDF1E10C94723411
:1023B00088ED94E02091F100DC012D93CD01B4E093
:1023C000803E9B07B9F78091D904833009F472C02D
:1023D000B8F4813009F449C0823009F4B3C0809167
:1023E000E80083FF96C28091D8049091D9049A3076
:1023F00008F08FC2E92FF0E0E45DFA4C0C945634FB
:102400008A3009F48EC08B3009F471C0893039F7F5
:102410008091D804813219F78091DC049091DD0419
:10242000009711F00297D9F68091E800877F80939A
:10243000E8008091E80082FF38C09091F30080911D
:10244000F200029731F48091F100813011F0863072
:1024500021F48091F1008093B3048091E8008B77A0
:102460008093E8000E942E03BACF8091D804813A6D
:1024700009F0B5CF8091E800877F8093E8008091D4
:10248000DC049091DD04892B61F460E284EB94E03C
:1024900070E00E94DA038091E8008B778093E80077
:1024A0009ECF60E090E080E0F3CF8091D604811170
:1024B000C0CF95CF8091D804813A09F090CF809118
:1024C000DC049091DD04892B09F089CF8091E8002C
:1024D000877F8093E8008091E80080FFFCCF8091A7
:1024E00015018093F1008091E8008E77B9CF80913B
:1024F000D804813209F073CF8091DC049091DD041F
:10250000892B09F06CCF8091E800877F8093E800E9
:102510000E942E038091DA04809315010E94A3117A
:102520005ECF8091D804813209F059CF8091E800C4
:10253000877F8093E8000E942E038091DB048093C4
:10254000B2044DCF8091D804813A09F048CF8091F0
:10255000E800877F8093E8008091E80080FFFCCF4F
:102560008091B204BECF803899F0823809F0D1C191
:102570008091DC048F70873008F0CBC18093E90034
:102580008091EB0085FB882780F91092E90006C056
:102590008091D4049091D504911182609091E800CB
:1025A000977F9093E8008093F1001092F100809162
:1025B000E8008E77AAC1882309F498C1823009F017
:1025C000A8C18091DA0481119BC18091DC048F70D5
:1025D0002FEF280F263008F09CC18093E90020914E
:1025E000EB0020FF8DC1933031F48091EB008062CD
:1025F0008093EB0085C19091EB0090619093EB008C
:1026000021E030E001C0220F8A95EAF72093EA002A
:102610001092EA008091EB008860EACF811179C1C5
:102620001091DA041F778091E3008078812B8093EA
:10263000E3008091E800877F8093E8000E942E03EA
:102640008091E80080FFFCCF8091E3008068809358
:10265000E30082E0111183E08093D6045AC18058D0
:10266000823008F056C12091DA043091DB042C3D11
:10267000E3E03E07A1F583E08A838AE289834FB7CE
:10268000F894DE01139620E03EE051E2E32FF0E003
:1026900050935700E49120FF03C0E295EF703F5F35
:1026A000EF708E2F90E0EA30C0F0C7968D939D9327
:1026B0002F5F243159F74FBF8091E800877F8093C7
:1026C000E8006AE270E0CE0101960E94DA03809190
:1026D000E8008B778093E8001CC1C096E7CF80911B
:1026E000DC049091DD04432F55274330510509F454
:1026F0004AC078F54130510509F485C08BE590E07A
:10270000E0EAF3E04230510509F003C12091E8000E
:10271000277F2093E8002091DE043091DF048217A8
:10272000930708F49C0140E02115310509F070C0C1
:1027300041116EC08091E80082FDC9CF8091D6041E
:10274000882329F2853019F28091E80083FFF2CFC7
:10275000BECF4132510509F447C04232510509F05C
:10276000D8C08330910508F0D4C0FC01EE0FFF1FE4
:10277000EE58FE4F0190F081E02D81599E4FDC0113
:102780008C9190E01DC0332721303105E9F02115EF
:10279000310579F022303105F9F02330310509F0A7
:1027A000B8C0EDE0F4E0E4918E2F90E0EDE0F4E0CD
:1027B00007C0E5E5F4E0E4918E2F90E0E5E5F4E074
:1027C000009709F4A6C0A2CFE1E4F4E0E4918E2FD3
:1027D00090E0E1E4F4E0F4CFEBE2F4E0E4918E2F5A
:1027E00090E0EBE2F4E0ECCF8330910508F091C08B
:1027F000880F991FFC01E858FE4F0190F081E02DF1
:1028000089E090E083CF82E190E0EBEFF3E07ECFD0
:102810008091D604882309F45ACF853009F457CF24
:102820008091E80083FD53CF8091E80082FD82CF44
:102830008091E80080FF78CF9091F3008091F200C2
:102840002115310519F08830910550F041E00897C5
:1028500009F040E08091E8008E778093E80064CF33
:1028600044914093F1003196215031090196E8CF0F
:10287000803809F04EC08091E800877F8093E8009F
:102880008091D7048093F10092CE811142C01091C3
:10289000DA041230F0F58091E800877F8093E80039
:1028A0001093D7040E942E03112311F084E005C079
:1028B0008091E30087FDFACF81E08093D60442E067
:1028C00061EC81E00E944D0342E261EC84E00E94F1
:1028D0004D0342E261EC82E00E944D0342E260EC73
:1028E00083E00E944D038091D60413C08091DA04E6
:1028F000813079F481E0933009F080E08093D50451
:102900001092E9008091E800877F8093E8000E94A0
:102910002E038091E80083FF0AC08091E800877F42
:102920008093E8008091EB0080628093EB00AA9690
:10293000E3E00C948E34E2EBF3E0128E138E8FEA18
:1029400090E09183808325E0248F88E893E193834E
:1029500082838AE090E09583848344E150E057834A
:10296000468348E050E051874087938782876EE135
:1029700070E0758764879787868780E590E0918B04
:10298000808B538B428B48E250E0558B448B42E363
:1029900050E0578B468B48EC50E0518F408F158E9E
:1029A000178E168E91A380A322A30E94A40E0E94CC
:1029B000A3111092B0041092AF04E0EBF4E0808118
:1029C000846080836091AF047091B00484E090E0F3
:1029D0000E940C350E94C10E0895AEE1B0E0E3EF15
:1029E000F4E10C94653460908A0470908B0481E06B
:1029F00090E090938B0480938A04512C4CE9A42E90
:102A000043E0B42E5EE9852E53E0952E10E000E001
:102A10001DC04E2D21E030E0511008C0F701EE0F2F
:102A2000FF1FEC0DFD1D859194919C01642D852D5A
:102A30000E94180D2FEFE21AF20A34E0E316F104B7
:102A400041F70F5F1F4F0430110571F0C80123E0FB
:102A5000880F991F2A95E1F7FC01E458FC4F6F019C
:102A6000F12CE12C402ED5CF21E030E0511004C0F4
:102A7000F501859194919C0141E060E0852D0E94D3
:102A8000ED0C21E030E0511004C0F40185919491E7
:102A90009C0140E060E0852D0E94ED0C5394FAE02B
:102AA0005F12B4CF0E949B141A8219821C821B826F
:102AB0001E821D8218861F8288EC90E09A87898783
:102AC00005EB11E04AE050E0B801CE0101960E940A
:102AD0001235065F1F4F053022E0120799F77E017D
:102AE0003BE0E30EF11C8AE0F70111928A95E9F7C9
:102AF0004AE050E0B801C7010E941235065F1F4F3F
:102B00000535F2E01F07A1F77E0125E1E20EF11C79
:102B10008AE0F70111928A95E9F78FEF9FEF9A8F7C
:102B2000898F87E08E8F4AE050E0B801C7010E948C
:102B30001235065F1F4F053AF2E01F07A1F77092AA
:102B40008B0460928A046E96E0E10C94813480E0FC
:102B50000E943F0D60E088E290E00E94EE340E9407
:102B6000ED140E94DD0C81E00E943F0D0895CF928C
:102B7000DF92EF92FF928FEF9FEF4430510508F400
:102B80006CC0FB01C080D180E280F3800E94A31161
:102B90008091AF04C0FA80F9B701A60176956795D8
:102BA0005795479540FB81F9B701A60122E076953C
:102BB0006795579547952A95D1F740FB82F9B7015C
:102BC000A60133E076956795579547953A95D1F7E5
:102BD00040FB83F9B701A601E4E076956795579528
:102BE0004795EA95D1F740FB84F9B701A601F5E0D6
:102BF0007695679557954795FA95D1F740FB85F9F6
:102C0000B701A601A6E07695679557954795AA95D1
:102C1000D1F740FB86F9B701A601B7E07695679535
:102C200057954795BA95D1F740FB87F98093AF0444
:102C30008091B004D0FA80F9D1FACC24C0F8C0FA5F
:102C400081F98093B0046091AF047091B00484E086
:102C500090E00E940C3590E080E0FF90EF90DF90D4
:102C6000CF9008950E94A3112FEF84E39CE02150A0
:102C700080409040E1F700C0000088E19CE00FB682
:102C8000F894A895809360000FBE90936000FFCFEA
:102C9000882321F00E949A090E94D2100895882367
:102CA00039F090912A05982B90932A050E94D21012
:102CB0000895882321F00E94A1090E94D21008954E
:102CC000882321F00E94A8090E94D2100895882329
:102CD00081F19CEF980F913A28F40E94D9090E9443
:102CE000D210089590E2980F983050F4877091E0D8
:102CF00001C0990F8A95EAF7892F0E94A109EFCFA9
:102D00009BE5980F933028F490E080E00E94BC048B
:102D1000089598E5980F9B3128F490E080E00E9498
:102D20009704089593E3980F933118F460E00E949C
:102D3000390B0895FF920F931F93CF93DF93F82ED3
:102D400000919D0410919E040115110509F449C0DC
:102D500010929C0410929B04109298041092990473
:102D6000D8011796CD91DC919E013A9521153F41EE
:102D700008F4D07ED1E0C11101C0D0E0D8011A968C
:102D8000ED91FC911B97309731F01C966D917C91E1
:102D900080E00995D823DD2339F08CEF8C0F813A40
:102DA00030F58C2F0E94D909FF2099F0E0919D0405
:102DB000F0919E04818584FD0CC080919A04882343
:102DC00041F0808191819C01215031092F333E4790
:102DD000A0F00E94D21010929E0410929D041092B6
:102DE0009A04C801CDB7DEB7E5E00C948C340E949C
:102DF000D2108C2F0E946716D7CF0E94F404E9CF1F
:102E0000CF93DF93EC010E946716CE010E94110C54
:102E10009E01205E31092830310510F0CD2B29F4B8
:102E20000E945916DF91CF9108950E944816FACF5B
:102E3000CF93C82F8823C1F18CEF8C0F813AB0F566
:102E400080911501882301F18091AF0487FF1CC098
:102E5000EC2FE695E695E695F0E0E058FE4F82818E
:102E600090E04C2F477021E030E002C0220F331F6A
:102E70004A95E2F782239323892B79F08C2F0E94C5
:102E8000D9090E94D21009C0E2E8F1E08191C81787
:102E9000A9F381E0E838F807C9F76C2F80E891E0E2
:102EA0000E9462040E94D210CF91089580E28C0F9C
:102EB000883048F4C77081E001C0880FCA95EAF7EE
:102EC0000E94A809EFCFEBE5EC0FE33040F4F0E00F
:102ED000E25EFE4F808190E00E94BC04E5CFE8E511
:102EE000EC0FEB3150F4F0E0EE0FFF1FEF5DFE4F03
:102EF000808191810E949704D7CF83E38C0F833127
:102F000098F661E08C2F0E94390BCECF1F93CF93A0
:102F1000DF93182FC091D203D091D303893321F0CE
:102F2000C091D003D091D103812F0E941817209710
:102F300039F4812F0E946716DF91CF911F91089578
:102F40008FE99FE00197F1F700C000002197EFCFD4
:102F5000B0E0A0E0EEEAF7E10C946B34EC018AE01B
:102F6000A82E2881222309F48FC02130C9F5998128
:102F70008A81913021F422960E94861705C09230F2
:102F800029F422960E9418172196EBCF933021F452
:102F900022960E946716F8CF943011F02196F4CF54
:102FA000229630E020E0AE014F5F5F4F8053990BD7
:102FB0008A30910550F02150310930F38FE99FE0BC
:102FC0000197F1F700C00000F6CFA29EB001A39ECA
:102FD000700D11249C01260F371F8981EA01E3CF70
:102FE000E22FF0E0E757FB4FB490822F869586954D
:102FF000869590E0FC01E758FB4FE4902770F12C98
:10300000022E02C0F594E7940A94E2F731E0E3223D
:10301000FF24FC01E759FB4FC490D12C022E02C0C3
:10302000D594C7940A94E2F731E0C322DD24FC0171
:10303000E75AFB4F049110E002C0159507952A95B9
:10304000E2F701701127E114F10419F081EE0E94FA
:103050001817C114D10419F086EE0E9418178B2D91
:103060000E948617C114D10419F086EE0E946716DB
:10307000E114F10419F081EE0E94671601151105A3
:1030800009F482CF8CE278CFCDB7DEB7EAE00C94BA
:103090008734B0E0A0E0EFE4F8E10C946B347C01FD
:1030A0005B01C42FD22FFC0185818823A9F04093B6
:1030B000A1040E9456049093A00480939F04C770BB
:1030C00081E001C0880FCA95EAF70E946016CDB76B
:1030D000DEB7EAE00C9487341091A104141338C0D1
:1030E00080919F049091A0040E943B046C01B70161
:1030F000C5010E946C0DC816D90650F5C0E2CD0F6F
:103100001D17C1F080E2810F883048F4177081E00C
:10311000012E01C0880F0A94EAF70E945916C830A0
:1031200048F481E09D2F977001C0880F9A95EAF7C7
:103130000E946016802F0E948617C83040F6D77014
:1031400081E001C0880FDA95EAF70E945916BFCFD7
:10315000C77081E001C0880FCA95EAF7F6CFCF9318
:10316000DF93EC010E94110C9E01205E3109283092
:10317000310510F0209741F40E9460168C2F0E94B8
:103180001817DF91CF9108950E944F16F7CF66234D
:1031900029F020912A05226020932A059C013052B3
:1031A0002115304308F499270E94AF180895B0E024
:1031B000A0E0EDEDF8E10C946D346C018B01E42E90
:1031C0008091130182FF87C0C091D803D091D903A9
:1031D000CC15DD0521F0C114D10409F07CC080912B
:1031E00013018B7F8093130181FD6EC08091D60304
:1031F0009091D703A801481B590B81E02091110140
:10320000309112014217530708F480E08170F82EC4
:1032100080911301F0FA81F980931301FE0183E09C
:10322000F695E7958A95E1F7EE71FF27EE56FC4F8C
:1032300020813181AE014F70552781E090E002C0BE
:10324000880F991F4A95E2F7FF2009F43FC0822BAF
:10325000932B918380838091910381FF08C080919B
:10326000130180618093130182E00E94A109809183
:10327000910385FF08C08091130180628093130140
:1032800080E20E94A1096F2DCE010E94C718EE2096
:1032900031F08091CD0385FF02C086FF30C0809160
:1032A000D0039091D1030E94D30C8091D8039091C8
:1032B000D9039C0130522115304308F499270E940C
:1032C00000170E94841117C081E0A0CF80959095CF
:1032D00082239323BECFC601905281159043A0F460
:1032E000C60199270E9400178091D8039091D903B5
:1032F0008C159D0531F31093D7030093D603CDB7FA
:10330000DEB7E8E00C948934C601ECCFA7E0B0E06A
:10331000ECE8F9E10C9463347C01DC0114968C91A7
:10332000882309F457C161E0C7010E94950E8C0102
:10333000F7018581882319F18091A2049091A3045B
:103340000097E9F008171907D1F09927F4E0880FE2
:10335000991FFA95E1F7FC01ED5CFD4F2081246097
:103360002083825D9D4FDC010D931C930E945D11B3
:1033700010922A0561E0C7010E94950E8C01F701A9
:103380008581882309F4B1C0C80197578038910519
:1033900008F0DEC0D02EFFE0F01708F40BC18FEF6D
:1033A00093E00E94D034811105C105EA12E0D110EA
:1033B00036C019821A821B821C8299249A94680151
:1033C0003FEFC31AD30AC8010E94D03489831A82FE
:1033D000882309F4EFC0813009F081C0580142E030
:1033E000A40EB11CC6010E94D034C82E8A83882343
:1033F00009F4E0C0C5010E94D034D82E8FEF8C0DA7
:103400008330D8F4580153E0A50EB11CDB82DD20D7
:1034100021F0CE0101960E94A8178501D0CF011599
:1034200024E0120709F4C6C0C8010E94D0348111FB
:1034300001C0DA940F5F1F4FBACF8BEF8C0D833032
:1034400030F5C8010396DB825C01DD2031F35801C1
:10345000A4E0AA0EB11C0E94D0348C838823E9F228
:103460008B819C818130BFEF9B0710F0982F8827BC
:10347000E6E0CE1631F0F7E0CF1631F00E940829D1
:10348000CCCF0E94E328C9CF0E946A28C6CF24E08F
:10349000C212C3CF580134E0A30EB11CC801039679
:1034A0000E94D034DD2009F485C0882309F482C04D
:1034B0008150990B989E9001999E300D11244D2DAD
:1034C0004150550BCA01820F931F019708F4A5CFF5
:1034D000AFE9BFE01197F1F700C00000F6CFCE01D1
:1034E00001960E94A817560198CF6801E7E5DE1AF9
:1034F000FFEFCF16D10409F058F564E272E08C2D8D
:103500000E94580D892B21F5C60174E0880F991F80
:103510007A95E1F7FC01E25DFD4F22812130A1F5B2
:103520002091240230912502232B91F02091260234
:1035300030912702232B61F020912802309129023B
:1035400040912A0250912B02242B352B232B21F161
:10355000D70115965C90552009F440C00E35BCE7A4
:103560001B0729F10F35ECE71E0741F00D35FCE78D
:103570001F07A1F5809100018823C9F01092000176
:1035800080E00E949A1616C0223011F7209128027E
:1035900030912902232BE1F2FC01ED5CFD4F2081EB
:1035A0002E7F2083825D9D4F0E945D11D1CF81E0EF
:1035B000809300018091BD01877061F0D70115965D
:1035C0008C91882339F08091B00482FF03C082E09F
:1035D0000E94DB0A2796E2E10C947F34809100017F
:1035E000882309F48BC6480120EE821A9108409086
:1035F000E0018091BA01482A80919103482A38E07D
:103600008316910408F086C098012770332781E063
:1036100090E001C0880F2A95EAF7552009F477C099
:10362000482AD7018D919C910E94350A21E030E013
:10363000F90102C0EE0FFF1F8A95E2F7FF83EE83C8
:1036400020909D0430909E046090A0017090A10194
:103650001D822D81E22FF0E0EE0FFF1FE150FD4FA4
:10366000C080D180C114D10409F4A3C6411005C0A3
:10367000D60112968C91811189C0F60183819481C3
:103680002E813F8182239323892B09F47FC081857A
:10369000982F977009F487E038E08316910408F0BA
:1036A00053C0552009F44CC086958170882309F4D5
:1036B0006DC0D601AD90BC900A151B0519F45520BC
:1036C00009F464C0C214D30409F460C0D6011E9684
:1036D000ED91FC91309721F08081882309F456C048
:1036E000642DC6010E944505882309F44FC00A15C0
:1036F0001B0509F0C6C60115110509F4C7C651100E
:10370000C7C6A614B70409F041C0512CC1C68095A4
:10371000482287CF552009F435C61093A1010093A4
:10372000A0010E944A0460939404709395048093CE
:1037300096049093970410929C0410929B0471CF6E
:1037400082FB882780F9B2CF552001F18170AECF7E
:103750000E946716BBC60497813A910558F46A2DFA
:1037600080E891E00E946204552009F4C7C50E94D8
:10377000D21020CF0E94D2108FE39CE90197F1F77D
:1037800000C000008A2D0E941817EECF9D819F5F18
:103790009D835FCFFC01208131810217130709F05F
:1037A000A6C55110A6C510929A0480E00E949A16F0
:1037B000A5C5902F812FE1C5F90144855585668502
:1037C0007785C9010E94EE04D60115968C9181FF80
:1037D00004C6C6010E9444118091A2049091A304E2
:1037E0000817190709F0F9C51092A3041092A20452
:1037F000F4C590911301892F8E7F90FF8160809393
:1038000013010E94841114C6809113018E7FF7CF9B
:10381000809113018F7E013E110531F0053E1105A7
:10382000E9F4809113018F7D80931301809113013E
:1038300080FF29C0D70115968C910832110570F5CB
:103840000E31110508F07BC004301105C8F588233E
:10385000D1F01092D9031092D80315C0C80190522C
:103860008115904318F78091130182FF0CC080915D
:10387000CF0381FD08C025EF31E040E0B60190E0C4
:1038800080E00E94D718F801E851FC47E730F105C5
:1038900008F0D8C5EA5CFA4C0C945634093311058B
:1038A00058F40D32110518F40B32110581F6909180
:1038B000CD0392FDCCCF08C004361105C1F3C7CFAC
:1038C0009091CD0394FDC3CF882309F4A8C08091C3
:1038D000E00190919103892B8D7FB1F11092D90372
:1038E0001092D8038091CD0381FD2EC0F80143E0F2
:1038F000F695E7954A95E1F7EE71FF27EE56FC4FF6
:1039000098012F70332781E090E002C0880F991F43
:103910002A95E2F780959095208131818223932327
:103920009183808360E0C8010E94C7188091E00104
:103930008D7F0E94710982E00E94DB0A3BCE90914C
:10394000CD0393FD84CFC0CF89E0F701A5EFB1E0AF
:1039500001900D928A95E1F71092FA011092F80108
:103960001092F7018091D8039091D9030817190795
:10397000D1F52091CD0325FF36C03091130131FFE1
:1039800002C026FF30C02091D6033091D7035601E4
:10399000A21AB30AB7010E946C0DA816B90618F551
:1039A0008091910381FF08C0809113018061809311
:1039B000130182E00E94A1098091910385FF08C054
:1039C0008091130180628093130180E20E94A1091B
:1039D00060911301669561708091D8039091D9032D
:1039E0000E94C718E7CD8091E00190919103982B38
:1039F0002091130191FB21F9209313018D7F0E94E7
:103A000071091093D9030093D803D092D703C092C1
:103A1000D603809113018460809313018CCF9701AA
:103A200040E0B601C8010E94D718C4CD06E221EEDD
:103A300041EE6AE17CE7C7010E944918BBCD07E26D
:103A400025EE45EE6BE17CE7F6CF06E221EE40EE97
:103A500068E17CE7F0CF07E225EE44EE69E17CE720
:103A6000EACF06E221EE42EE6CE17CE7E4CF07E22A
:103A700025EE46EE6DE17CE7DECF08E221E045EE83
:103A80006EE17CE7D8CF8091AF0481608093AF0472
:103A900095C08091B00488608093B0048FC08091FD
:103AA000AF048260F3CF8091AF048460EFCF809148
:103AB000AF048860EBCF8091B0048160EDCF80913E
:103AC000B0048260E9CF8091AF048061DFCF809144
:103AD000AF048062DBCF8091AF048064D7CF0E94B7
:103AE000A3118091AF048068D1CF8091AF048C6026
:103AF000CDCF8091B0048360CFCF8091AF048E7F13
:103B0000C5CF8091B004877FC7CF8091AF048D7FF0
:103B1000BDCF8091AF048B7FB9CF8091AF04877FF9
:103B2000B5CF8091B0048E7FB7CF8091B0048D7FE8
:103B3000B3CF8091AF048F7EA9CF8091AF048F7DEA
:103B4000A5CF8091AF048F7BA1CF0E94A31180915C
:103B5000AF048F779BCF8091AF04837F97CF809105
:103B6000B0048C7F99CF8091AF0482FB992790F9A4
:103B700021E0922790FB82F990FB83F987CF809117
:103B8000B004982F909591708E7F892B90FB81F9CE
:103B900083CF9091AF04892F8F7B96FF806476CF7F
:103BA0000E94A3119091AF04892F97FB87F9805849
:103BB0006DCF61E08EE090E00E94EE346091AF0442
:103BC0007091B00484E090E00E940C350E94A31133
:103BD000F1CC60E0EFCF9091AF04892F8F7E94FFFE
:103BE000806154CF9091AF04892F8E7F90FF8160C8
:103BF0004DCF9091B004892F877F93FF88604CCF81
:103C00000631FCE71F07B9F580919103982F9A7A46
:103C10003091CC0330FF04C0482F447409F090E089
:103C200031FF04C0482F417109F090E032FF04C019
:103C3000482F487809F090E033FF03C0827209F002
:103C400090E0222371F081E0911101C080E0809327
:103C5000A20169E2911165E380E891E00E946204AB
:103C600086CD8091A201811104C089E20E94D90908
:103C70007ECD85E3FBCF07373CE7130709F458C037
:103C800008374CE7140709F45EC0222381F00330A3
:103C90005CE7150709F477C008F05AC001159CE7E6
:103CA000190709F463C001301C4709F472C0F70119
:103CB00087819085009709F47AC00E944808182FE0
:103CC000092FF701C580B680B2943FE0B3228091FE
:103CD000BD018770F1F0AC2CCC20E1F0892F807F02
:103CE000803451F080E2810F883098F0B11004C028
:103CF000892F807E803269F08091B00482FF09C0F4
:103D000082E00E94DB0A8091BD018770AA24A394FF
:103D10008111A12C902E92942FE09222FBE0F915B4
:103D200008F4D5C0E92DF0E0E35CFA4C0C9456346D
:103D300081E0222351F00E94F20A43E062E081E038
:103D40000E949D0A37CC82E0F4CF0E94C90AF5CFC9
:103D50000B35BCE71B0749F10C35ECE71E07D9F022
:103D60000A351C4709F0A3CF81E01CC00E94A311B3
:103D70002FEF34E34CE0215030404040E1F700C0E9
:103D800000000E94AF0C6FEF7FEF90E080E00E9498
:103D90000C350E9432168091B00482FB882780F98E
:103DA00091E089270E94000F82CF80E0FBCF8581C0
:103DB00000811181882369F0C8010E941B0ED82E52
:103DC000682FC8010E947D0AB8018D2D0E94ED0D5B
:103DD00074CFC8010E94350AD82EF6CF202F2F703D
:103DE000D22E802F807F19F0D29490EFD922CC2050
:103DF000A9F0DD2059F080E2810F883010F0111118
:103E000007C08D2D0E94A8090E94D210812F5DC08D
:103E100080912A05D82AD0922A05F6CF812F0E94B8
:103E20006716DD2009F453C080E2810F883010F05E
:103E3000111104C08D2D0E94A10903C08D2D0E9477
:103E40009A090E94D21043C0302F3F70D32E802F8A
:103E5000807F803219F0D29480EFD822112339F17B
:103E6000113009F4B6C0CC2009F4C2C0BB2009F45B
:103E700066C020E0D7014C9111965C911197129683
:103E80006C91129713967C91139714968C911497BA
:103E900015969C910E94700E8091CF0381FDB6CF44
:103EA000F701868180FFB2CF8F70868348C08091F2
:103EB000B00482FD40C0CC20C1F1DD2029F08D2D61
:103EC0000E94A8090E94D21080E00E941817A92D14
:103ED000A850BB0B149710F40E94E104812F902F7F
:103EE0000E941E0B8111E3C11092A4011092A30144
:103EF000AA20B1F08091BD0180FD12C0D7011596B6
:103F00001C928695869586950E94F20AC7010E94AA
:103F100086198091BD018695869586950E94C90A6D
:103F200060E0C7010E94950E55CB80E00E946716A5
:103F3000DD2069F27FCFCC2091F1B11004C08D2D2E
:103F40000E946016C4CF41E0B41211C08090E0011D
:103F50008D2D8821D81609F4BACF0E94560490936B
:103F6000DF018093DE01D828D092E001B0CF8091AC
:103F7000CE03823008F4ABCFB812A9CF8D2D0E94AA
:103F800060168D2D0E9485098091BA019D2D982380
:103F9000D91609F49CCFD82AD092BA0198CFB11083
:103FA0000AC08D2D0E9459168D2D0E9485098D2DD8
:103FB0000E94CF098CCF8091CE03823008F487CF46
:103FC00051E0B51284CF809191038D2109F47FCF08
:103FD000E8CF8091D403CC2021F08B1508F477CF63
:103FE000AECFB81608F073CF8D2D0E9459166FCF43
:103FF000BB20D1F38091D2039091D303193321F0E8
:104000008091D0039091D1030E94D30C812F0E9404
:1040100067165DCF802F86958695837069F0813015
:1040200009F055CF812F902F9370C11002C080E00E
:1040300090E00E9497044BCF812F902F9370C11076
:1040400002C080E090E00E94BC0441CF6C2D812F23
:104050000E94390B3CCF802F837009F040C0C11003
:1040600036CF412F429546954770440F440F812F1C
:104070008F7090E0042E02C0880F991F0A94E2F717
:1040800030E020E014FF09C02FE030E002C0220F32
:10409000331F4A95E2F720953095402F4695469577
:1040A0004370423099F078F46091EA017091EB012D
:1040B000413039F0822B932B862397230E94190BD2
:1040C00006CF862B972B822B932BF8CF822B932B0B
:1040D0002091EA013091EB0182279327EFCF86955B
:1040E000CC2011F0802F8170882309F4F0CE412F6D
:1040F000429546954770440F440F812F8F7090E092
:10410000042E02C0880F991F0A94E2F730E020E0E5
:1041100014FF09C02FE030E002C0220F331F4A9580
:10412000E2F720953095402F4695469543704230F2
:1041300099F078F46091EC017091ED01413039F023
:10414000822B932B862397230E94980AC0CE862B1E
:10415000972B822B932BF8CF822B932B2091EC0162
:104160003091ED0182279327EFCFF02FFF70DF2EE4
:10417000CC2029F08F2F0E94F20A812FE1CE812FCF
:104180000E9459168D2D0E94C90AA1CE123F79F1C5
:1041900060F4103FB9F0113F81F0CC2009F482C0E7
:1041A000B11034CE802F8F7126C0133F39F1143FE8
:1041B000A1F78091B00482FD32C0802F8F71CC2096
:1041C00011F319C08091D403CC2069F0B81608F01F
:1041D0007ECE202F2F7181E090E002C0880F991FC2
:1041E0002A95E2F7BBCF8B1508F471CEF2CF802F62
:1041F0008F71C110C8CF0E94F20A69CE90E080E0B2
:10420000CC2009F4A1CF21E030E0902F9F71A901CB
:1042100002C0440F551F9A95E2F7CA0195CF8091CD
:10422000CE03823040F1CC20D1F09091BD01977047
:10423000943041F40E94AE09802F8F710E94C90A08
:10424000A12C45CEB816E0F7502F5F71D52E852FE3
:104250000E94F20A63E08D2D0E94020BF1CFB81686
:1042600030F00E94AE0964E0802F8F71F5CF81E0BD
:104270000E94DB0AE5CFCC2051F0802F8F71D82E21
:104280000E94F20A63E08D2D0E94020B20CE81E095
:104290000E94DB0A91E09B1508F019CE82E00E9493
:1042A000DB0A15CEB110A6CE802F8F716CCFCC203B
:1042B00019F0B11019CE1CCEB11016CE20E0F701C6
:1042C0004081518162817381848195810E94700E49
:1042D0008091CF0383FF08CE8091A3019091A40128
:1042E000029709F001CE812F0E948617FDCD55203F
:1042F00029F0DC0119968C9185FF57CAC8019755A2
:104300008F3F910511F008F068C0F801FF2754E0D5
:10431000EE0FFF1F5A95E1F79F01225D3D4F6901A6
:10432000D70115968C91ED5CFD4F908180FB90F943
:104330009083882309F440CA0E9456049093F401A4
:104340008093F301F60182818F5F828380912A0539
:1043500090919103892B83838091E001848346812E
:10436000578166857785C6010E94EE04D6011596B1
:104370008C9181FF1ECA90E080E09093A20480930C
:10438000A3042BC08091A0019091A10108171907E7
:1043900081F41092A1011092A00110929404109245
:1043A0009504109296041092970410929C04109217
:1043B0009B0480919D0490919E04009709F49ECFE8
:1043C000A8E08A16910408F0E5C9642D0E9445050D
:1043D000811103C081E00E949A168091CD0380FF75
:1043E00052CA0E9456046C01F7018581882309F4A2
:1043F0000FCA8091130182FF08C025EF31E040E031
:10440000B60190E080E00E94D7180431FCE71F0756
:1044100009F4FAC905312CE7120709F4EAC9033196
:104420003CE7130729F48091130181608093130105
:10443000C80190528115904308F0F8C91092D90331
:104440001092D803F7012581222309F4D9CB1092C9
:10445000A104C8019057839708F0D2CB84E090E084
:104460000E94D8349093B0048093AF04F801E150D7
:10447000F047E232F10508F006CBE75BFA4C0C940A
:104480005634A114B10409F03CC9512CB12CA12C13
:1044900080E00E949A16D0929E04C0929D0481E012
:1044A00080939A04F60186818093980451100EC07F
:1044B000AB2861F0F601808191819C012450310983
:1044C000213A310508F044C90E94D909D60117964E
:1044D000AD90BC90C5019A9581159F4110F4E0EE16
:1044E000BE2277247394C50101978F339E4708F04D
:1044F000712CD6011A96ED91FC911B97309731F0F3
:104500001C966D917C9181E009957822772079F055
:10451000F601878190850E94110C80939904C50152
:10452000F8E08F16910408F016C90E94F4040E9466
:10453000D2101AC9B0E0A0E0E0EAF2E20C946E34C6
:104540008091B701807F09F054C08091B601882323
:1045500009F44FC0E091290589E0D82E8091E0044C
:104560008E1709F446C00E2F10E0ED9DF0011124C6
:10457000EF51FB4F8481882309F440C0D09EE001B5
:10458000D19ED00D1124FE01EF51FB4F91818091FE
:10459000B201981333C090818091B10198132EC05D
:1045A000858181112BC0E280F3808091B3019091CD
:1045B000B401E81AF90A60E081EB91E00E94950EDF
:1045C00061EB71E00E946C0DE816F906B8F4809179
:1045D000B7018F7080618093B701C951DB4F88812B
:1045E0008F708061888381EB91E00E9486190E9420
:1045F000040ACDB7DEB7E7E00C948A34F8013196AF
:10460000E770ACCFA8E1B0E0E8E0F3E20C946634E8
:104610008C0186E0F801DE01539601900D928A9597
:10462000E1F7D80114967C9014971596EC9081EBE5
:10463000A82E81E0B82E8091B50181112AC0711099
:1046400003C0FF24F3941CC0EE20F9F0C8010E94BF
:104650005C0EF82E8823C9F089E0F801A1EBB1E0E7
:1046600001900D928A95E1F78091B501813031F486
:104670008091B1019091B2010E944F0E0E949A2246
:104680008F2D6896EFE00C948234C8010E94861941
:10469000D8CFF80150806180C280D38060E081EB88
:1046A00091E00E94950EF090B6018091B301909137
:1046B000B4014601881A990A60E081EB91E0FF207D
:1046C00009F428C10E94950E61EB71E00E946C0D07
:1046D0008816990608F0D1C0772009F4B2CF8091EE
:1046E000B701382F307F2091B201D80111969C91EB
:1046F0001197311171C029131FC02091B1019C91F4
:1047000029131AC04091B8015091B90117962D9103
:104710003C914217530781F4E11054C08F708061BF
:104720008093B70181EB91E00E9486198091B701D7
:10473000F8018683F12CA4CFE11044C0662D852DAD
:104740000E94BF02E82E882381F08091CF0380FF72
:10475000F1CF81EB91E00E94861989E0E1EBF1E075
:10476000DF011D928A95E9F7E5CF5B8A6C8A8B8918
:104770009C890E944F0E292F22952F70243058F4C7
:104780009F70223088F0992399F0F8019681907FEC
:1047900079F4FE2C75CF2A5F2F70223068F0C801A3
:1047A0000E948619EF2CF5CF992311F0882389F305
:1047B000805E883070F3F3CF803F58F3815F8330A1
:1047C00070F7E7CF8091B70181608093B701809146
:1047D000CF0381FDAFCFBDCF291320C02091B10100
:1047E0009C9129131BC04091B8015091B9011796B3
:1047F0002D913C9118974217530781F4E1100EC098
:1048000016968C93C8010E94861989E0F801A1EBE5
:10481000B1E001900D928A95E1F732CFC8010E9474
:104820005C0E882309F431CFEE2009F42ECF80915D
:10483000B7018032B8F02091B1013091B2013B87CD
:104840002A87DD86CC869091B5019E871F86888B4E
:104850008091B8019091B9019A8B898BCE010A960B
:104860000E94861989E0F801A1EBB1E001900D9258
:104870008A95E1F70E949A22E4CE8091B701982FA1
:10488000907F09F466CF772009F4DBCE2091B20146
:10489000F801918129131AC02091B1019081291347
:1048A00015C04091B8015091B90127813085421758
:1048B000530761F4E1100AC08683C8010E9486197B
:1048C00089E0D5011D928A95E9F7DACEC8010E94E8
:1048D0005C0E882309F4D9CEEE2009F4D6CE80915F
:1048E000B701803208F4BECF2091B1013091B201FE
:1048F0003A832983DC82CB829091B5019D831E820D
:104900008F838091B8019091B90199878887CE01F2
:104910000196A6CF0E94950E61EB71E00E946C0D8E
:104920008816990608F04AC0772009F48ACEFE2C32
:10493000EE2009F4AACE9091B201F801818198137A
:104940002FC09091B101808198132AC02091B801A5
:104950003091B901878190852817390709F5809131
:10496000B3019091B401C81AD90AF8ECCF16D1045A
:1049700008F04BCF9091B70190FD47CF907F09F49D
:1049800044CF8091B701D80116968C931697903F2B
:1049900009F438CF982F907F905F8F70892B30CF9C
:1049A000C8010E945C0E81115DCF8091B7018160CA
:1049B0008093B701C8010E94861962CE89E0F50193
:1049C00011928A95E9F75CCEA2E1B0E0EAEEF4E25A
:1049D0000C9471340A871B872C873D874E875F872D
:1049E000688B798B8A8BCE010A960E9402238111F3
:1049F0000CC089E0FE013A96DE01119601900D92FD
:104A00008A95E1F78E8581110BC019E08091290507
:104A10009091E004891331C06296E4E00C948D34E7
:104A20002091E00430E0C9010196877099274091F8
:104A300029054817190699F099E0929FD001939F94
:104A4000B00D1124AF51BB4FFE01319601900D9274
:104A50009A95E1F78093E0040E94040AD6CF0E9461
:104A6000A3111092E0041092290589E0E1EBF1E036
:104A7000DF011D928A95E9F7C8CF819FC0011124FB
:104A80008F519B4F0E940223882331F28091290588
:104A900090E001968770992780932905B7CFEF9210
:104AA000FF920F931F93CF93DF9380911504882378
:104AB00061F0E091DC038DE0F82E80911504E81799
:104AC00048F0109215041092DC03CDB7DEB7E6E093
:104AD0000C948B34EE24E394EE0EE092DC03CE2FA4
:104AE000D0E0EF9DF0011124EA5EFB4F8481882322
:104AF000E9F087819085892B21F481859285019643
:104B000059F400811181228133814481558166816C
:104B1000778180850E94E424FC9EF001FD9EF00DCB
:104B20001124EA5EFB4F148210922A05EE2DC5CFA8
:104B300010928904109288041092140180918704C5
:104B4000809386040E9493050E944F250895B0E04B
:104B5000A0E0EDEAF5E20C946434C091860497E09D
:104B6000992E01E010E02DE0322E34E0432E552442
:104B70005394809187048C1309C00E944F250E9492
:104B80009305CDB7DEB7E1E10C948034D0E0FE01AF
:104B9000EE0FFF1FE258FB4F80819181989ED0015C
:104BA000999EB00D1124A352BC4F14962C911497CA
:104BB000211159C060901504E6E1F4E030E020E0F6
:104BC000812C5D01261508F04CC0E384F484D501E6
:104BD000CD90DC906FEF7FEF712C472D50E0DA0124
:104BE000AA0FBB1FAC0DBD1D0D90BC91A02D109741
:104BF00031F0EA16FB0609F4BA017394EECF6F3F69
:104C00007607A9F1D80102C0AA0FBB1F6A95E2F787
:104C10008A2AB801072C02C0660F771F0A94E2F7B0
:104C2000AB01415051098416150601F5329EF00181
:104C3000339EF00D1124EA5EFB4F989ED001999EA1
:104C4000B00D1124A352BC4F12962D913C91139795
:104C5000308727834482108211829287818715963C
:104C60005C920E9465052196C37083CF14822F5FEA
:104C70003F4F3D96A7CFAEE1B0E0E1E4F6E20C9401
:104C800063344B8B5C8B6D8B7E8B8F8B988F8823E3
:104C900049F08091A3019091A40101969093A40101
:104CA0008093A301888D811110922A05188A198A90
:104CB0001A8A86E0FE017396DE011A9601900D9223
:104CC0008A95E1F78091B00482FF1EC08091B40301
:104CD0009091B503892BC1F00E9456042091BB012D
:104CE0003091BC01821B930B2091B4033091B5032A
:104CF0008217930720F08091BD0182FFE7C10E94D7
:104D0000B50981110E9466098E85882389F061E0CA
:104D1000CE010A960E94950E6C018F8520E5C21681
:104D20002CE7D20689F4882329F181E080931401CD
:104D30000A851B852C853D854E855F856889798927
:104D40008A890E94E424CDC031E5C3163CE7D3062E
:104D500029F4882379F00E949825EACF42E5C41609
:104D60004CE7D40639F4882329F08091140181118D
:104D7000F2CFDBCF9DEDE92E93E0F92E412CB12C43
:104D8000A12C88248394912CBE016F5F7F4F7A8F72
:104D9000698F22242394F7014081518166246A940B
:104DA000762C20E0822F90E0FC01EE0FFF1FE40F35
:104DB000F51F608171816115710531F0C616D70646
:104DC00009F43C012F5FEECF312CFFEF6F167F0609
:104DD00009F448C0F701448130901401832D41113A
:104DE00080E0F82FF1703F2EF701558086819F8576
:104DF000992309F4F7C0332009F4F4C00091C803E3
:104E00001091C903511013C0A401062C01C0440F16
:104E10000A94EAF7842B86838091DA039091DB036E
:104E20008017910720F41093DB030093DA03C40189
:104E300002C0880F991F2A95E2F70197F701268192
:104E40002817190679F480918804909189040097B5
:104E500009F44BC00E943B040817190708F045C02D
:104E6000F70124824328FFEFAF1ABF0A27E0E20EC2
:104E7000F11C38E0A316B10409F08DCF8F8588238B
:104E800009F410C1442009F40DC10E945604909306
:104E900089048093880480911504883010F591E08E
:104EA000980F9093150499E0FE013A96DE01119651
:104EB00001900D929A95E1F74DE0849FC001112475
:104EC0008A5E9B4F29E0FE013196DC0101900D9234
:104ED0002A95E1F72FEF3FEFFC0132872187D48637
:104EE000C3866E96E2E10C947F34809186045091E3
:104EF0008704982FF0E0E0E0851314C090938604B7
:104F0000EE15FF0509F4AECF90E0FC01EE0FFF1F98
:104F1000E258FB4FB182A08201968370992780935B
:104F20008704A0CF682E712CF301EE0FFF1FE2580B
:104F3000FB4F20813181F7E0F29FD001F39FB00D4C
:104F40001124A352BC4F2D913C9111973E8F2D8F70
:104F500040E020E030E0E32FF0E0EE0FFF1F6D8D2A
:104F60007E8DE60FF71F0081118101151105E1F01B
:104F7000F7010190F081E02DFC8FEB8F20E005C060
:104F80000617170709F4432D2F5FE22FF0E0EE0F0D
:104F9000FF1F6B8D7C8DE60FF71F6081718161159E
:104FA000710571F73F5FD7CF4423C9F0F70123178D
:104FB00008F0FD012482EE16FF0621F4909386048A
:104FC000342E50CF981305C0AE17BF0711F49F5F62
:104FD000937093012F5F3F4F822F83708DCFF0E04E
:104FE000E0E0F7CF90E0511020C0B40102C0660F9E
:104FF000771F2A95E2F79B012150310928173907BD
:1050000031F4442309F44CC0C5010E946505C40174
:10501000062C01C0880F0A94EAF7982F9095F701A3
:10502000868189238683352C1DCFAC01062C02C0D6
:10503000559547950A94E2F7BA01617077279C016C
:105040002150310982239323892B31F5672B21F1DC
:10505000F70182819381892BE1F0E98DFA8D27E0B8
:1050600011922A95E9F70E945604282F8B839C837E
:1050700034E03D83F70182819381782F8887998777
:1050800009811A813C8144E05E816F81892F0E94F1
:10509000E424F7011582BBCFF42FF1705F2EB7CF58
:1050A000532CB5CF9091860480918704981729F0EE
:1050B0000E94A725411015CF3BCE0E944F2510928C
:1050C0008904109288040E949305F4CF82E00E9424
:1050D000DB0A15CEA6E0B0E0E0E7F8E20C9473340A
:1050E00090931B0280931A02811520E2920730F4FC
:1050F0000E9400172696E2E00C948F3480EF89839B
:105100008A830E9456048160682F9C838B83498127
:105110005A817C8181E090E00E943B26EBCF0F9387
:105120001F93CF93DF938C01EB0164E272E08C2F2D
:105130000E94580D892BA1F48091D0039091D10346
:105140000E94D30CDD27C45EDD4F8881F8011282F6
:1051500018828330F1F048F4813059F0823081F0C8
:10516000DF91CF911F910F9108958430B9F0853070
:10517000B9F78091240290912502009789F306C027
:105180008091260290912702009799F30E946A2845
:10519000E7CF8091280290912902F6CF80912A02D0
:1051A00090912B02009791F72091240230912502D3
:1051B000809126029091270221153105F1F2009786
:1051C00029F7C901E3CFA6E0B0E0E9EEF8E20C94DC
:1051D000733490931B0280931A02811520E2920788
:1051E00030F40E94AF182696E2E00C948F3480EFE2
:1051F00089838A830E9456048160682F9C838B83F5
:1052000049815A817C8181E091E00E943B26EBCF6D
:10521000CF93DF93EC010E94E3288091D00390911B
:10522000D1030E94D30CCE010E946A28DF91CF9156
:1052300008950F931F93CF93DF938C01862F64E221
:1052400072E00E94580D892BB1F4C0912402D091D4
:105250002502209781F0F8018281833051F4CE013C
:105260000E940829CE010E940829CE010E94082927
:1052700002C08430D0F7DF91CF911F910F91089534
:105280000F931F93CF93DF938C01EB0164E272E0E5
:105290008C2F0E94580D892B09F05CC0FE01FF275E
:1052A000D80112968C911297E45EFD4F8130B9F4CB
:1052B00015969C9192FF02C080830AC090FFFCCF9C
:1052C00082E0808380912602909127020097B9F4B2
:1052D00080912402909125020097E1F110C0823064
:1052E000B9F515968C9182FD28C080FD0BC083E036
:1052F00080838091280290912902009701F10E94F9
:10530000E32828C084E0808380912A0290912B02B8
:105310000097A9F780912402909125020097F9F057
:105320000E9408298091260290912702009739F760
:105330008091240290912502E2CF85E080838091C4
:10534000240290912502009729F00E940829F0CFAD
:1053500086E08083DF91CF911F910F910895809116
:10536000260290912702B8CFA6E0B0E0EAEBF9E27E
:105370000C9471340E9456048C018091E10190914B
:10538000E2018017910781F019821A820E94560467
:10539000682F49815A81792F80E090E00E943B2656
:1053A0001093E2010093E1012696E4E00C948D3421
:1053B0001F920F920FB60F9211242F933F934F938A
:1053C0005F936F937F938F939F93AF93BF93CF938D
:1053D000DF93EF93FF93D091E900DF708091EC00B1
:1053E000C82FC17080FDC0E81092E9008091F000E4
:1053F000877F8093F00078940E94D2111092E90088
:105400008091F00088608093F000CD2BCF70C09326
:10541000E900FF91EF91DF91CF91BF91AF919F9103
:105420008F917F916F915F914F913F912F910F904D
:105430000FBE0F901F9018951F920F920FB60F92EC
:1054400011242F933F934F935F936F937F938F9389
:105450009F93AF93BF93EF93FF938091E10082FFFF
:1054600009C08091E20082FF05C08091E1008B7F3E
:105470008093E1008091DA0080FF24C08091D80001
:1054800080FF20C08091DA008E7F8093DA008091C7
:10549000D90080FF9DC080E189BD82E189BD09B44A
:1054A00000FEFDCF81E08093D6048091B10481118C
:1054B00009C00E94DE020E947F038091E2008460A6
:1054C0008093E2008091E10080FF17C08091E200AC
:1054D00080FF13C08091E2008E7F8093E200809174
:1054E000E20080618093E2008091D8008062809326
:1054F000D80019BC85E08093D6048091E10084FF38
:105500002BC08091E20084FF27C080E189BD82E149
:1055100089BD89B5982F917080FFFBCF8091D8000D
:105520008F7D8093D8008091E1008F7E8093E10091
:105530008091E2008F7E8093E2008091E2008160A2
:105540008093E2008091D704882309F447C084E067
:105550008093D6048091D6048091E10083FF27C018
:105560008091E20083FF23C08091E100877F8093D8
:10557000E10082E08093D6041092D7048091E1008C
:105580008E7F8093E1008091E2008E7F8093E20025
:105590008091E20080618093E20042E060E080E080
:1055A0000E944D038091F00088608093F000FF918D
:1055B000EF91BF91AF919F918F917F916F915F918B
:1055C0004F913F912F910F900FBE0F901F90189504
:1055D00019BC1092D6041092B10474CF8091E300EC
:1055E00087FD93E09093D604B5CF78941F921FB6B1
:1055F0001F9211248F939F93AF93BF938091AB041D
:105600009091AC04A091AD04B091AE040196A11D9F
:10561000B11D8093AB049093AC04A093AD04B09300
:10562000AE04BF91AF919F918F911F901FBE1F90AD
:1056300018951F921FB61F9211248F939F93AF93BB
:10564000BF938091AA04811113C08091AB04909103
:10565000AC04A091AD04B091AE044196A11DB11D62
:105660008093AB049093AC04A093AD04B093AE04CC
:10567000BF91AF919F918F911F901FBE1F90189562
:10568000CDB7DEB7C255D1090FB6F894DEBF0FBE55
:10569000CDBF85B7806885BF85B7806885BF84B773
:1056A000877F84BF0FB6F894A895809160008861C9
:1056B00080936000109260000FBE80E890E00FB60B
:1056C000F89480936100909361000FBE8EE397E0A1
:1056D00090937F0180937E010E944C060E94D60F1A
:1056E0000E94480F0E94C10E0E94DE020E947F03AA
:1056F0008091E20084608093E20078948091D604E7
:105700008823A1F01091E9001F709091EC00892F7F
:10571000817090FD80E8182B1092E9008091E800DC
:1057200083FD0E94D2111F701093E90082E084BDB6
:1057300093E095BD9AEF97BD80936E000E94E70EAF
:10574000811102C00E94A71581E080930002539846
:105750005B9A55985D9A8FE891E00197F1F700C048
:1057600000002091000241E052E0FA018E2F841BDC
:10577000821708F4C1C080EF0E94400781EF0E94A9
:10578000400784EF0E94400785EF0E94400785E3B1
:105790000E94400784E30E94400787E90E94400777
:1057A00086E90E94400784E0E7E0F2E0DF01282F6D
:1057B0001D922A95E9F7E6EEF1E0DF011D928A9548
:1057C000E9F790E080E00E94D834863E9E4F21F4B5
:1057D0000E94E70E811169C066EE7EEF90E080E0E6
:1057E0000E940C3560E082E090E00E94EE3460E0C0
:1057F00083E090E00E94EE341092EB011092EA01F7
:1058000060E074E184E090E00E940C3560E086E0A6
:1058100090E00E94EE346FEF87E090E00E94EE345B
:1058200040E050E0BA0188E090E00E94003560E07E
:1058300084E290E00E94EE3460E087E190E00E9414
:10584000EE3460E08CE090E00E94EE3460E08DE0A9
:1058500090E00E94EE3419821A821B821C821D8203
:105860001E821F82188648E050E068E170E0CE0199
:1058700001960E94DE3440E050E0BA0180E290E000
:105880000E94003580E00E943F0D0E94A71540E075
:1058900050E0BA018FE090E00E94003540E050E017
:1058A000BA0183E190E00E94003582E090E00E941E
:1058B000D0348093EE0184E090E00E94D83490933D
:1058C000B0048093AF040E941A10EFEFF6E721E0D6
:1058D000E150F0402040E1F700C000000E941A10A3
:1058E0008091070280FF14C06FEF7FEF90E080E0AF
:1058F0000E940C350E94AF0C89B183FB882780F988
:105900004D9904C090E0892B819330CF92E0FBCF7A
:1059100083E090E00E94D03490E00E94190B81E077
:1059200091E09093A7048093A60487E092E034E08E
:10593000380F63963FAF63978091D60460E4F62EEC
:1059400000E112E1853009F497C00E941A104FEE71
:10595000E42E41E0F42E57E0C52E52E0D52E23EF81
:1059600031E0D601F70191918D912E173F0709F48F
:105970008DC09817C1F310E088248394D6010D914F
:105980006D01F70181917F018017C1F1982E90265A
:10599000B12CAA24A394892D8A2141F12D96BFAE62
:1059A0002D972E961FAF2E970E94560460969FAF9C
:1059B0008EAF609761968FAE619791E0802F8A21BC
:1059C00009F490E062969FAF62972D964FAD2D97A8
:1059D0002E965FAD2E972F966FAD2F9760967FAD69
:1059E000609761968FAD61970E943B26B394AA0C95
:1059F000F4E0BF12D0CFF701319700831F5F14305E
:105A000009F0BCCF0E944A0445C08091D60484307E
:105A100019F11092AA0488E190E00FB6F894A895C5
:105A2000809360000FBEF092600083B7817F846036
:105A300083BF83B7816083BF7894889583B78E7F57
:105A400083BF0FB6F894A895809160008861809319
:105A50006000109260000FBE8091D504882361F031
:105A60000E941A10E7E0F2E081918111A6C66396C8
:105A70009FAD63979E13F8CF8091D604853009F4CB
:105A8000C4CF0E94A3110E94E1045FCF981373CF8B
:105A90000E94B42980919B0490919C04892B09F465
:105AA0003EC0409190045091910460919204709195
:105AB00093042FB7F8948091AB049091AC04A0911B
:105AC000AD04B091AE042FBF841B950BA60BB70B92
:105AD00040918C0450918D0460918E0470918F04DC
